
smartsonic-hellochirp-example.elf:     file format elf32-littlearm

Sections:
Idx Name          Size      VMA       LMA       File off  Algn
  0 .text         0000d368  00400000  00400000  00010000  2**4
                  CONTENTS, ALLOC, LOAD, READONLY, CODE
  1 .ARM.exidx    00000008  0040d368  0040d368  0001d368  2**2
                  CONTENTS, ALLOC, LOAD, READONLY, DATA
  2 .relocate     00000348  20000000  0040d370  00020000  2**2
                  CONTENTS, ALLOC, LOAD, CODE
  3 .bss          00000648  20000348  0040d6b8  00020348  2**3
                  ALLOC
  4 .stack        00003000  20000990  0040dd00  00020348  2**0
                  ALLOC
  5 .ARM.attributes 0000002e  00000000  00000000  00020348  2**0
                  CONTENTS, READONLY
  6 .comment      00000059  00000000  00000000  00020376  2**0
                  CONTENTS, READONLY
  7 .debug_info   00038bc4  00000000  00000000  000203cf  2**0
                  CONTENTS, READONLY, DEBUGGING
  8 .debug_abbrev 00005ee8  00000000  00000000  00058f93  2**0
                  CONTENTS, READONLY, DEBUGGING
  9 .debug_loc    0000e24e  00000000  00000000  0005ee7b  2**0
                  CONTENTS, READONLY, DEBUGGING
 10 .debug_aranges 00001950  00000000  00000000  0006d0c9  2**0
                  CONTENTS, READONLY, DEBUGGING
 11 .debug_ranges 000017f0  00000000  00000000  0006ea19  2**0
                  CONTENTS, READONLY, DEBUGGING
 12 .debug_line   0000e75e  00000000  00000000  00070209  2**0
                  CONTENTS, READONLY, DEBUGGING
 13 .debug_str    00007b3a  00000000  00000000  0007e967  2**0
                  CONTENTS, READONLY, DEBUGGING
 14 .debug_frame  000077a8  00000000  00000000  000864a4  2**2
                  CONTENTS, READONLY, DEBUGGING

Disassembly of section .text:

00400000 <exception_table>:
  400000:	90 39 00 20 29 52 40 00 f9 52 40 00 f9 52 40 00     .9. )R@..R@..R@.
  400010:	f9 52 40 00 f9 52 40 00 f9 52 40 00 00 00 00 00     .R@..R@..R@.....
	...
  40002c:	f9 52 40 00 f9 52 40 00 00 00 00 00 f9 52 40 00     .R@..R@......R@.
  40003c:	f9 52 40 00 f9 52 40 00 f9 52 40 00 f9 52 40 00     .R@..R@..R@..R@.
  40004c:	95 13 40 00 f9 52 40 00 f9 52 40 00 f9 52 40 00     ..@..R@..R@..R@.
  40005c:	f9 52 40 00 f9 52 40 00 f9 11 40 00 00 00 00 00     .R@..R@...@.....
  40006c:	ed 10 40 00 01 40 40 00 f9 52 40 00 f9 52 40 00     ..@..@@..R@..R@.
  40007c:	f9 52 40 00 f9 52 40 00 f9 52 40 00 f9 52 40 00     .R@..R@..R@..R@.
  40008c:	0d 12 40 00 f9 52 40 00 f9 52 40 00 f9 52 40 00     ..@..R@..R@..R@.
  40009c:	ad 13 40 00 bd 13 40 00 f9 52 40 00 f9 52 40 00     ..@...@..R@..R@.
  4000ac:	f9 52 40 00 f9 52 40 00 1d 37 40 00 f9 52 40 00     .R@..R@..7@..R@.
	...
  4000fc:	f9 52 40 00 f9 52 40 00 f9 52 40 00 00 00 00 00     .R@..R@..R@.....
	...

00400148 <__do_global_dtors_aux>:
  400148:	b510      	push	{r4, lr}
  40014a:	4c05      	ldr	r4, [pc, #20]	; (400160 <__do_global_dtors_aux+0x18>)
  40014c:	7823      	ldrb	r3, [r4, #0]
  40014e:	b933      	cbnz	r3, 40015e <__do_global_dtors_aux+0x16>
  400150:	4b04      	ldr	r3, [pc, #16]	; (400164 <__do_global_dtors_aux+0x1c>)
  400152:	b113      	cbz	r3, 40015a <__do_global_dtors_aux+0x12>
  400154:	4804      	ldr	r0, [pc, #16]	; (400168 <__do_global_dtors_aux+0x20>)
  400156:	f3af 8000 	nop.w
  40015a:	2301      	movs	r3, #1
  40015c:	7023      	strb	r3, [r4, #0]
  40015e:	bd10      	pop	{r4, pc}
  400160:	20000348 	.word	0x20000348
  400164:	00000000 	.word	0x00000000
  400168:	0040d370 	.word	0x0040d370

0040016c <frame_dummy>:
  40016c:	4b0c      	ldr	r3, [pc, #48]	; (4001a0 <frame_dummy+0x34>)
  40016e:	b143      	cbz	r3, 400182 <frame_dummy+0x16>
  400170:	480c      	ldr	r0, [pc, #48]	; (4001a4 <frame_dummy+0x38>)
  400172:	490d      	ldr	r1, [pc, #52]	; (4001a8 <frame_dummy+0x3c>)
  400174:	b510      	push	{r4, lr}
  400176:	f3af 8000 	nop.w
  40017a:	480c      	ldr	r0, [pc, #48]	; (4001ac <frame_dummy+0x40>)
  40017c:	6803      	ldr	r3, [r0, #0]
  40017e:	b923      	cbnz	r3, 40018a <frame_dummy+0x1e>
  400180:	bd10      	pop	{r4, pc}
  400182:	480a      	ldr	r0, [pc, #40]	; (4001ac <frame_dummy+0x40>)
  400184:	6803      	ldr	r3, [r0, #0]
  400186:	b933      	cbnz	r3, 400196 <frame_dummy+0x2a>
  400188:	4770      	bx	lr
  40018a:	4b09      	ldr	r3, [pc, #36]	; (4001b0 <frame_dummy+0x44>)
  40018c:	2b00      	cmp	r3, #0
  40018e:	d0f7      	beq.n	400180 <frame_dummy+0x14>
  400190:	e8bd 4010 	ldmia.w	sp!, {r4, lr}
  400194:	4718      	bx	r3
  400196:	4b06      	ldr	r3, [pc, #24]	; (4001b0 <frame_dummy+0x44>)
  400198:	2b00      	cmp	r3, #0
  40019a:	d0f5      	beq.n	400188 <frame_dummy+0x1c>
  40019c:	4718      	bx	r3
  40019e:	bf00      	nop
  4001a0:	00000000 	.word	0x00000000
  4001a4:	0040d370 	.word	0x0040d370
  4001a8:	2000034c 	.word	0x2000034c
  4001ac:	0040d370 	.word	0x0040d370
  4001b0:	00000000 	.word	0x00000000

004001b4 <main>:
 * and configuration, callback routine registration, and timer setup.  After 
 * the initialization sequence completes, this routine enters an infinite 
 * loop that will run for the remainder of the application execution.
 */

int main(void) {
  4001b4:	e92d 43f0 	stmdb	sp!, {r4, r5, r6, r7, r8, r9, lr}
  4001b8:	b093      	sub	sp, #76	; 0x4c
  4001ba:	af04      	add	r7, sp, #16
	ch_group_t	*grp_ptr = &chirp_group;
  4001bc:	4b82      	ldr	r3, [pc, #520]	; (4003c8 <main+0x214>)
  4001be:	633b      	str	r3, [r7, #48]	; 0x30
	uint8_t chirp_error = 0;
  4001c0:	2300      	movs	r3, #0
  4001c2:	f887 3037 	strb.w	r3, [r7, #55]	; 0x37
	 *
	 *   The chbsp_board_init() function also initializes fields within the 
	 *   sensor group descriptor, including number of supported sensors and 
	 *   the RTC clock calibration pulse length.
	 */
	chbsp_board_init(grp_ptr);
  4001c6:	6b38      	ldr	r0, [r7, #48]	; 0x30
  4001c8:	4b80      	ldr	r3, [pc, #512]	; (4003cc <main+0x218>)
  4001ca:	4798      	blx	r3

	printf("\n\nHello Chirp! - Chirp SonicLib Example Application\n");
  4001cc:	4880      	ldr	r0, [pc, #512]	; (4003d0 <main+0x21c>)
  4001ce:	4b81      	ldr	r3, [pc, #516]	; (4003d4 <main+0x220>)
  4001d0:	4798      	blx	r3
	printf("    Compile time:  %s %s\n", __DATE__, __TIME__);
  4001d2:	4a81      	ldr	r2, [pc, #516]	; (4003d8 <main+0x224>)
  4001d4:	4981      	ldr	r1, [pc, #516]	; (4003dc <main+0x228>)
  4001d6:	4882      	ldr	r0, [pc, #520]	; (4003e0 <main+0x22c>)
  4001d8:	4b7e      	ldr	r3, [pc, #504]	; (4003d4 <main+0x220>)
  4001da:	4798      	blx	r3
	printf("    Version: %u.%u.%u", APP_VERSION_MAJOR, APP_VERSION_MINOR,
  4001dc:	2300      	movs	r3, #0
  4001de:	221f      	movs	r2, #31
  4001e0:	2101      	movs	r1, #1
  4001e2:	4880      	ldr	r0, [pc, #512]	; (4003e4 <main+0x230>)
  4001e4:	4c7b      	ldr	r4, [pc, #492]	; (4003d4 <main+0x220>)
  4001e6:	47a0      	blx	r4
										  APP_VERSION_REV);
	printf("    SonicLib version: %u.%u.%u\n", SONICLIB_VER_MAJOR, 
  4001e8:	2308      	movs	r3, #8
  4001ea:	2201      	movs	r2, #1
  4001ec:	2102      	movs	r1, #2
  4001ee:	487e      	ldr	r0, [pc, #504]	; (4003e8 <main+0x234>)
  4001f0:	4c78      	ldr	r4, [pc, #480]	; (4003d4 <main+0x220>)
  4001f2:	47a0      	blx	r4
										  SONICLIB_VER_MINOR, SONICLIB_VER_REV);
	printf("\n");
  4001f4:	487d      	ldr	r0, [pc, #500]	; (4003ec <main+0x238>)
  4001f6:	4b77      	ldr	r3, [pc, #476]	; (4003d4 <main+0x220>)
  4001f8:	4798      	blx	r3


	/* Get the number of (possible) sensor devices on the board
	 *   Set by the BSP during chbsp_board_init() 
	 */
	num_ports = ch_get_num_ports(grp_ptr);
  4001fa:	6b38      	ldr	r0, [r7, #48]	; 0x30
  4001fc:	4b7c      	ldr	r3, [pc, #496]	; (4003f0 <main+0x23c>)
  4001fe:	4798      	blx	r3
  400200:	4603      	mov	r3, r0
  400202:	f887 302f 	strb.w	r3, [r7, #47]	; 0x2f
	 *   it will be added to, the device number within the group, and the sensor
	 *   firmware initialization routine that will be used.  (The sensor 
	 *   firmware selection effectively specifies whether it is a CH101 or 
	 *   CH201 sensor, as well as the exact feature set.)
	 */
	printf("Initializing sensor(s)... ");
  400206:	487b      	ldr	r0, [pc, #492]	; (4003f4 <main+0x240>)
  400208:	4b72      	ldr	r3, [pc, #456]	; (4003d4 <main+0x220>)
  40020a:	4798      	blx	r3

	for (dev_num = 0; dev_num < num_ports; dev_num++) {
  40020c:	2300      	movs	r3, #0
  40020e:	f887 3036 	strb.w	r3, [r7, #54]	; 0x36
  400212:	e01b      	b.n	40024c <main+0x98>
		ch_dev_t *dev_ptr = &(chirp_devices[dev_num]);	// init struct in array
  400214:	f897 2036 	ldrb.w	r2, [r7, #54]	; 0x36
  400218:	4613      	mov	r3, r2
  40021a:	011b      	lsls	r3, r3, #4
  40021c:	1a9b      	subs	r3, r3, r2
  40021e:	011b      	lsls	r3, r3, #4
  400220:	4a75      	ldr	r2, [pc, #468]	; (4003f8 <main+0x244>)
  400222:	4413      	add	r3, r2
  400224:	62bb      	str	r3, [r7, #40]	; 0x28
		 *
		 *   However, it is possible for different sensors to use different 
		 *   firmware images, by specifying different firmware init routines 
		 *   when ch_init() is called for each.
		 */
		chirp_error |= ch_init(dev_ptr, grp_ptr, dev_num, 
  400226:	f897 2036 	ldrb.w	r2, [r7, #54]	; 0x36
  40022a:	4b74      	ldr	r3, [pc, #464]	; (4003fc <main+0x248>)
  40022c:	6b39      	ldr	r1, [r7, #48]	; 0x30
  40022e:	6ab8      	ldr	r0, [r7, #40]	; 0x28
  400230:	4c73      	ldr	r4, [pc, #460]	; (400400 <main+0x24c>)
  400232:	47a0      	blx	r4
  400234:	4603      	mov	r3, r0
  400236:	461a      	mov	r2, r3
  400238:	f897 3037 	ldrb.w	r3, [r7, #55]	; 0x37
  40023c:	4313      	orrs	r3, r2
  40023e:	f887 3037 	strb.w	r3, [r7, #55]	; 0x37
	for (dev_num = 0; dev_num < num_ports; dev_num++) {
  400242:	f897 3036 	ldrb.w	r3, [r7, #54]	; 0x36
  400246:	3301      	adds	r3, #1
  400248:	f887 3036 	strb.w	r3, [r7, #54]	; 0x36
  40024c:	f897 2036 	ldrb.w	r2, [r7, #54]	; 0x36
  400250:	f897 302f 	ldrb.w	r3, [r7, #47]	; 0x2f
  400254:	429a      	cmp	r2, r3
  400256:	d3dd      	bcc.n	400214 <main+0x60>
	 *   the firmware specified above during ch_init()) and waits for it to 
	 *   perform a self-calibration step.  Then, once it has found all the 
	 *   sensors, ch_group_start() completes a timing reference calibration by 
	 *   applying a pulse of known length to the sensor's INT line.
	 */
	if (chirp_error == 0) {
  400258:	f897 3037 	ldrb.w	r3, [r7, #55]	; 0x37
  40025c:	2b00      	cmp	r3, #0
  40025e:	d108      	bne.n	400272 <main+0xbe>
		printf("starting group... ");
  400260:	4868      	ldr	r0, [pc, #416]	; (400404 <main+0x250>)
  400262:	4b5c      	ldr	r3, [pc, #368]	; (4003d4 <main+0x220>)
  400264:	4798      	blx	r3
		chirp_error = ch_group_start(grp_ptr);
  400266:	6b38      	ldr	r0, [r7, #48]	; 0x30
  400268:	4b67      	ldr	r3, [pc, #412]	; (400408 <main+0x254>)
  40026a:	4798      	blx	r3
  40026c:	4603      	mov	r3, r0
  40026e:	f887 3037 	strb.w	r3, [r7, #55]	; 0x37
	}

	if (chirp_error == 0) {
  400272:	f897 3037 	ldrb.w	r3, [r7, #55]	; 0x37
  400276:	2b00      	cmp	r3, #0
  400278:	d103      	bne.n	400282 <main+0xce>
		printf("OK\n");
  40027a:	4864      	ldr	r0, [pc, #400]	; (40040c <main+0x258>)
  40027c:	4b55      	ldr	r3, [pc, #340]	; (4003d4 <main+0x220>)
  40027e:	4798      	blx	r3
  400280:	e005      	b.n	40028e <main+0xda>
	} else {
		printf("FAILED: %d\n", chirp_error);
  400282:	f897 3037 	ldrb.w	r3, [r7, #55]	; 0x37
  400286:	4619      	mov	r1, r3
  400288:	4861      	ldr	r0, [pc, #388]	; (400410 <main+0x25c>)
  40028a:	4b52      	ldr	r3, [pc, #328]	; (4003d4 <main+0x220>)
  40028c:	4798      	blx	r3
	}
	printf("\n");
  40028e:	4857      	ldr	r0, [pc, #348]	; (4003ec <main+0x238>)
  400290:	4b50      	ldr	r3, [pc, #320]	; (4003d4 <main+0x220>)
  400292:	4798      	blx	r3
	 *   This loop checks each device number in the sensor group to determine 
	 *   if a sensor is actually connected.  If so, it makes a series of 
	 *   function calls to get different operating values, including the 
	 *   operating frequency, clock calibration values, and firmware version.
 	 */
	printf("Sensor\tType \t   Freq\t\t RTC Cal \tFirmware\n");
  400294:	485f      	ldr	r0, [pc, #380]	; (400414 <main+0x260>)
  400296:	4b4f      	ldr	r3, [pc, #316]	; (4003d4 <main+0x220>)
  400298:	4798      	blx	r3

	for (dev_num = 0; dev_num < num_ports; dev_num++) {
  40029a:	2300      	movs	r3, #0
  40029c:	f887 3036 	strb.w	r3, [r7, #54]	; 0x36
  4002a0:	e033      	b.n	40030a <main+0x156>
		ch_dev_t *dev_ptr = ch_get_dev_ptr(grp_ptr, dev_num);
  4002a2:	f897 3036 	ldrb.w	r3, [r7, #54]	; 0x36
  4002a6:	4619      	mov	r1, r3
  4002a8:	6b38      	ldr	r0, [r7, #48]	; 0x30
  4002aa:	4b5b      	ldr	r3, [pc, #364]	; (400418 <main+0x264>)
  4002ac:	4798      	blx	r3
  4002ae:	6278      	str	r0, [r7, #36]	; 0x24

		if (ch_sensor_is_connected(dev_ptr)) {
  4002b0:	6a78      	ldr	r0, [r7, #36]	; 0x24
  4002b2:	4b5a      	ldr	r3, [pc, #360]	; (40041c <main+0x268>)
  4002b4:	4798      	blx	r3
  4002b6:	4603      	mov	r3, r0
  4002b8:	2b00      	cmp	r3, #0
  4002ba:	d021      	beq.n	400300 <main+0x14c>
			printf("%d\tCH%d\t %u Hz\t%u@%ums\t%s\n", dev_num,
  4002bc:	f897 4036 	ldrb.w	r4, [r7, #54]	; 0x36
									ch_get_part_number(dev_ptr),
  4002c0:	6a78      	ldr	r0, [r7, #36]	; 0x24
  4002c2:	4b57      	ldr	r3, [pc, #348]	; (400420 <main+0x26c>)
  4002c4:	4798      	blx	r3
  4002c6:	4603      	mov	r3, r0
			printf("%d\tCH%d\t %u Hz\t%u@%ums\t%s\n", dev_num,
  4002c8:	4698      	mov	r8, r3
									(unsigned int) ch_get_frequency(dev_ptr),
  4002ca:	6a78      	ldr	r0, [r7, #36]	; 0x24
  4002cc:	4b55      	ldr	r3, [pc, #340]	; (400424 <main+0x270>)
  4002ce:	4798      	blx	r3
  4002d0:	4681      	mov	r9, r0
									ch_get_rtc_cal_result(dev_ptr),
  4002d2:	6a78      	ldr	r0, [r7, #36]	; 0x24
  4002d4:	4b54      	ldr	r3, [pc, #336]	; (400428 <main+0x274>)
  4002d6:	4798      	blx	r3
  4002d8:	4603      	mov	r3, r0
			printf("%d\tCH%d\t %u Hz\t%u@%ums\t%s\n", dev_num,
  4002da:	461d      	mov	r5, r3
									ch_get_rtc_cal_pulselength(dev_ptr),
  4002dc:	6a78      	ldr	r0, [r7, #36]	; 0x24
  4002de:	4b53      	ldr	r3, [pc, #332]	; (40042c <main+0x278>)
  4002e0:	4798      	blx	r3
  4002e2:	4603      	mov	r3, r0
			printf("%d\tCH%d\t %u Hz\t%u@%ums\t%s\n", dev_num,
  4002e4:	461e      	mov	r6, r3
  4002e6:	6a78      	ldr	r0, [r7, #36]	; 0x24
  4002e8:	4b51      	ldr	r3, [pc, #324]	; (400430 <main+0x27c>)
  4002ea:	4798      	blx	r3
  4002ec:	4603      	mov	r3, r0
  4002ee:	9302      	str	r3, [sp, #8]
  4002f0:	9601      	str	r6, [sp, #4]
  4002f2:	9500      	str	r5, [sp, #0]
  4002f4:	464b      	mov	r3, r9
  4002f6:	4642      	mov	r2, r8
  4002f8:	4621      	mov	r1, r4
  4002fa:	484e      	ldr	r0, [pc, #312]	; (400434 <main+0x280>)
  4002fc:	4c35      	ldr	r4, [pc, #212]	; (4003d4 <main+0x220>)
  4002fe:	47a0      	blx	r4
	for (dev_num = 0; dev_num < num_ports; dev_num++) {
  400300:	f897 3036 	ldrb.w	r3, [r7, #54]	; 0x36
  400304:	3301      	adds	r3, #1
  400306:	f887 3036 	strb.w	r3, [r7, #54]	; 0x36
  40030a:	f897 2036 	ldrb.w	r2, [r7, #54]	; 0x36
  40030e:	f897 302f 	ldrb.w	r3, [r7, #47]	; 0x2f
  400312:	429a      	cmp	r2, r3
  400314:	d3c5      	bcc.n	4002a2 <main+0xee>
									ch_get_fw_version_string(dev_ptr));
		}
	}
	printf("\n");
  400316:	4835      	ldr	r0, [pc, #212]	; (4003ec <main+0x238>)
  400318:	4b2e      	ldr	r3, [pc, #184]	; (4003d4 <main+0x220>)
  40031a:	4798      	blx	r3

	/* Register callback function to be called when Chirp sensor interrupts */
	ch_io_int_callback_set(grp_ptr, sensor_int_callback);
  40031c:	4946      	ldr	r1, [pc, #280]	; (400438 <main+0x284>)
  40031e:	6b38      	ldr	r0, [r7, #48]	; 0x30
  400320:	4b46      	ldr	r3, [pc, #280]	; (40043c <main+0x288>)
  400322:	4798      	blx	r3

	/* Register callback function called when non-blocking I/Q readout completes
 	 *   Note, this callback will only be used if READ_IQ_DATA_NONBLOCK is 
	 *   defined to enable non-blocking I/Q readout in this application.
	 */
	ch_io_complete_callback_set(grp_ptr, io_complete_callback);
  400324:	4946      	ldr	r1, [pc, #280]	; (400440 <main+0x28c>)
  400326:	6b38      	ldr	r0, [r7, #48]	; 0x30
  400328:	4b46      	ldr	r3, [pc, #280]	; (400444 <main+0x290>)
  40032a:	4798      	blx	r3
	/* Configure each sensor with its operating parameters 
	 *   Initialize a ch_config_t structure with values defined in the
	 *   app_config.h header file, then write the configuration to the 
	 *   sensor using ch_set_config().
	 */
	printf ("Configuring sensor(s)...\n");
  40032c:	4846      	ldr	r0, [pc, #280]	; (400448 <main+0x294>)
  40032e:	4b29      	ldr	r3, [pc, #164]	; (4003d4 <main+0x220>)
  400330:	4798      	blx	r3
	for (dev_num = 0; dev_num < num_ports; dev_num++) {
  400332:	2300      	movs	r3, #0
  400334:	f887 3036 	strb.w	r3, [r7, #54]	; 0x36
  400338:	e103      	b.n	400542 <main+0x38e>
		ch_config_t dev_config;
		ch_dev_t *dev_ptr = ch_get_dev_ptr(grp_ptr, dev_num);
  40033a:	f897 3036 	ldrb.w	r3, [r7, #54]	; 0x36
  40033e:	4619      	mov	r1, r3
  400340:	6b38      	ldr	r0, [r7, #48]	; 0x30
  400342:	4b35      	ldr	r3, [pc, #212]	; (400418 <main+0x264>)
  400344:	4798      	blx	r3
  400346:	6238      	str	r0, [r7, #32]

		if (ch_sensor_is_connected(dev_ptr)) {
  400348:	6a38      	ldr	r0, [r7, #32]
  40034a:	4b34      	ldr	r3, [pc, #208]	; (40041c <main+0x268>)
  40034c:	4798      	blx	r3
  40034e:	4603      	mov	r3, r0
  400350:	2b00      	cmp	r3, #0
  400352:	f000 80f1 	beq.w	400538 <main+0x384>
			 *   All connected sensors are placed in hardware triggered mode.
 	 		 *   The first connected (lowest numbered) sensor will transmit and 
			 *   receive, all others will only receive.
 	 		 */

			num_connected_sensors++;			// count one more connected
  400356:	4b3d      	ldr	r3, [pc, #244]	; (40044c <main+0x298>)
  400358:	781b      	ldrb	r3, [r3, #0]
  40035a:	3301      	adds	r3, #1
  40035c:	b2da      	uxtb	r2, r3
  40035e:	4b3b      	ldr	r3, [pc, #236]	; (40044c <main+0x298>)
  400360:	701a      	strb	r2, [r3, #0]
			active_devices |= (1 << dev_num);	// add to active device bit mask
  400362:	f897 3036 	ldrb.w	r3, [r7, #54]	; 0x36
  400366:	2201      	movs	r2, #1
  400368:	fa02 f303 	lsl.w	r3, r2, r3
  40036c:	461a      	mov	r2, r3
  40036e:	4b38      	ldr	r3, [pc, #224]	; (400450 <main+0x29c>)
  400370:	681b      	ldr	r3, [r3, #0]
  400372:	4313      	orrs	r3, r2
  400374:	4a36      	ldr	r2, [pc, #216]	; (400450 <main+0x29c>)
  400376:	6013      	str	r3, [r2, #0]
			
			if (num_connected_sensors == 1) {	// if this is the first sensor
  400378:	4b34      	ldr	r3, [pc, #208]	; (40044c <main+0x298>)
  40037a:	781b      	ldrb	r3, [r3, #0]
  40037c:	2b01      	cmp	r3, #1
  40037e:	d102      	bne.n	400386 <main+0x1d2>
				dev_config.mode = CHIRP_FIRST_SENSOR_MODE;
  400380:	2302      	movs	r3, #2
  400382:	713b      	strb	r3, [r7, #4]
  400384:	e001      	b.n	40038a <main+0x1d6>
			} else {									
				dev_config.mode = CHIRP_OTHER_SENSOR_MODE;
  400386:	2320      	movs	r3, #32
  400388:	713b      	strb	r3, [r7, #4]
			}

			if (dev_config.mode != CH_MODE_FREERUN) {	// unless free-running
  40038a:	793b      	ldrb	r3, [r7, #4]
  40038c:	2b02      	cmp	r3, #2
  40038e:	d005      	beq.n	40039c <main+0x1e8>
				num_triggered_devices++;				// will be triggered
  400390:	4b30      	ldr	r3, [pc, #192]	; (400454 <main+0x2a0>)
  400392:	781b      	ldrb	r3, [r3, #0]
  400394:	3301      	adds	r3, #1
  400396:	b2da      	uxtb	r2, r3
  400398:	4b2e      	ldr	r3, [pc, #184]	; (400454 <main+0x2a0>)
  40039a:	701a      	strb	r2, [r3, #0]
			}

			/* Init config structure with values from app_config.h */
			dev_config.max_range       = CHIRP_SENSOR_MAX_RANGE_MM;
  40039c:	f44f 73c8 	mov.w	r3, #400	; 0x190
  4003a0:	80fb      	strh	r3, [r7, #6]
			dev_config.static_range    = CHIRP_SENSOR_STATIC_RANGE;
  4003a2:	2300      	movs	r3, #0
  4003a4:	813b      	strh	r3, [r7, #8]

			/* If sensor will be free-running, set internal sample interval */
			if (dev_config.mode == CH_MODE_FREERUN) {
  4003a6:	793b      	ldrb	r3, [r7, #4]
  4003a8:	2b02      	cmp	r3, #2
  4003aa:	d102      	bne.n	4003b2 <main+0x1fe>
				dev_config.sample_interval = MEASUREMENT_INTERVAL_MS;
  4003ac:	2364      	movs	r3, #100	; 0x64
  4003ae:	817b      	strh	r3, [r7, #10]
  4003b0:	e001      	b.n	4003b6 <main+0x202>
			} else {
				dev_config.sample_interval = 0;
  4003b2:	2300      	movs	r3, #0
  4003b4:	817b      	strh	r3, [r7, #10]
			}

			/* Set detection thresholds (CH201 only) */
			if (ch_get_part_number(dev_ptr) == CH201_PART_NUMBER) {
  4003b6:	6a38      	ldr	r0, [r7, #32]
  4003b8:	4b19      	ldr	r3, [pc, #100]	; (400420 <main+0x26c>)
  4003ba:	4798      	blx	r3
  4003bc:	4603      	mov	r3, r0
  4003be:	2bc9      	cmp	r3, #201	; 0xc9
  4003c0:	d14c      	bne.n	40045c <main+0x2a8>
				/* Set pointer to struct containing detection thresholds */
				dev_config.thresh_ptr = &chirp_ch201_thresholds;	
  4003c2:	4b25      	ldr	r3, [pc, #148]	; (400458 <main+0x2a4>)
  4003c4:	60fb      	str	r3, [r7, #12]
  4003c6:	e04b      	b.n	400460 <main+0x2ac>
  4003c8:	2000043c 	.word	0x2000043c
  4003cc:	00401f71 	.word	0x00401f71
  4003d0:	0040c3fc 	.word	0x0040c3fc
  4003d4:	004097cd 	.word	0x004097cd
  4003d8:	0040c434 	.word	0x0040c434
  4003dc:	0040c440 	.word	0x0040c440
  4003e0:	0040c44c 	.word	0x0040c44c
  4003e4:	0040c468 	.word	0x0040c468
  4003e8:	0040c480 	.word	0x0040c480
  4003ec:	0040c4a0 	.word	0x0040c4a0
  4003f0:	00405a27 	.word	0x00405a27
  4003f4:	0040c4a4 	.word	0x0040c4a4
  4003f8:	20000510 	.word	0x20000510
  4003fc:	0040557d 	.word	0x0040557d
  400400:	00405791 	.word	0x00405791
  400404:	0040c4c0 	.word	0x0040c4c0
  400408:	0040594d 	.word	0x0040594d
  40040c:	0040c4d4 	.word	0x0040c4d4
  400410:	0040c4d8 	.word	0x0040c4d8
  400414:	0040c4e4 	.word	0x0040c4e4
  400418:	004059d3 	.word	0x004059d3
  40041c:	00405989 	.word	0x00405989
  400420:	004059a1 	.word	0x004059a1
  400424:	00405c47 	.word	0x00405c47
  400428:	00405c79 	.word	0x00405c79
  40042c:	00405c5f 	.word	0x00405c5f
  400430:	00405a3f 	.word	0x00405a3f
  400434:	0040c510 	.word	0x0040c510
  400438:	00400659 	.word	0x00400659
  40043c:	00405e47 	.word	0x00405e47
  400440:	004006ed 	.word	0x004006ed
  400444:	00405e63 	.word	0x00405e63
  400448:	0040c52c 	.word	0x0040c52c
  40044c:	20000370 	.word	0x20000370
  400450:	20000368 	.word	0x20000368
  400454:	20000371 	.word	0x20000371
  400458:	200000fc 	.word	0x200000fc
			} else {
				dev_config.thresh_ptr = 0;							
  40045c:	2300      	movs	r3, #0
  40045e:	60fb      	str	r3, [r7, #12]
			}

			/* Apply sensor configuration */
			chirp_error = ch_set_config(dev_ptr, &dev_config);
  400460:	1d3b      	adds	r3, r7, #4
  400462:	4619      	mov	r1, r3
  400464:	6a38      	ldr	r0, [r7, #32]
  400466:	4b54      	ldr	r3, [pc, #336]	; (4005b8 <main+0x404>)
  400468:	4798      	blx	r3
  40046a:	4603      	mov	r3, r0
  40046c:	f887 3037 	strb.w	r3, [r7, #55]	; 0x37

			/* Enable sensor interrupt if using free-running mode 
			 *   Note that interrupt is automatically enabled if using 
			 *   triggered modes.
			 */
			if ((!chirp_error) && (dev_config.mode == CH_MODE_FREERUN)) {
  400470:	f897 3037 	ldrb.w	r3, [r7, #55]	; 0x37
  400474:	2b00      	cmp	r3, #0
  400476:	d108      	bne.n	40048a <main+0x2d6>
  400478:	793b      	ldrb	r3, [r7, #4]
  40047a:	2b02      	cmp	r3, #2
  40047c:	d105      	bne.n	40048a <main+0x2d6>
				chbsp_set_io_dir_in(dev_ptr);
  40047e:	6a38      	ldr	r0, [r7, #32]
  400480:	4b4e      	ldr	r3, [pc, #312]	; (4005bc <main+0x408>)
  400482:	4798      	blx	r3
				chbsp_io_interrupt_enable(dev_ptr);
  400484:	6a38      	ldr	r0, [r7, #32]
  400486:	4b4e      	ldr	r3, [pc, #312]	; (4005c0 <main+0x40c>)
  400488:	4798      	blx	r3
			}

			/* romaks */
			if (!chirp_error) {	
  40048a:	f897 3037 	ldrb.w	r3, [r7, #55]	; 0x37
  40048e:	2b00      	cmp	r3, #0
  400490:	d13b      	bne.n	40050a <main+0x356>
					uint16_t max_range_samples = ch_mm_to_samples(dev_ptr, CHIRP_SENSOR_MAX_RANGE_MM);
  400492:	f44f 71c8 	mov.w	r1, #400	; 0x190
  400496:	6a38      	ldr	r0, [r7, #32]
  400498:	4b4a      	ldr	r3, [pc, #296]	; (4005c4 <main+0x410>)
  40049a:	4798      	blx	r3
  40049c:	4603      	mov	r3, r0
  40049e:	83fb      	strh	r3, [r7, #30]
					printf("max_range_samples: %d\n", max_range_samples);
  4004a0:	8bfb      	ldrh	r3, [r7, #30]
  4004a2:	4619      	mov	r1, r3
  4004a4:	4848      	ldr	r0, [pc, #288]	; (4005c8 <main+0x414>)
  4004a6:	4b49      	ldr	r3, [pc, #292]	; (4005cc <main+0x418>)
  4004a8:	4798      	blx	r3
					
					uint16_t max_num_samples = ch_get_max_samples(dev_ptr);
  4004aa:	6a38      	ldr	r0, [r7, #32]
  4004ac:	4b48      	ldr	r3, [pc, #288]	; (4005d0 <main+0x41c>)
  4004ae:	4798      	blx	r3
  4004b0:	4603      	mov	r3, r0
  4004b2:	83bb      	strh	r3, [r7, #28]
					printf("max_num_samples: %d\n", max_num_samples);
  4004b4:	8bbb      	ldrh	r3, [r7, #28]
  4004b6:	4619      	mov	r1, r3
  4004b8:	4846      	ldr	r0, [pc, #280]	; (4005d4 <main+0x420>)
  4004ba:	4b44      	ldr	r3, [pc, #272]	; (4005cc <main+0x418>)
  4004bc:	4798      	blx	r3

					ch_set_static_range(dev_ptr, max_range_samples); //max_num_samples?
  4004be:	8bfb      	ldrh	r3, [r7, #30]
  4004c0:	4619      	mov	r1, r3
  4004c2:	6a38      	ldr	r0, [r7, #32]
  4004c4:	4b44      	ldr	r3, [pc, #272]	; (4005d8 <main+0x424>)
  4004c6:	4798      	blx	r3
					
					uint16_t init_holdoff_counter = max_range_samples-5;
  4004c8:	8bfb      	ldrh	r3, [r7, #30]
  4004ca:	3b05      	subs	r3, #5
  4004cc:	837b      	strh	r3, [r7, #26]
					//uint16_t init_holdoff_counter = max_range_samples*0.9;
					printf("init_holdoff_counter: %d\n", init_holdoff_counter);
  4004ce:	8b7b      	ldrh	r3, [r7, #26]
  4004d0:	4619      	mov	r1, r3
  4004d2:	4842      	ldr	r0, [pc, #264]	; (4005dc <main+0x428>)
  4004d4:	4b3d      	ldr	r3, [pc, #244]	; (4005cc <main+0x418>)
  4004d6:	4798      	blx	r3
					ch_set_rx_holdoff(dev_ptr, init_holdoff_counter);
  4004d8:	8b7b      	ldrh	r3, [r7, #26]
  4004da:	4619      	mov	r1, r3
  4004dc:	6a38      	ldr	r0, [r7, #32]
  4004de:	4b40      	ldr	r3, [pc, #256]	; (4005e0 <main+0x42c>)
  4004e0:	4798      	blx	r3

					uint16_t holdoff_counter = ch_get_rx_holdoff(dev_ptr);
  4004e2:	6a38      	ldr	r0, [r7, #32]
  4004e4:	4b3f      	ldr	r3, [pc, #252]	; (4005e4 <main+0x430>)
  4004e6:	4798      	blx	r3
  4004e8:	4603      	mov	r3, r0
  4004ea:	833b      	strh	r3, [r7, #24]
					printf("holdoff_counter: %d\n", holdoff_counter);
  4004ec:	8b3b      	ldrh	r3, [r7, #24]
  4004ee:	4619      	mov	r1, r3
  4004f0:	483d      	ldr	r0, [pc, #244]	; (4005e8 <main+0x434>)
  4004f2:	4b36      	ldr	r3, [pc, #216]	; (4005cc <main+0x418>)
  4004f4:	4798      	blx	r3
					
					uint16_t static_range = ch_get_static_range(dev_ptr);
  4004f6:	6a38      	ldr	r0, [r7, #32]
  4004f8:	4b3c      	ldr	r3, [pc, #240]	; (4005ec <main+0x438>)
  4004fa:	4798      	blx	r3
  4004fc:	4603      	mov	r3, r0
  4004fe:	82fb      	strh	r3, [r7, #22]
					printf("static_range: %d\n", static_range);
  400500:	8afb      	ldrh	r3, [r7, #22]
  400502:	4619      	mov	r1, r3
  400504:	483a      	ldr	r0, [pc, #232]	; (4005f0 <main+0x43c>)
  400506:	4b31      	ldr	r3, [pc, #196]	; (4005cc <main+0x418>)
  400508:	4798      	blx	r3
			}

			/* Read back and display config settings */
			if (!chirp_error) {
  40050a:	f897 3037 	ldrb.w	r3, [r7, #55]	; 0x37
  40050e:	2b00      	cmp	r3, #0
  400510:	d103      	bne.n	40051a <main+0x366>
				ultrasound_display_config_info(dev_ptr);
  400512:	6a38      	ldr	r0, [r7, #32]
  400514:	4b37      	ldr	r3, [pc, #220]	; (4005f4 <main+0x440>)
  400516:	4798      	blx	r3
  400518:	e005      	b.n	400526 <main+0x372>
			} else {
				printf("Device %d: Error during ch_set_config()\n", dev_num);
  40051a:	f897 3036 	ldrb.w	r3, [r7, #54]	; 0x36
  40051e:	4619      	mov	r1, r3
  400520:	4835      	ldr	r0, [pc, #212]	; (4005f8 <main+0x444>)
  400522:	4b2a      	ldr	r3, [pc, #168]	; (4005cc <main+0x418>)
  400524:	4798      	blx	r3
			}

			/* Turn on an LED to indicate device connected */
			if (!chirp_error) {
  400526:	f897 3037 	ldrb.w	r3, [r7, #55]	; 0x37
  40052a:	2b00      	cmp	r3, #0
  40052c:	d104      	bne.n	400538 <main+0x384>
				chbsp_led_on(dev_num);
  40052e:	f897 3036 	ldrb.w	r3, [r7, #54]	; 0x36
  400532:	4618      	mov	r0, r3
  400534:	4b31      	ldr	r3, [pc, #196]	; (4005fc <main+0x448>)
  400536:	4798      	blx	r3
	for (dev_num = 0; dev_num < num_ports; dev_num++) {
  400538:	f897 3036 	ldrb.w	r3, [r7, #54]	; 0x36
  40053c:	3301      	adds	r3, #1
  40053e:	f887 3036 	strb.w	r3, [r7, #54]	; 0x36
  400542:	f897 2036 	ldrb.w	r2, [r7, #54]	; 0x36
  400546:	f897 302f 	ldrb.w	r3, [r7, #47]	; 0x2f
  40054a:	429a      	cmp	r2, r3
  40054c:	f4ff aef5 	bcc.w	40033a <main+0x186>
			}			
		}
	}

	printf("\n");
  400550:	482b      	ldr	r0, [pc, #172]	; (400600 <main+0x44c>)
  400552:	4b1e      	ldr	r3, [pc, #120]	; (4005cc <main+0x418>)
  400554:	4798      	blx	r3

	/* Enable receive sensor pre-triggering, if specified */
	ch_set_rx_pretrigger(grp_ptr, RX_PRETRIGGER_ENABLE);
  400556:	2101      	movs	r1, #1
  400558:	6b38      	ldr	r0, [r7, #48]	; 0x30
  40055a:	4b2a      	ldr	r3, [pc, #168]	; (400604 <main+0x450>)
  40055c:	4798      	blx	r3
	 *   expires, after the specified measurement interval.  The function also 
	 *   registers a callback function that will be called from the timer 
	 *   handler when the interrupt occurs.  The callback function will be 
	 *   used to trigger a measurement cycle on the group of sensors.
	 */
	if (num_triggered_devices > 0) {
  40055e:	4b2a      	ldr	r3, [pc, #168]	; (400608 <main+0x454>)
  400560:	781b      	ldrb	r3, [r3, #0]
  400562:	2b00      	cmp	r3, #0
  400564:	d00e      	beq.n	400584 <main+0x3d0>
		printf("Initializing sample timer for %dms interval... ", 
  400566:	2164      	movs	r1, #100	; 0x64
  400568:	4828      	ldr	r0, [pc, #160]	; (40060c <main+0x458>)
  40056a:	4b18      	ldr	r3, [pc, #96]	; (4005cc <main+0x418>)
  40056c:	4798      	blx	r3
				MEASUREMENT_INTERVAL_MS);

		chbsp_periodic_timer_init(MEASUREMENT_INTERVAL_MS, 
  40056e:	4928      	ldr	r1, [pc, #160]	; (400610 <main+0x45c>)
  400570:	2064      	movs	r0, #100	; 0x64
  400572:	4b28      	ldr	r3, [pc, #160]	; (400614 <main+0x460>)
  400574:	4798      	blx	r3
							      periodic_timer_callback);

		/* Enable interrupt and start timer to trigger sensor sampling */
		chbsp_periodic_timer_irq_enable();
  400576:	4b28      	ldr	r3, [pc, #160]	; (400618 <main+0x464>)
  400578:	4798      	blx	r3
		chbsp_periodic_timer_start();
  40057a:	4b28      	ldr	r3, [pc, #160]	; (40061c <main+0x468>)
  40057c:	4798      	blx	r3

		printf("OK\n");
  40057e:	4828      	ldr	r0, [pc, #160]	; (400620 <main+0x46c>)
  400580:	4b12      	ldr	r3, [pc, #72]	; (4005cc <main+0x418>)
  400582:	4798      	blx	r3
	}

	printf("Starting measurements\n");
  400584:	4827      	ldr	r0, [pc, #156]	; (400624 <main+0x470>)
  400586:	4b11      	ldr	r3, [pc, #68]	; (4005cc <main+0x418>)
  400588:	4798      	blx	r3
		/*
		 * Put processor in light sleep mode if there are no pending tasks, but 
		 * never turn off the main clock, so that interrupts can still wake 
		 * the processor.
		 */
		if (taskflags==0) {
  40058a:	4b27      	ldr	r3, [pc, #156]	; (400628 <main+0x474>)
  40058c:	681b      	ldr	r3, [r3, #0]
  40058e:	2b00      	cmp	r3, #0
  400590:	d101      	bne.n	400596 <main+0x3e2>
			chbsp_proc_sleep();			// put processor in low-power sleep mode
  400592:	4b26      	ldr	r3, [pc, #152]	; (40062c <main+0x478>)
  400594:	4798      	blx	r3

			/* We only continue here after an interrupt wakes the processor */
		}

		/* Check for sensor data-ready interrupt(s) */
		if (taskflags & DATA_READY_FLAG) {
  400596:	4b24      	ldr	r3, [pc, #144]	; (400628 <main+0x474>)
  400598:	681b      	ldr	r3, [r3, #0]
  40059a:	f003 0301 	and.w	r3, r3, #1
  40059e:	2b00      	cmp	r3, #0
  4005a0:	d0f3      	beq.n	40058a <main+0x3d6>

			/* All sensors have interrupted - handle sensor data */
			taskflags &= ~DATA_READY_FLAG;		// clear flag
  4005a2:	4b21      	ldr	r3, [pc, #132]	; (400628 <main+0x474>)
  4005a4:	681b      	ldr	r3, [r3, #0]
  4005a6:	f023 0301 	bic.w	r3, r3, #1
  4005aa:	4a1f      	ldr	r2, [pc, #124]	; (400628 <main+0x474>)
  4005ac:	6013      	str	r3, [r2, #0]
			handle_data_ready(grp_ptr);			// read and display measurement
  4005ae:	6b38      	ldr	r0, [r7, #48]	; 0x30
  4005b0:	4b1f      	ldr	r3, [pc, #124]	; (400630 <main+0x47c>)
  4005b2:	4798      	blx	r3
		if (taskflags==0) {
  4005b4:	e7e9      	b.n	40058a <main+0x3d6>
  4005b6:	bf00      	nop
  4005b8:	00405831 	.word	0x00405831
  4005bc:	00402075 	.word	0x00402075
  4005c0:	00402425 	.word	0x00402425
  4005c4:	00405d15 	.word	0x00405d15
  4005c8:	0040c548 	.word	0x0040c548
  4005cc:	004097cd 	.word	0x004097cd
  4005d0:	00405b81 	.word	0x00405b81
  4005d4:	0040c560 	.word	0x0040c560
  4005d8:	00405bb1 	.word	0x00405bb1
  4005dc:	0040c578 	.word	0x0040c578
  4005e0:	00405edd 	.word	0x00405edd
  4005e4:	00405f15 	.word	0x00405f15
  4005e8:	0040c594 	.word	0x0040c594
  4005ec:	00405b99 	.word	0x00405b99
  4005f0:	0040c5ac 	.word	0x0040c5ac
  4005f4:	00400865 	.word	0x00400865
  4005f8:	0040c5c0 	.word	0x0040c5c0
  4005fc:	00402eb1 	.word	0x00402eb1
  400600:	0040c4a0 	.word	0x0040c4a0
  400604:	00405f71 	.word	0x00405f71
  400608:	20000371 	.word	0x20000371
  40060c:	0040c5ec 	.word	0x0040c5ec
  400610:	00400635 	.word	0x00400635
  400614:	00402ba5 	.word	0x00402ba5
  400618:	00402ded 	.word	0x00402ded
  40061c:	00402e15 	.word	0x00402e15
  400620:	0040c4d4 	.word	0x0040c4d4
  400624:	0040c61c 	.word	0x0040c61c
  400628:	20000364 	.word	0x20000364
  40062c:	00402e9d 	.word	0x00402e9d
  400630:	00400711 	.word	0x00400711

00400634 <periodic_timer_callback>:
 *
 * This function is registered by the call to chbsp_periodic_timer_init() 
 * in main().
 */

void periodic_timer_callback(void) {
  400634:	b580      	push	{r7, lr}
  400636:	af00      	add	r7, sp, #0

	if (num_triggered_devices > 0) {
  400638:	4b04      	ldr	r3, [pc, #16]	; (40064c <periodic_timer_callback+0x18>)
  40063a:	781b      	ldrb	r3, [r3, #0]
  40063c:	2b00      	cmp	r3, #0
  40063e:	d002      	beq.n	400646 <periodic_timer_callback+0x12>
		ch_group_trigger(&chirp_group);
  400640:	4803      	ldr	r0, [pc, #12]	; (400650 <periodic_timer_callback+0x1c>)
  400642:	4b04      	ldr	r3, [pc, #16]	; (400654 <periodic_timer_callback+0x20>)
  400644:	4798      	blx	r3
	}
}
  400646:	bf00      	nop
  400648:	bd80      	pop	{r7, pc}
  40064a:	bf00      	nop
  40064c:	20000371 	.word	0x20000371
  400650:	2000043c 	.word	0x2000043c
  400654:	0040596d 	.word	0x0040596d

00400658 <sensor_int_callback>:
 * DATA_READY_FLAG is set.  That flag will be detected in the main() loop.
 *
 * This callback function is registered by the call to ch_io_int_callback_set() 
 * in main().
 */
static void sensor_int_callback(ch_group_t *grp_ptr, uint8_t dev_num) {
  400658:	b580      	push	{r7, lr}
  40065a:	b084      	sub	sp, #16
  40065c:	af00      	add	r7, sp, #0
  40065e:	6078      	str	r0, [r7, #4]
  400660:	460b      	mov	r3, r1
  400662:	70fb      	strb	r3, [r7, #3]
	ch_dev_t *dev_ptr = ch_get_dev_ptr(grp_ptr, dev_num);
  400664:	78fb      	ldrb	r3, [r7, #3]
  400666:	4619      	mov	r1, r3
  400668:	6878      	ldr	r0, [r7, #4]
  40066a:	4b18      	ldr	r3, [pc, #96]	; (4006cc <sensor_int_callback+0x74>)
  40066c:	4798      	blx	r3
  40066e:	60f8      	str	r0, [r7, #12]

	data_ready_devices |= (1 << dev_num);		// add to data-ready bit mask
  400670:	78fb      	ldrb	r3, [r7, #3]
  400672:	2201      	movs	r2, #1
  400674:	fa02 f303 	lsl.w	r3, r2, r3
  400678:	461a      	mov	r2, r3
  40067a:	4b15      	ldr	r3, [pc, #84]	; (4006d0 <sensor_int_callback+0x78>)
  40067c:	681b      	ldr	r3, [r3, #0]
  40067e:	4313      	orrs	r3, r2
  400680:	4a13      	ldr	r2, [pc, #76]	; (4006d0 <sensor_int_callback+0x78>)
  400682:	6013      	str	r3, [r2, #0]

	if (data_ready_devices == active_devices) {
  400684:	4b12      	ldr	r3, [pc, #72]	; (4006d0 <sensor_int_callback+0x78>)
  400686:	681a      	ldr	r2, [r3, #0]
  400688:	4b12      	ldr	r3, [pc, #72]	; (4006d4 <sensor_int_callback+0x7c>)
  40068a:	681b      	ldr	r3, [r3, #0]
  40068c:	429a      	cmp	r2, r3
  40068e:	d118      	bne.n	4006c2 <sensor_int_callback+0x6a>
		/* All active sensors have interrupted after performing a measurement */
		data_ready_devices = 0;
  400690:	4b0f      	ldr	r3, [pc, #60]	; (4006d0 <sensor_int_callback+0x78>)
  400692:	2200      	movs	r2, #0
  400694:	601a      	str	r2, [r3, #0]

		/* Set data-ready flag - it will be checked in main() loop */
		taskflags |= DATA_READY_FLAG;
  400696:	4b10      	ldr	r3, [pc, #64]	; (4006d8 <sensor_int_callback+0x80>)
  400698:	681b      	ldr	r3, [r3, #0]
  40069a:	f043 0301 	orr.w	r3, r3, #1
  40069e:	4a0e      	ldr	r2, [pc, #56]	; (4006d8 <sensor_int_callback+0x80>)
  4006a0:	6013      	str	r3, [r2, #0]

		/* Disable interrupt unless in free-running mode
		 *   It will automatically be re-enabled by the next ch_group_trigger() 
		 */
		if (ch_get_mode(dev_ptr) == CH_MODE_FREERUN) {
  4006a2:	68f8      	ldr	r0, [r7, #12]
  4006a4:	4b0d      	ldr	r3, [pc, #52]	; (4006dc <sensor_int_callback+0x84>)
  4006a6:	4798      	blx	r3
  4006a8:	4603      	mov	r3, r0
  4006aa:	2b02      	cmp	r3, #2
  4006ac:	d106      	bne.n	4006bc <sensor_int_callback+0x64>
			chbsp_set_io_dir_in(dev_ptr);				// set INT line as input
  4006ae:	68f8      	ldr	r0, [r7, #12]
  4006b0:	4b0b      	ldr	r3, [pc, #44]	; (4006e0 <sensor_int_callback+0x88>)
  4006b2:	4798      	blx	r3
			chbsp_group_io_interrupt_enable(grp_ptr);
  4006b4:	6878      	ldr	r0, [r7, #4]
  4006b6:	4b0b      	ldr	r3, [pc, #44]	; (4006e4 <sensor_int_callback+0x8c>)
  4006b8:	4798      	blx	r3
		} else {
			chbsp_group_io_interrupt_disable(grp_ptr);
		}
	}
}
  4006ba:	e002      	b.n	4006c2 <sensor_int_callback+0x6a>
			chbsp_group_io_interrupt_disable(grp_ptr);
  4006bc:	6878      	ldr	r0, [r7, #4]
  4006be:	4b0a      	ldr	r3, [pc, #40]	; (4006e8 <sensor_int_callback+0x90>)
  4006c0:	4798      	blx	r3
}
  4006c2:	bf00      	nop
  4006c4:	3710      	adds	r7, #16
  4006c6:	46bd      	mov	sp, r7
  4006c8:	bd80      	pop	{r7, pc}
  4006ca:	bf00      	nop
  4006cc:	004059d3 	.word	0x004059d3
  4006d0:	2000036c 	.word	0x2000036c
  4006d4:	20000368 	.word	0x20000368
  4006d8:	20000364 	.word	0x20000364
  4006dc:	00405a57 	.word	0x00405a57
  4006e0:	00402075 	.word	0x00402075
  4006e4:	004023d9 	.word	0x004023d9
  4006e8:	00402485 	.word	0x00402485

004006ec <io_complete_callback>:
 * ch_io_complete_callback_set() in main().
 *
 *  Note: This callback is only used if READ_IQ_NONBLOCKING is defined to 
 *  select non-blocking I/Q readout in this application.
 */
static void io_complete_callback(ch_group_t __attribute__((unused)) *grp_ptr) {
  4006ec:	b480      	push	{r7}
  4006ee:	b083      	sub	sp, #12
  4006f0:	af00      	add	r7, sp, #0
  4006f2:	6078      	str	r0, [r7, #4]

	taskflags |= IQ_READY_FLAG;
  4006f4:	4b05      	ldr	r3, [pc, #20]	; (40070c <io_complete_callback+0x20>)
  4006f6:	681b      	ldr	r3, [r3, #0]
  4006f8:	f043 0302 	orr.w	r3, r3, #2
  4006fc:	4a03      	ldr	r2, [pc, #12]	; (40070c <io_complete_callback+0x20>)
  4006fe:	6013      	str	r3, [r2, #0]
}
  400700:	bf00      	nop
  400702:	370c      	adds	r7, #12
  400704:	46bd      	mov	sp, r7
  400706:	f85d 7b04 	ldr.w	r7, [sp], #4
  40070a:	4770      	bx	lr
  40070c:	20000364 	.word	0x20000364

00400710 <handle_data_ready>:
 *
 * See the comments in app_config.h for information about the amplitude data
 * and I/Q readout build options.
 *
 */
static uint8_t handle_data_ready(ch_group_t *grp_ptr) {
  400710:	b590      	push	{r4, r7, lr}
  400712:	b089      	sub	sp, #36	; 0x24
  400714:	af02      	add	r7, sp, #8
  400716:	6078      	str	r0, [r7, #4]
	uint8_t 	dev_num;
	int 		num_samples = 0;
  400718:	2300      	movs	r3, #0
  40071a:	613b      	str	r3, [r7, #16]
	uint8_t 	ret_val = 0;
  40071c:	2300      	movs	r3, #0
  40071e:	73fb      	strb	r3, [r7, #15]
	 *   This loop will write the sensor data to this application's "chirp_data"
	 *   array.  Each sensor has a separate chirp_data_t structure in that 
	 *   array, so the device number is used as an index.
	 */

	for (dev_num = 0; dev_num < ch_get_num_ports(grp_ptr); dev_num++) {
  400720:	2300      	movs	r3, #0
  400722:	75fb      	strb	r3, [r7, #23]
  400724:	e071      	b.n	40080a <handle_data_ready+0xfa>
		ch_dev_t *dev_ptr = ch_get_dev_ptr(grp_ptr, dev_num);
  400726:	7dfb      	ldrb	r3, [r7, #23]
  400728:	4619      	mov	r1, r3
  40072a:	6878      	ldr	r0, [r7, #4]
  40072c:	4b3f      	ldr	r3, [pc, #252]	; (40082c <handle_data_ready+0x11c>)
  40072e:	4798      	blx	r3
  400730:	60b8      	str	r0, [r7, #8]

		if (ch_sensor_is_connected(dev_ptr)) {
  400732:	68b8      	ldr	r0, [r7, #8]
  400734:	4b3e      	ldr	r3, [pc, #248]	; (400830 <handle_data_ready+0x120>)
  400736:	4798      	blx	r3
  400738:	4603      	mov	r3, r0
  40073a:	2b00      	cmp	r3, #0
  40073c:	d062      	beq.n	400804 <handle_data_ready+0xf4>
			 *   For sensor in transmit/receive mode, report one-way echo 
			 *   distance,  For sensor(s) in receive-only mode, report direct 
			 *   one-way distance from transmitting sensor 
			 */
			
			if (ch_get_mode(dev_ptr) == CH_MODE_TRIGGERED_RX_ONLY) {
  40073e:	68b8      	ldr	r0, [r7, #8]
  400740:	4b3c      	ldr	r3, [pc, #240]	; (400834 <handle_data_ready+0x124>)
  400742:	4798      	blx	r3
  400744:	4603      	mov	r3, r0
  400746:	2b20      	cmp	r3, #32
  400748:	d109      	bne.n	40075e <handle_data_ready+0x4e>
				chirp_data[dev_num].range = ch_get_range(dev_ptr, 
  40074a:	7dfc      	ldrb	r4, [r7, #23]
  40074c:	2102      	movs	r1, #2
  40074e:	68b8      	ldr	r0, [r7, #8]
  400750:	4b39      	ldr	r3, [pc, #228]	; (400838 <handle_data_ready+0x128>)
  400752:	4798      	blx	r3
  400754:	4602      	mov	r2, r0
  400756:	4b39      	ldr	r3, [pc, #228]	; (40083c <handle_data_ready+0x12c>)
  400758:	f843 2034 	str.w	r2, [r3, r4, lsl #3]
  40075c:	e008      	b.n	400770 <handle_data_ready+0x60>
														CH_RANGE_DIRECT);
			} else {
				chirp_data[dev_num].range = ch_get_range(dev_ptr, 
  40075e:	7dfc      	ldrb	r4, [r7, #23]
  400760:	2100      	movs	r1, #0
  400762:	68b8      	ldr	r0, [r7, #8]
  400764:	4b34      	ldr	r3, [pc, #208]	; (400838 <handle_data_ready+0x128>)
  400766:	4798      	blx	r3
  400768:	4602      	mov	r2, r0
  40076a:	4b34      	ldr	r3, [pc, #208]	; (40083c <handle_data_ready+0x12c>)
  40076c:	f843 2034 	str.w	r2, [r3, r4, lsl #3]
														CH_RANGE_ECHO_ONE_WAY);
			}

			if (chirp_data[dev_num].range == CH_NO_TARGET) {
  400770:	7dfb      	ldrb	r3, [r7, #23]
  400772:	4a32      	ldr	r2, [pc, #200]	; (40083c <handle_data_ready+0x12c>)
  400774:	f852 3033 	ldr.w	r3, [r2, r3, lsl #3]
  400778:	f1b3 3fff 	cmp.w	r3, #4294967295
  40077c:	d106      	bne.n	40078c <handle_data_ready+0x7c>
				/* No target object was detected - no range value */

				chirp_data[dev_num].amplitude = 0;  /* no updated amplitude */
  40077e:	7dfb      	ldrb	r3, [r7, #23]
  400780:	4a2e      	ldr	r2, [pc, #184]	; (40083c <handle_data_ready+0x12c>)
  400782:	00db      	lsls	r3, r3, #3
  400784:	4413      	add	r3, r2
  400786:	2200      	movs	r2, #0
  400788:	809a      	strh	r2, [r3, #4]
  40078a:	e027      	b.n	4007dc <handle_data_ready+0xcc>
			} else {
				/* Target object was successfully detected (range available) */

				 /* Get the new amplitude value - it's only updated if range 
				  * was successfully measured.  */
				chirp_data[dev_num].amplitude = ch_get_amplitude(dev_ptr);
  40078c:	7dfc      	ldrb	r4, [r7, #23]
  40078e:	68b8      	ldr	r0, [r7, #8]
  400790:	4b2b      	ldr	r3, [pc, #172]	; (400840 <handle_data_ready+0x130>)
  400792:	4798      	blx	r3
  400794:	4603      	mov	r3, r0
  400796:	4619      	mov	r1, r3
  400798:	4a28      	ldr	r2, [pc, #160]	; (40083c <handle_data_ready+0x12c>)
  40079a:	00e3      	lsls	r3, r4, #3
  40079c:	4413      	add	r3, r2
  40079e:	460a      	mov	r2, r1
  4007a0:	809a      	strh	r2, [r3, #4]

				printf("Port %d:  Range: %0.1f mm  Amp: %u", dev_num, 
  4007a2:	7dfc      	ldrb	r4, [r7, #23]
						(float) chirp_data[dev_num].range/32.0f,
  4007a4:	7dfb      	ldrb	r3, [r7, #23]
  4007a6:	4a25      	ldr	r2, [pc, #148]	; (40083c <handle_data_ready+0x12c>)
  4007a8:	f852 3033 	ldr.w	r3, [r2, r3, lsl #3]
  4007ac:	ee07 3a90 	vmov	s15, r3
  4007b0:	eef8 7a67 	vcvt.f32.u32	s15, s15
  4007b4:	ed9f 7a23 	vldr	s14, [pc, #140]	; 400844 <handle_data_ready+0x134>
  4007b8:	eec7 6a87 	vdiv.f32	s13, s15, s14
				printf("Port %d:  Range: %0.1f mm  Amp: %u", dev_num, 
  4007bc:	4b22      	ldr	r3, [pc, #136]	; (400848 <handle_data_ready+0x138>)
  4007be:	ee16 0a90 	vmov	r0, s13
  4007c2:	4798      	blx	r3
					   	chirp_data[dev_num].amplitude);
  4007c4:	7dfb      	ldrb	r3, [r7, #23]
  4007c6:	4a1d      	ldr	r2, [pc, #116]	; (40083c <handle_data_ready+0x12c>)
  4007c8:	00db      	lsls	r3, r3, #3
  4007ca:	4413      	add	r3, r2
  4007cc:	889b      	ldrh	r3, [r3, #4]
				printf("Port %d:  Range: %0.1f mm  Amp: %u", dev_num, 
  4007ce:	9300      	str	r3, [sp, #0]
  4007d0:	4602      	mov	r2, r0
  4007d2:	460b      	mov	r3, r1
  4007d4:	4621      	mov	r1, r4
  4007d6:	481d      	ldr	r0, [pc, #116]	; (40084c <handle_data_ready+0x13c>)
  4007d8:	4c1d      	ldr	r4, [pc, #116]	; (400850 <handle_data_ready+0x140>)
  4007da:	47a0      	blx	r4
			}

			/* Store number of active samples in this measurement */
			num_samples = ch_get_num_samples(dev_ptr);
  4007dc:	68b8      	ldr	r0, [r7, #8]
  4007de:	4b1d      	ldr	r3, [pc, #116]	; (400854 <handle_data_ready+0x144>)
  4007e0:	4798      	blx	r3
  4007e2:	4603      	mov	r3, r0
  4007e4:	613b      	str	r3, [r7, #16]
			chirp_data[dev_num].num_samples = num_samples;
  4007e6:	7dfb      	ldrb	r3, [r7, #23]
  4007e8:	693a      	ldr	r2, [r7, #16]
  4007ea:	b291      	uxth	r1, r2
  4007ec:	4a13      	ldr	r2, [pc, #76]	; (40083c <handle_data_ready+0x12c>)
  4007ee:	00db      	lsls	r3, r3, #3
  4007f0:	4413      	add	r3, r2
  4007f2:	460a      	mov	r2, r1
  4007f4:	80da      	strh	r2, [r3, #6]
			/* Optionally read raw I/Q values for all samples */
#ifdef READ_IQ_DATA
			display_iq_data(dev_ptr);
#endif
			/* If more than 2 sensors, put each on its own line */
			if (num_connected_sensors > 2) {
  4007f6:	4b18      	ldr	r3, [pc, #96]	; (400858 <handle_data_ready+0x148>)
  4007f8:	781b      	ldrb	r3, [r3, #0]
  4007fa:	2b02      	cmp	r3, #2
  4007fc:	d902      	bls.n	400804 <handle_data_ready+0xf4>
				printf("\n");
  4007fe:	4817      	ldr	r0, [pc, #92]	; (40085c <handle_data_ready+0x14c>)
  400800:	4b13      	ldr	r3, [pc, #76]	; (400850 <handle_data_ready+0x140>)
  400802:	4798      	blx	r3
	for (dev_num = 0; dev_num < ch_get_num_ports(grp_ptr); dev_num++) {
  400804:	7dfb      	ldrb	r3, [r7, #23]
  400806:	3301      	adds	r3, #1
  400808:	75fb      	strb	r3, [r7, #23]
  40080a:	6878      	ldr	r0, [r7, #4]
  40080c:	4b14      	ldr	r3, [pc, #80]	; (400860 <handle_data_ready+0x150>)
  40080e:	4798      	blx	r3
  400810:	4603      	mov	r3, r0
  400812:	461a      	mov	r2, r3
  400814:	7dfb      	ldrb	r3, [r7, #23]
  400816:	4293      	cmp	r3, r2
  400818:	d385      	bcc.n	400726 <handle_data_ready+0x16>
			}
		}
	}
	printf("\n");
  40081a:	4810      	ldr	r0, [pc, #64]	; (40085c <handle_data_ready+0x14c>)
  40081c:	4b0c      	ldr	r3, [pc, #48]	; (400850 <handle_data_ready+0x140>)
  40081e:	4798      	blx	r3
	
	return ret_val;
  400820:	7bfb      	ldrb	r3, [r7, #15]
}
  400822:	4618      	mov	r0, r3
  400824:	371c      	adds	r7, #28
  400826:	46bd      	mov	sp, r7
  400828:	bd90      	pop	{r4, r7, pc}
  40082a:	bf00      	nop
  40082c:	004059d3 	.word	0x004059d3
  400830:	00405989 	.word	0x00405989
  400834:	00405a57 	.word	0x00405a57
  400838:	00405be7 	.word	0x00405be7
  40083c:	200004f0 	.word	0x200004f0
  400840:	00405c19 	.word	0x00405c19
  400844:	42000000 	.word	0x42000000
  400848:	0040ba55 	.word	0x0040ba55
  40084c:	0040c634 	.word	0x0040c634
  400850:	004097cd 	.word	0x004097cd
  400854:	00405ae7 	.word	0x00405ae7
  400858:	20000370 	.word	0x20000370
  40085c:	0040c4a0 	.word	0x0040c4a0
  400860:	00405a27 	.word	0x00405a27

00400864 <ultrasound_display_config_info>:
 * ________________________________________________________________________________________________________
 */
#include "ultrasound_display_config_info.h"

uint8_t ultrasound_display_config_info(ch_dev_t *dev_ptr)
{
  400864:	b590      	push	{r4, r7, lr}
  400866:	b091      	sub	sp, #68	; 0x44
  400868:	af00      	add	r7, sp, #0
  40086a:	6078      	str	r0, [r7, #4]
	ch_config_t 	read_config;
	uint8_t 		chirp_error;
	uint8_t 		dev_num = ch_get_dev_num(dev_ptr);
  40086c:	6878      	ldr	r0, [r7, #4]
  40086e:	4b5e      	ldr	r3, [pc, #376]	; (4009e8 <ultrasound_display_config_info+0x184>)
  400870:	4798      	blx	r3
  400872:	4603      	mov	r3, r0
  400874:	f887 3033 	strb.w	r3, [r7, #51]	; 0x33

	/* Read configuration values for the device into ch_config_t structure */
	chirp_error = ch_get_config(dev_ptr, &read_config);
  400878:	f107 0320 	add.w	r3, r7, #32
  40087c:	4619      	mov	r1, r3
  40087e:	6878      	ldr	r0, [r7, #4]
  400880:	4b5a      	ldr	r3, [pc, #360]	; (4009ec <ultrasound_display_config_info+0x188>)
  400882:	4798      	blx	r3
  400884:	4603      	mov	r3, r0
  400886:	f887 303f 	strb.w	r3, [r7, #63]	; 0x3f

	if (!chirp_error) {
  40088a:	f897 303f 	ldrb.w	r3, [r7, #63]	; 0x3f
  40088e:	2b00      	cmp	r3, #0
  400890:	f040 809e 	bne.w	4009d0 <ultrasound_display_config_info+0x16c>
		const char *mode_string;

		switch (read_config.mode) {
  400894:	f897 3020 	ldrb.w	r3, [r7, #32]
  400898:	2b20      	cmp	r3, #32
  40089a:	d851      	bhi.n	400940 <ultrasound_display_config_info+0xdc>
  40089c:	a201      	add	r2, pc, #4	; (adr r2, 4008a4 <ultrasound_display_config_info+0x40>)
  40089e:	f852 f023 	ldr.w	pc, [r2, r3, lsl #2]
  4008a2:	bf00      	nop
  4008a4:	00400929 	.word	0x00400929
  4008a8:	00400941 	.word	0x00400941
  4008ac:	0040092f 	.word	0x0040092f
  4008b0:	00400941 	.word	0x00400941
  4008b4:	00400941 	.word	0x00400941
  4008b8:	00400941 	.word	0x00400941
  4008bc:	00400941 	.word	0x00400941
  4008c0:	00400941 	.word	0x00400941
  4008c4:	00400941 	.word	0x00400941
  4008c8:	00400941 	.word	0x00400941
  4008cc:	00400941 	.word	0x00400941
  4008d0:	00400941 	.word	0x00400941
  4008d4:	00400941 	.word	0x00400941
  4008d8:	00400941 	.word	0x00400941
  4008dc:	00400941 	.word	0x00400941
  4008e0:	00400941 	.word	0x00400941
  4008e4:	00400935 	.word	0x00400935
  4008e8:	00400941 	.word	0x00400941
  4008ec:	00400941 	.word	0x00400941
  4008f0:	00400941 	.word	0x00400941
  4008f4:	00400941 	.word	0x00400941
  4008f8:	00400941 	.word	0x00400941
  4008fc:	00400941 	.word	0x00400941
  400900:	00400941 	.word	0x00400941
  400904:	00400941 	.word	0x00400941
  400908:	00400941 	.word	0x00400941
  40090c:	00400941 	.word	0x00400941
  400910:	00400941 	.word	0x00400941
  400914:	00400941 	.word	0x00400941
  400918:	00400941 	.word	0x00400941
  40091c:	00400941 	.word	0x00400941
  400920:	00400941 	.word	0x00400941
  400924:	0040093b 	.word	0x0040093b
			case CH_MODE_IDLE:
				mode_string = "IDLE";
  400928:	4b31      	ldr	r3, [pc, #196]	; (4009f0 <ultrasound_display_config_info+0x18c>)
  40092a:	63bb      	str	r3, [r7, #56]	; 0x38
				break;
  40092c:	e00a      	b.n	400944 <ultrasound_display_config_info+0xe0>
			case CH_MODE_FREERUN:
				mode_string = "FREERUN";
  40092e:	4b31      	ldr	r3, [pc, #196]	; (4009f4 <ultrasound_display_config_info+0x190>)
  400930:	63bb      	str	r3, [r7, #56]	; 0x38
				break;
  400932:	e007      	b.n	400944 <ultrasound_display_config_info+0xe0>
			case CH_MODE_TRIGGERED_TX_RX:
				mode_string = "TRIGGERED_TX_RX";
  400934:	4b30      	ldr	r3, [pc, #192]	; (4009f8 <ultrasound_display_config_info+0x194>)
  400936:	63bb      	str	r3, [r7, #56]	; 0x38
				break;
  400938:	e004      	b.n	400944 <ultrasound_display_config_info+0xe0>
			case CH_MODE_TRIGGERED_RX_ONLY:
				mode_string = "TRIGGERED_RX_ONLY";
  40093a:	4b30      	ldr	r3, [pc, #192]	; (4009fc <ultrasound_display_config_info+0x198>)
  40093c:	63bb      	str	r3, [r7, #56]	; 0x38
				break;
  40093e:	e001      	b.n	400944 <ultrasound_display_config_info+0xe0>
			default:
				mode_string = "UNKNOWN";
  400940:	4b2f      	ldr	r3, [pc, #188]	; (400a00 <ultrasound_display_config_info+0x19c>)
  400942:	63bb      	str	r3, [r7, #56]	; 0x38
		}

		/* Display sensor number, mode and max range */
		printf("Sensor %d:\tmax_range=%dmm \tmode=%s  ", dev_num,
  400944:	f897 1033 	ldrb.w	r1, [r7, #51]	; 0x33
				read_config.max_range, mode_string);
  400948:	8c7b      	ldrh	r3, [r7, #34]	; 0x22
		printf("Sensor %d:\tmax_range=%dmm \tmode=%s  ", dev_num,
  40094a:	461a      	mov	r2, r3
  40094c:	6bbb      	ldr	r3, [r7, #56]	; 0x38
  40094e:	482d      	ldr	r0, [pc, #180]	; (400a04 <ultrasound_display_config_info+0x1a0>)
  400950:	4c2d      	ldr	r4, [pc, #180]	; (400a08 <ultrasound_display_config_info+0x1a4>)
  400952:	47a0      	blx	r4

		/* Display static target rejection range, if used */
		if (read_config.static_range != 0) {
  400954:	8cbb      	ldrh	r3, [r7, #36]	; 0x24
  400956:	2b00      	cmp	r3, #0
  400958:	d004      	beq.n	400964 <ultrasound_display_config_info+0x100>
			printf("static_range=%d samples", read_config.static_range);
  40095a:	8cbb      	ldrh	r3, [r7, #36]	; 0x24
  40095c:	4619      	mov	r1, r3
  40095e:	482b      	ldr	r0, [pc, #172]	; (400a0c <ultrasound_display_config_info+0x1a8>)
  400960:	4b29      	ldr	r3, [pc, #164]	; (400a08 <ultrasound_display_config_info+0x1a4>)
  400962:	4798      	blx	r3
		}

		/* Display detection thresholds (only supported on CH201) */
		if (ch_get_part_number(dev_ptr) == CH201_PART_NUMBER) {
  400964:	6878      	ldr	r0, [r7, #4]
  400966:	4b2a      	ldr	r3, [pc, #168]	; (400a10 <ultrasound_display_config_info+0x1ac>)
  400968:	4798      	blx	r3
  40096a:	4603      	mov	r3, r0
  40096c:	2bc9      	cmp	r3, #201	; 0xc9
  40096e:	d12b      	bne.n	4009c8 <ultrasound_display_config_info+0x164>
			ch_thresholds_t read_thresholds;

			/* Get threshold values in structure */
			chirp_error = ch_get_thresholds(dev_ptr, &read_thresholds);
  400970:	f107 0308 	add.w	r3, r7, #8
  400974:	4619      	mov	r1, r3
  400976:	6878      	ldr	r0, [r7, #4]
  400978:	4b26      	ldr	r3, [pc, #152]	; (400a14 <ultrasound_display_config_info+0x1b0>)
  40097a:	4798      	blx	r3
  40097c:	4603      	mov	r3, r0
  40097e:	f887 303f 	strb.w	r3, [r7, #63]	; 0x3f

			if (!chirp_error) {
  400982:	f897 303f 	ldrb.w	r3, [r7, #63]	; 0x3f
  400986:	2b00      	cmp	r3, #0
  400988:	d11e      	bne.n	4009c8 <ultrasound_display_config_info+0x164>
				printf("\n  Detection thresholds:\n");
  40098a:	4823      	ldr	r0, [pc, #140]	; (400a18 <ultrasound_display_config_info+0x1b4>)
  40098c:	4b1e      	ldr	r3, [pc, #120]	; (400a08 <ultrasound_display_config_info+0x1a4>)
  40098e:	4798      	blx	r3
				for (int i = 0; i < CH_NUM_THRESHOLDS; i++) {
  400990:	2300      	movs	r3, #0
  400992:	637b      	str	r3, [r7, #52]	; 0x34
  400994:	e015      	b.n	4009c2 <ultrasound_display_config_info+0x15e>
					printf("     %d\tstart: %2d\tlevel: %d\n", i,
							read_thresholds.threshold[i].start_sample,
  400996:	6b7b      	ldr	r3, [r7, #52]	; 0x34
  400998:	009b      	lsls	r3, r3, #2
  40099a:	f107 0240 	add.w	r2, r7, #64	; 0x40
  40099e:	4413      	add	r3, r2
  4009a0:	f833 3c38 	ldrh.w	r3, [r3, #-56]
					printf("     %d\tstart: %2d\tlevel: %d\n", i,
  4009a4:	461a      	mov	r2, r3
							read_thresholds.threshold[i].level);
  4009a6:	6b7b      	ldr	r3, [r7, #52]	; 0x34
  4009a8:	009b      	lsls	r3, r3, #2
  4009aa:	f107 0140 	add.w	r1, r7, #64	; 0x40
  4009ae:	440b      	add	r3, r1
  4009b0:	f833 3c36 	ldrh.w	r3, [r3, #-54]
					printf("     %d\tstart: %2d\tlevel: %d\n", i,
  4009b4:	6b79      	ldr	r1, [r7, #52]	; 0x34
  4009b6:	4819      	ldr	r0, [pc, #100]	; (400a1c <ultrasound_display_config_info+0x1b8>)
  4009b8:	4c13      	ldr	r4, [pc, #76]	; (400a08 <ultrasound_display_config_info+0x1a4>)
  4009ba:	47a0      	blx	r4
				for (int i = 0; i < CH_NUM_THRESHOLDS; i++) {
  4009bc:	6b7b      	ldr	r3, [r7, #52]	; 0x34
  4009be:	3301      	adds	r3, #1
  4009c0:	637b      	str	r3, [r7, #52]	; 0x34
  4009c2:	6b7b      	ldr	r3, [r7, #52]	; 0x34
  4009c4:	2b05      	cmp	r3, #5
  4009c6:	dde6      	ble.n	400996 <ultrasound_display_config_info+0x132>
				}
			}
		}
		printf("\n");
  4009c8:	4815      	ldr	r0, [pc, #84]	; (400a20 <ultrasound_display_config_info+0x1bc>)
  4009ca:	4b0f      	ldr	r3, [pc, #60]	; (400a08 <ultrasound_display_config_info+0x1a4>)
  4009cc:	4798      	blx	r3
  4009ce:	e005      	b.n	4009dc <ultrasound_display_config_info+0x178>

	} else {
		printf(" Device %d: Error during ch_get_config()\n", dev_num);
  4009d0:	f897 3033 	ldrb.w	r3, [r7, #51]	; 0x33
  4009d4:	4619      	mov	r1, r3
  4009d6:	4813      	ldr	r0, [pc, #76]	; (400a24 <ultrasound_display_config_info+0x1c0>)
  4009d8:	4b0b      	ldr	r3, [pc, #44]	; (400a08 <ultrasound_display_config_info+0x1a4>)
  4009da:	4798      	blx	r3
	}

	return chirp_error;
  4009dc:	f897 303f 	ldrb.w	r3, [r7, #63]	; 0x3f
  4009e0:	4618      	mov	r0, r3
  4009e2:	3744      	adds	r7, #68	; 0x44
  4009e4:	46bd      	mov	sp, r7
  4009e6:	bd90      	pop	{r4, r7, pc}
  4009e8:	004059b9 	.word	0x004059b9
  4009ec:	004057ed 	.word	0x004057ed
  4009f0:	0040c658 	.word	0x0040c658
  4009f4:	0040c660 	.word	0x0040c660
  4009f8:	0040c668 	.word	0x0040c668
  4009fc:	0040c678 	.word	0x0040c678
  400a00:	0040c68c 	.word	0x0040c68c
  400a04:	0040c694 	.word	0x0040c694
  400a08:	004097cd 	.word	0x004097cd
  400a0c:	0040c6bc 	.word	0x0040c6bc
  400a10:	004059a1 	.word	0x004059a1
  400a14:	00405dd7 	.word	0x00405dd7
  400a18:	0040c6d4 	.word	0x0040c6d4
  400a1c:	0040c6f0 	.word	0x0040c6f0
  400a20:	0040c710 	.word	0x0040c710
  400a24:	0040c714 	.word	0x0040c714

00400a28 <time_get_in_us>:
 */
#include "time.h"
#include "time_hal.h"

uint64_t time_get_in_us(void)
{
  400a28:	b598      	push	{r3, r4, r7, lr}
  400a2a:	af00      	add	r7, sp, #0
	return time_hal_get_in_us();
  400a2c:	4b03      	ldr	r3, [pc, #12]	; (400a3c <time_get_in_us+0x14>)
  400a2e:	4798      	blx	r3
  400a30:	4603      	mov	r3, r0
  400a32:	460c      	mov	r4, r1
  400a34:	4618      	mov	r0, r3
  400a36:	4621      	mov	r1, r4
  400a38:	bd98      	pop	{r3, r4, r7, pc}
  400a3a:	bf00      	nop
  400a3c:	00402f05 	.word	0x00402f05

00400a40 <osc_enable>:
#define OSC_MAINCK_XTAL_HZ          BOARD_FREQ_MAINCK_XTAL          //!< External crystal oscillator.
#define OSC_MAINCK_BYPASS_HZ        BOARD_FREQ_MAINCK_BYPASS        //!< External bypass oscillator.
//@}

static inline void osc_enable(uint32_t ul_id)
{
  400a40:	b580      	push	{r7, lr}
  400a42:	b082      	sub	sp, #8
  400a44:	af00      	add	r7, sp, #0
  400a46:	6078      	str	r0, [r7, #4]
	switch (ul_id) {
  400a48:	687b      	ldr	r3, [r7, #4]
  400a4a:	2b07      	cmp	r3, #7
  400a4c:	d831      	bhi.n	400ab2 <osc_enable+0x72>
  400a4e:	a201      	add	r2, pc, #4	; (adr r2, 400a54 <osc_enable+0x14>)
  400a50:	f852 f023 	ldr.w	pc, [r2, r3, lsl #2]
  400a54:	00400ab1 	.word	0x00400ab1
  400a58:	00400a75 	.word	0x00400a75
  400a5c:	00400a7d 	.word	0x00400a7d
  400a60:	00400a85 	.word	0x00400a85
  400a64:	00400a8d 	.word	0x00400a8d
  400a68:	00400a95 	.word	0x00400a95
  400a6c:	00400a9d 	.word	0x00400a9d
  400a70:	00400aa7 	.word	0x00400aa7
	case OSC_SLCK_32K_RC:
		break;

	case OSC_SLCK_32K_XTAL:
		pmc_switch_sclk_to_32kxtal(PMC_OSC_XTAL);
  400a74:	2000      	movs	r0, #0
  400a76:	4b11      	ldr	r3, [pc, #68]	; (400abc <osc_enable+0x7c>)
  400a78:	4798      	blx	r3
		break;
  400a7a:	e01a      	b.n	400ab2 <osc_enable+0x72>

	case OSC_SLCK_32K_BYPASS:
		pmc_switch_sclk_to_32kxtal(PMC_OSC_BYPASS);
  400a7c:	2001      	movs	r0, #1
  400a7e:	4b0f      	ldr	r3, [pc, #60]	; (400abc <osc_enable+0x7c>)
  400a80:	4798      	blx	r3
		break;
  400a82:	e016      	b.n	400ab2 <osc_enable+0x72>


	case OSC_MAINCK_8M_RC:
		pmc_switch_mainck_to_fastrc(CKGR_MOR_MOSCRCF_8_MHz);
  400a84:	2000      	movs	r0, #0
  400a86:	4b0e      	ldr	r3, [pc, #56]	; (400ac0 <osc_enable+0x80>)
  400a88:	4798      	blx	r3
		break;
  400a8a:	e012      	b.n	400ab2 <osc_enable+0x72>

	case OSC_MAINCK_16M_RC:
		pmc_switch_mainck_to_fastrc(CKGR_MOR_MOSCRCF_16_MHz);
  400a8c:	2010      	movs	r0, #16
  400a8e:	4b0c      	ldr	r3, [pc, #48]	; (400ac0 <osc_enable+0x80>)
  400a90:	4798      	blx	r3
		break;
  400a92:	e00e      	b.n	400ab2 <osc_enable+0x72>

	case OSC_MAINCK_24M_RC:
		pmc_switch_mainck_to_fastrc(CKGR_MOR_MOSCRCF_24_MHz);
  400a94:	2020      	movs	r0, #32
  400a96:	4b0a      	ldr	r3, [pc, #40]	; (400ac0 <osc_enable+0x80>)
  400a98:	4798      	blx	r3
		break;
  400a9a:	e00a      	b.n	400ab2 <osc_enable+0x72>


	case OSC_MAINCK_XTAL:
		pmc_switch_mainck_to_xtal(PMC_OSC_XTAL,
  400a9c:	213e      	movs	r1, #62	; 0x3e
  400a9e:	2000      	movs	r0, #0
  400aa0:	4b08      	ldr	r3, [pc, #32]	; (400ac4 <osc_enable+0x84>)
  400aa2:	4798      	blx	r3
			pmc_us_to_moscxtst(BOARD_OSC_STARTUP_US,
				OSC_SLCK_32K_RC_HZ));
		break;
  400aa4:	e005      	b.n	400ab2 <osc_enable+0x72>

	case OSC_MAINCK_BYPASS:
		pmc_switch_mainck_to_xtal(PMC_OSC_BYPASS,
  400aa6:	213e      	movs	r1, #62	; 0x3e
  400aa8:	2001      	movs	r0, #1
  400aaa:	4b06      	ldr	r3, [pc, #24]	; (400ac4 <osc_enable+0x84>)
  400aac:	4798      	blx	r3
			pmc_us_to_moscxtst(BOARD_OSC_STARTUP_US,
				OSC_SLCK_32K_RC_HZ));
		break;
  400aae:	e000      	b.n	400ab2 <osc_enable+0x72>
		break;
  400ab0:	bf00      	nop
	}
}
  400ab2:	bf00      	nop
  400ab4:	3708      	adds	r7, #8
  400ab6:	46bd      	mov	sp, r7
  400ab8:	bd80      	pop	{r7, pc}
  400aba:	bf00      	nop
  400abc:	00404195 	.word	0x00404195
  400ac0:	00404201 	.word	0x00404201
  400ac4:	00404271 	.word	0x00404271

00400ac8 <osc_is_ready>:
		break;
	}
}

static inline bool osc_is_ready(uint32_t ul_id)
{
  400ac8:	b580      	push	{r7, lr}
  400aca:	b082      	sub	sp, #8
  400acc:	af00      	add	r7, sp, #0
  400ace:	6078      	str	r0, [r7, #4]
	switch (ul_id) {
  400ad0:	687b      	ldr	r3, [r7, #4]
  400ad2:	2b07      	cmp	r3, #7
  400ad4:	d826      	bhi.n	400b24 <osc_is_ready+0x5c>
  400ad6:	a201      	add	r2, pc, #4	; (adr r2, 400adc <osc_is_ready+0x14>)
  400ad8:	f852 f023 	ldr.w	pc, [r2, r3, lsl #2]
  400adc:	00400afd 	.word	0x00400afd
  400ae0:	00400b01 	.word	0x00400b01
  400ae4:	00400b01 	.word	0x00400b01
  400ae8:	00400b13 	.word	0x00400b13
  400aec:	00400b13 	.word	0x00400b13
  400af0:	00400b13 	.word	0x00400b13
  400af4:	00400b13 	.word	0x00400b13
  400af8:	00400b13 	.word	0x00400b13
	case OSC_SLCK_32K_RC:
		return 1;
  400afc:	2301      	movs	r3, #1
  400afe:	e012      	b.n	400b26 <osc_is_ready+0x5e>

	case OSC_SLCK_32K_XTAL:
	case OSC_SLCK_32K_BYPASS:
		return pmc_osc_is_ready_32kxtal();
  400b00:	4b0b      	ldr	r3, [pc, #44]	; (400b30 <osc_is_ready+0x68>)
  400b02:	4798      	blx	r3
  400b04:	4603      	mov	r3, r0
  400b06:	2b00      	cmp	r3, #0
  400b08:	bf14      	ite	ne
  400b0a:	2301      	movne	r3, #1
  400b0c:	2300      	moveq	r3, #0
  400b0e:	b2db      	uxtb	r3, r3
  400b10:	e009      	b.n	400b26 <osc_is_ready+0x5e>
	case OSC_MAINCK_8M_RC:
	case OSC_MAINCK_16M_RC:
	case OSC_MAINCK_24M_RC:
	case OSC_MAINCK_XTAL:
	case OSC_MAINCK_BYPASS:
		return pmc_osc_is_ready_mainck();
  400b12:	4b08      	ldr	r3, [pc, #32]	; (400b34 <osc_is_ready+0x6c>)
  400b14:	4798      	blx	r3
  400b16:	4603      	mov	r3, r0
  400b18:	2b00      	cmp	r3, #0
  400b1a:	bf14      	ite	ne
  400b1c:	2301      	movne	r3, #1
  400b1e:	2300      	moveq	r3, #0
  400b20:	b2db      	uxtb	r3, r3
  400b22:	e000      	b.n	400b26 <osc_is_ready+0x5e>
	}

	return 0;
  400b24:	2300      	movs	r3, #0
}
  400b26:	4618      	mov	r0, r3
  400b28:	3708      	adds	r7, #8
  400b2a:	46bd      	mov	sp, r7
  400b2c:	bd80      	pop	{r7, pc}
  400b2e:	bf00      	nop
  400b30:	004041cd 	.word	0x004041cd
  400b34:	004042e9 	.word	0x004042e9

00400b38 <osc_get_rate>:

static inline uint32_t osc_get_rate(uint32_t ul_id)
{
  400b38:	b480      	push	{r7}
  400b3a:	b083      	sub	sp, #12
  400b3c:	af00      	add	r7, sp, #0
  400b3e:	6078      	str	r0, [r7, #4]
	switch (ul_id) {
  400b40:	687b      	ldr	r3, [r7, #4]
  400b42:	2b07      	cmp	r3, #7
  400b44:	d825      	bhi.n	400b92 <osc_get_rate+0x5a>
  400b46:	a201      	add	r2, pc, #4	; (adr r2, 400b4c <osc_get_rate+0x14>)
  400b48:	f852 f023 	ldr.w	pc, [r2, r3, lsl #2]
  400b4c:	00400b6d 	.word	0x00400b6d
  400b50:	00400b73 	.word	0x00400b73
  400b54:	00400b79 	.word	0x00400b79
  400b58:	00400b7f 	.word	0x00400b7f
  400b5c:	00400b83 	.word	0x00400b83
  400b60:	00400b87 	.word	0x00400b87
  400b64:	00400b8b 	.word	0x00400b8b
  400b68:	00400b8f 	.word	0x00400b8f
	case OSC_SLCK_32K_RC:
		return OSC_SLCK_32K_RC_HZ;
  400b6c:	f44f 43fa 	mov.w	r3, #32000	; 0x7d00
  400b70:	e010      	b.n	400b94 <osc_get_rate+0x5c>

#ifdef BOARD_FREQ_SLCK_XTAL
	case OSC_SLCK_32K_XTAL:
		return BOARD_FREQ_SLCK_XTAL;
  400b72:	f44f 4300 	mov.w	r3, #32768	; 0x8000
  400b76:	e00d      	b.n	400b94 <osc_get_rate+0x5c>
#endif

#ifdef BOARD_FREQ_SLCK_BYPASS
	case OSC_SLCK_32K_BYPASS:
		return BOARD_FREQ_SLCK_BYPASS;
  400b78:	f44f 4300 	mov.w	r3, #32768	; 0x8000
  400b7c:	e00a      	b.n	400b94 <osc_get_rate+0x5c>
#endif

	case OSC_MAINCK_8M_RC:
		return OSC_MAINCK_8M_RC_HZ;
  400b7e:	4b08      	ldr	r3, [pc, #32]	; (400ba0 <osc_get_rate+0x68>)
  400b80:	e008      	b.n	400b94 <osc_get_rate+0x5c>

	case OSC_MAINCK_16M_RC:
		return OSC_MAINCK_16M_RC_HZ;
  400b82:	4b08      	ldr	r3, [pc, #32]	; (400ba4 <osc_get_rate+0x6c>)
  400b84:	e006      	b.n	400b94 <osc_get_rate+0x5c>

	case OSC_MAINCK_24M_RC:
		return OSC_MAINCK_24M_RC_HZ;
  400b86:	4b08      	ldr	r3, [pc, #32]	; (400ba8 <osc_get_rate+0x70>)
  400b88:	e004      	b.n	400b94 <osc_get_rate+0x5c>

#ifdef BOARD_FREQ_MAINCK_XTAL
	case OSC_MAINCK_XTAL:
		return BOARD_FREQ_MAINCK_XTAL;
  400b8a:	2300      	movs	r3, #0
  400b8c:	e002      	b.n	400b94 <osc_get_rate+0x5c>
#endif

#ifdef BOARD_FREQ_MAINCK_BYPASS
	case OSC_MAINCK_BYPASS:
		return BOARD_FREQ_MAINCK_BYPASS;
  400b8e:	2300      	movs	r3, #0
  400b90:	e000      	b.n	400b94 <osc_get_rate+0x5c>
#endif
	}

	return 0;
  400b92:	2300      	movs	r3, #0
}
  400b94:	4618      	mov	r0, r3
  400b96:	370c      	adds	r7, #12
  400b98:	46bd      	mov	sp, r7
  400b9a:	f85d 7b04 	ldr.w	r7, [sp], #4
  400b9e:	4770      	bx	lr
  400ba0:	007a1200 	.word	0x007a1200
  400ba4:	00f42400 	.word	0x00f42400
  400ba8:	016e3600 	.word	0x016e3600

00400bac <osc_wait_ready>:
 * to become stable and ready to use as a clock source.
 *
 * \param id A number identifying the oscillator to wait for.
 */
static inline void osc_wait_ready(uint8_t id)
{
  400bac:	b580      	push	{r7, lr}
  400bae:	b082      	sub	sp, #8
  400bb0:	af00      	add	r7, sp, #0
  400bb2:	4603      	mov	r3, r0
  400bb4:	71fb      	strb	r3, [r7, #7]
	while (!osc_is_ready(id)) {
  400bb6:	bf00      	nop
  400bb8:	79fb      	ldrb	r3, [r7, #7]
  400bba:	4618      	mov	r0, r3
  400bbc:	4b05      	ldr	r3, [pc, #20]	; (400bd4 <osc_wait_ready+0x28>)
  400bbe:	4798      	blx	r3
  400bc0:	4603      	mov	r3, r0
  400bc2:	f083 0301 	eor.w	r3, r3, #1
  400bc6:	b2db      	uxtb	r3, r3
  400bc8:	2b00      	cmp	r3, #0
  400bca:	d1f5      	bne.n	400bb8 <osc_wait_ready+0xc>
		/* Do nothing */
	}
}
  400bcc:	bf00      	nop
  400bce:	3708      	adds	r7, #8
  400bd0:	46bd      	mov	sp, r7
  400bd2:	bd80      	pop	{r7, pc}
  400bd4:	00400ac9 	.word	0x00400ac9

00400bd8 <pll_config_init>:
 * \note The SAMG PLL hardware interprets mul as mul+1. For readability the hardware mul+1
 * is hidden in this implementation. Use mul as mul effective value.
 */
static inline void pll_config_init(struct pll_config *p_cfg,
		enum pll_source e_src, uint32_t ul_div, uint32_t ul_mul)
{
  400bd8:	b580      	push	{r7, lr}
  400bda:	b086      	sub	sp, #24
  400bdc:	af00      	add	r7, sp, #0
  400bde:	60f8      	str	r0, [r7, #12]
  400be0:	607a      	str	r2, [r7, #4]
  400be2:	603b      	str	r3, [r7, #0]
  400be4:	460b      	mov	r3, r1
  400be6:	72fb      	strb	r3, [r7, #11]

	Assert(e_src < PLL_NR_SOURCES);
	Assert(ul_div < 2);

	/* Calculate internal VCO frequency */
	vco_hz = osc_get_rate(e_src) / ul_div;
  400be8:	7afb      	ldrb	r3, [r7, #11]
  400bea:	4618      	mov	r0, r3
  400bec:	4b0d      	ldr	r3, [pc, #52]	; (400c24 <pll_config_init+0x4c>)
  400bee:	4798      	blx	r3
  400bf0:	4602      	mov	r2, r0
  400bf2:	687b      	ldr	r3, [r7, #4]
  400bf4:	fbb2 f3f3 	udiv	r3, r2, r3
  400bf8:	617b      	str	r3, [r7, #20]

	vco_hz *= ul_mul;
  400bfa:	697b      	ldr	r3, [r7, #20]
  400bfc:	683a      	ldr	r2, [r7, #0]
  400bfe:	fb02 f303 	mul.w	r3, r2, r3
  400c02:	617b      	str	r3, [r7, #20]
	Assert(vco_hz >= (PLL_OUTPUT_MIN_HZ - (PLL_OUTPUT_MIN_HZ >> 6)));
	Assert(vco_hz <= (PLL_OUTPUT_MAX_HZ + (PLL_OUTPUT_MAX_HZ >> 6)));

	/* PMC hardware will automatically make it mul+1 */
	p_cfg->ctrl = CKGR_PLLAR_MULA(ul_mul - 1) | CKGR_PLLAR_PLLAEN(ul_div) | CKGR_PLLAR_PLLACOUNT(PLL_COUNT);
  400c04:	683b      	ldr	r3, [r7, #0]
  400c06:	3b01      	subs	r3, #1
  400c08:	041a      	lsls	r2, r3, #16
  400c0a:	4b07      	ldr	r3, [pc, #28]	; (400c28 <pll_config_init+0x50>)
  400c0c:	4013      	ands	r3, r2
  400c0e:	687a      	ldr	r2, [r7, #4]
  400c10:	b2d2      	uxtb	r2, r2
  400c12:	4313      	orrs	r3, r2
  400c14:	f443 527c 	orr.w	r2, r3, #16128	; 0x3f00
  400c18:	68fb      	ldr	r3, [r7, #12]
  400c1a:	601a      	str	r2, [r3, #0]
}
  400c1c:	bf00      	nop
  400c1e:	3718      	adds	r7, #24
  400c20:	46bd      	mov	sp, r7
  400c22:	bd80      	pop	{r7, pc}
  400c24:	00400b39 	.word	0x00400b39
  400c28:	1fff0000 	.word	0x1fff0000

00400c2c <pll_enable>:
#endif
	}
}

static inline void pll_enable(const struct pll_config *p_cfg, uint32_t ul_pll_id)
{
  400c2c:	b580      	push	{r7, lr}
  400c2e:	b082      	sub	sp, #8
  400c30:	af00      	add	r7, sp, #0
  400c32:	6078      	str	r0, [r7, #4]
  400c34:	6039      	str	r1, [r7, #0]
	Assert(ul_pll_id < NR_PLLS);

	if (ul_pll_id == PLLA_ID) {
  400c36:	683b      	ldr	r3, [r7, #0]
  400c38:	2b00      	cmp	r3, #0
  400c3a:	d106      	bne.n	400c4a <pll_enable+0x1e>
		pmc_disable_pllack(); // Always stop PLL first!
  400c3c:	4b08      	ldr	r3, [pc, #32]	; (400c60 <pll_enable+0x34>)
  400c3e:	4798      	blx	r3
		PMC->CKGR_PLLAR = p_cfg->ctrl;
  400c40:	4a08      	ldr	r2, [pc, #32]	; (400c64 <pll_enable+0x38>)
  400c42:	687b      	ldr	r3, [r7, #4]
  400c44:	681b      	ldr	r3, [r3, #0]
  400c46:	6293      	str	r3, [r2, #40]	; 0x28
	} else {
		pmc_disable_pllbck(); // Always stop PLL first!
		PMC->CKGR_PLLBR = p_cfg->ctrl;
#endif
	}
}
  400c48:	e005      	b.n	400c56 <pll_enable+0x2a>
		pmc_disable_pllbck(); // Always stop PLL first!
  400c4a:	4b07      	ldr	r3, [pc, #28]	; (400c68 <pll_enable+0x3c>)
  400c4c:	4798      	blx	r3
		PMC->CKGR_PLLBR = p_cfg->ctrl;
  400c4e:	4a05      	ldr	r2, [pc, #20]	; (400c64 <pll_enable+0x38>)
  400c50:	687b      	ldr	r3, [r7, #4]
  400c52:	681b      	ldr	r3, [r3, #0]
  400c54:	62d3      	str	r3, [r2, #44]	; 0x2c
}
  400c56:	bf00      	nop
  400c58:	3708      	adds	r7, #8
  400c5a:	46bd      	mov	sp, r7
  400c5c:	bd80      	pop	{r7, pc}
  400c5e:	bf00      	nop
  400c60:	00404305 	.word	0x00404305
  400c64:	400e0400 	.word	0x400e0400
  400c68:	00404339 	.word	0x00404339

00400c6c <pll_is_locked>:
#endif
	}
}

static inline uint32_t pll_is_locked(uint32_t ul_pll_id)
{
  400c6c:	b580      	push	{r7, lr}
  400c6e:	b082      	sub	sp, #8
  400c70:	af00      	add	r7, sp, #0
  400c72:	6078      	str	r0, [r7, #4]
	Assert(ul_pll_id < NR_PLLS);

	if (ul_pll_id == PLLA_ID) {
  400c74:	687b      	ldr	r3, [r7, #4]
  400c76:	2b00      	cmp	r3, #0
  400c78:	d103      	bne.n	400c82 <pll_is_locked+0x16>
		return pmc_is_locked_pllack();
  400c7a:	4b08      	ldr	r3, [pc, #32]	; (400c9c <pll_is_locked+0x30>)
  400c7c:	4798      	blx	r3
  400c7e:	4603      	mov	r3, r0
  400c80:	e007      	b.n	400c92 <pll_is_locked+0x26>
#if SAMG55
	} else if (ul_pll_id == PLLB_ID) {
  400c82:	687b      	ldr	r3, [r7, #4]
  400c84:	2b01      	cmp	r3, #1
  400c86:	d103      	bne.n	400c90 <pll_is_locked+0x24>
		return pmc_is_locked_pllbck();
  400c88:	4b05      	ldr	r3, [pc, #20]	; (400ca0 <pll_is_locked+0x34>)
  400c8a:	4798      	blx	r3
  400c8c:	4603      	mov	r3, r0
  400c8e:	e000      	b.n	400c92 <pll_is_locked+0x26>
#endif
	} else {
		return 0;
  400c90:	2300      	movs	r3, #0
	}
}
  400c92:	4618      	mov	r0, r3
  400c94:	3708      	adds	r7, #8
  400c96:	46bd      	mov	sp, r7
  400c98:	bd80      	pop	{r7, pc}
  400c9a:	bf00      	nop
  400c9c:	0040431d 	.word	0x0040431d
  400ca0:	00404351 	.word	0x00404351

00400ca4 <pll_enable_source>:

static inline void pll_enable_source(enum pll_source e_src)
{
  400ca4:	b580      	push	{r7, lr}
  400ca6:	b082      	sub	sp, #8
  400ca8:	af00      	add	r7, sp, #0
  400caa:	4603      	mov	r3, r0
  400cac:	71fb      	strb	r3, [r7, #7]
	switch (e_src) {
  400cae:	79fb      	ldrb	r3, [r7, #7]
  400cb0:	3300      	adds	r3, #0
  400cb2:	2b01      	cmp	r3, #1
  400cb4:	d808      	bhi.n	400cc8 <pll_enable_source+0x24>
	case PLL_SRC_SLCK_RC:
	case PLL_SRC_SLCK_XTAL:
		osc_enable(e_src);
  400cb6:	79fb      	ldrb	r3, [r7, #7]
  400cb8:	4618      	mov	r0, r3
  400cba:	4b06      	ldr	r3, [pc, #24]	; (400cd4 <pll_enable_source+0x30>)
  400cbc:	4798      	blx	r3
		osc_wait_ready(e_src);
  400cbe:	79fb      	ldrb	r3, [r7, #7]
  400cc0:	4618      	mov	r0, r3
  400cc2:	4b05      	ldr	r3, [pc, #20]	; (400cd8 <pll_enable_source+0x34>)
  400cc4:	4798      	blx	r3
		break;
  400cc6:	e000      	b.n	400cca <pll_enable_source+0x26>

	default:
		Assert(false);
		break;
  400cc8:	bf00      	nop
	}
}
  400cca:	bf00      	nop
  400ccc:	3708      	adds	r7, #8
  400cce:	46bd      	mov	sp, r7
  400cd0:	bd80      	pop	{r7, pc}
  400cd2:	bf00      	nop
  400cd4:	00400a41 	.word	0x00400a41
  400cd8:	00400bad 	.word	0x00400bad

00400cdc <pll_wait_for_lock>:
 *
 * \retval STATUS_OK The PLL is now locked.
 * \retval ERR_TIMEOUT Timed out waiting for PLL to become locked.
 */
static inline int pll_wait_for_lock(unsigned int pll_id)
{
  400cdc:	b580      	push	{r7, lr}
  400cde:	b082      	sub	sp, #8
  400ce0:	af00      	add	r7, sp, #0
  400ce2:	6078      	str	r0, [r7, #4]
	Assert(pll_id < NR_PLLS);

	while (!pll_is_locked(pll_id)) {
  400ce4:	bf00      	nop
  400ce6:	6878      	ldr	r0, [r7, #4]
  400ce8:	4b04      	ldr	r3, [pc, #16]	; (400cfc <pll_wait_for_lock+0x20>)
  400cea:	4798      	blx	r3
  400cec:	4603      	mov	r3, r0
  400cee:	2b00      	cmp	r3, #0
  400cf0:	d0f9      	beq.n	400ce6 <pll_wait_for_lock+0xa>
		/* Do nothing */
	}

	return 0;
  400cf2:	2300      	movs	r3, #0
}
  400cf4:	4618      	mov	r0, r3
  400cf6:	3708      	adds	r7, #8
  400cf8:	46bd      	mov	sp, r7
  400cfa:	bd80      	pop	{r7, pc}
  400cfc:	00400c6d 	.word	0x00400c6d

00400d00 <sysclk_get_main_hz>:
 */
#if (defined CONFIG_SYSCLK_DEFAULT_RETURNS_SLOW_OSC)
extern uint32_t sysclk_initialized;
#endif
static inline uint32_t sysclk_get_main_hz(void)
{
  400d00:	b580      	push	{r7, lr}
  400d02:	af00      	add	r7, sp, #0
	} else if (CONFIG_SYSCLK_SOURCE == SYSCLK_SRC_MAINCK_BYPASS) {
		return OSC_MAINCK_BYPASS_HZ;
	}
#ifdef CONFIG_PLL0_SOURCE
	else if (CONFIG_SYSCLK_SOURCE == SYSCLK_SRC_PLLACK) {
		return pll_get_default_rate(0);
  400d04:	2001      	movs	r0, #1
  400d06:	4b04      	ldr	r3, [pc, #16]	; (400d18 <sysclk_get_main_hz+0x18>)
  400d08:	4798      	blx	r3
  400d0a:	4602      	mov	r2, r0
  400d0c:	f640 634e 	movw	r3, #3662	; 0xe4e
  400d10:	fb03 f302 	mul.w	r3, r3, r2

	else {
		/* unhandled_case(CONFIG_SYSCLK_SOURCE); */
		return 0;
	}
}
  400d14:	4618      	mov	r0, r3
  400d16:	bd80      	pop	{r7, pc}
  400d18:	00400b39 	.word	0x00400b39

00400d1c <sysclk_get_cpu_hz>:
 * clocks.
 *
 * \return Frequency of the CPU clock, in Hz.
 */
static inline uint32_t sysclk_get_cpu_hz(void)
{
  400d1c:	b580      	push	{r7, lr}
  400d1e:	af00      	add	r7, sp, #0
	/* CONFIG_SYSCLK_PRES is the register value for setting the expected */
	/* prescaler, not an immediate value. */
	return sysclk_get_main_hz() /
  400d20:	4b02      	ldr	r3, [pc, #8]	; (400d2c <sysclk_get_cpu_hz+0x10>)
  400d22:	4798      	blx	r3
  400d24:	4603      	mov	r3, r0
		((CONFIG_SYSCLK_PRES == SYSCLK_PRES_3) ? 3 :
			(1 << (CONFIG_SYSCLK_PRES >> PMC_MCKR_PRES_Pos)));
}
  400d26:	4618      	mov	r0, r3
  400d28:	bd80      	pop	{r7, pc}
  400d2a:	bf00      	nop
  400d2c:	00400d01 	.word	0x00400d01

00400d30 <sysclk_init>:
}
#endif // CONFIG_USBCLK_SOURCE
#endif

void sysclk_init(void)
{
  400d30:	b590      	push	{r4, r7, lr}
  400d32:	b0a5      	sub	sp, #148	; 0x94
  400d34:	af02      	add	r7, sp, #8
	uint32_t unique_id[32];
	uint32_t trim_value;
#endif

	/* Set flash wait state to max in case the below clock switching. */
	system_init_flash(CHIP_FREQ_CPU_MAX);
  400d36:	4820      	ldr	r0, [pc, #128]	; (400db8 <sysclk_init+0x88>)
  400d38:	4b20      	ldr	r3, [pc, #128]	; (400dbc <sysclk_init+0x8c>)
  400d3a:	4798      	blx	r3

#ifdef CONFIG_PLL0_SOURCE
	else if (CONFIG_SYSCLK_SOURCE == SYSCLK_SRC_PLLACK) {
		struct pll_config pllcfg;

		pll_enable_source(CONFIG_PLL0_SOURCE);
  400d3c:	2001      	movs	r0, #1
  400d3e:	4b20      	ldr	r3, [pc, #128]	; (400dc0 <sysclk_init+0x90>)
  400d40:	4798      	blx	r3
		pll_config_defaults(&pllcfg, 0);
  400d42:	4638      	mov	r0, r7
  400d44:	f640 634e 	movw	r3, #3662	; 0xe4e
  400d48:	2201      	movs	r2, #1
  400d4a:	2101      	movs	r1, #1
  400d4c:	4c1d      	ldr	r4, [pc, #116]	; (400dc4 <sysclk_init+0x94>)
  400d4e:	47a0      	blx	r4
		pll_enable(&pllcfg, 0);
  400d50:	463b      	mov	r3, r7
  400d52:	2100      	movs	r1, #0
  400d54:	4618      	mov	r0, r3
  400d56:	4b1c      	ldr	r3, [pc, #112]	; (400dc8 <sysclk_init+0x98>)
  400d58:	4798      	blx	r3
		pll_wait_for_lock(0);
  400d5a:	2000      	movs	r0, #0
  400d5c:	4b1b      	ldr	r3, [pc, #108]	; (400dcc <sysclk_init+0x9c>)
  400d5e:	4798      	blx	r3
		pmc_switch_mck_to_pllack(CONFIG_SYSCLK_PRES);
  400d60:	2000      	movs	r0, #0
  400d62:	4b1b      	ldr	r3, [pc, #108]	; (400dd0 <sysclk_init+0xa0>)
  400d64:	4798      	blx	r3
	}
#endif
#endif

	/* Update the SystemFrequency variable */
	SystemCoreClockUpdate();
  400d66:	4b1b      	ldr	r3, [pc, #108]	; (400dd4 <sysclk_init+0xa4>)
  400d68:	4798      	blx	r3

	/* Set a flash wait state depending on the new cpu frequency */
	system_init_flash(sysclk_get_cpu_hz());
  400d6a:	4b1b      	ldr	r3, [pc, #108]	; (400dd8 <sysclk_init+0xa8>)
  400d6c:	4798      	blx	r3
  400d6e:	4603      	mov	r3, r0
  400d70:	4618      	mov	r0, r3
  400d72:	4b12      	ldr	r3, [pc, #72]	; (400dbc <sysclk_init+0x8c>)
  400d74:	4798      	blx	r3
	}
#endif

#if SAMG55
	/* Set the trim value when system run near 120M */
	if ((SystemCoreClock <= (CHIP_FREQ_CPU_MAX + (CHIP_FREQ_CPU_MAX >> 3))) &&
  400d76:	4b19      	ldr	r3, [pc, #100]	; (400ddc <sysclk_init+0xac>)
  400d78:	681b      	ldr	r3, [r3, #0]
  400d7a:	4a19      	ldr	r2, [pc, #100]	; (400de0 <sysclk_init+0xb0>)
  400d7c:	4293      	cmp	r3, r2
  400d7e:	d816      	bhi.n	400dae <sysclk_init+0x7e>
	(SystemCoreClock >= (CHIP_FREQ_CPU_MAX - (CHIP_FREQ_CPU_MAX >> 3)))) {
  400d80:	4b16      	ldr	r3, [pc, #88]	; (400ddc <sysclk_init+0xac>)
  400d82:	681b      	ldr	r3, [r3, #0]
	if ((SystemCoreClock <= (CHIP_FREQ_CPU_MAX + (CHIP_FREQ_CPU_MAX >> 3))) &&
  400d84:	4a17      	ldr	r2, [pc, #92]	; (400de4 <sysclk_init+0xb4>)
  400d86:	4293      	cmp	r3, r2
  400d88:	d911      	bls.n	400dae <sysclk_init+0x7e>
		/* Get the trim value from unique ID area */
		efc_perform_read_sequence(EFC, EFC_FCMD_STUI, EFC_FCMD_SPUI,
  400d8a:	1d3a      	adds	r2, r7, #4
  400d8c:	2320      	movs	r3, #32
  400d8e:	9300      	str	r3, [sp, #0]
  400d90:	4613      	mov	r3, r2
  400d92:	220f      	movs	r2, #15
  400d94:	210e      	movs	r1, #14
  400d96:	4814      	ldr	r0, [pc, #80]	; (400de8 <sysclk_init+0xb8>)
  400d98:	4c14      	ldr	r4, [pc, #80]	; (400dec <sysclk_init+0xbc>)
  400d9a:	47a0      	blx	r4
		unique_id, 32);

		trim_value = unique_id[16] & 0x0000FFFF;
  400d9c:	6c7b      	ldr	r3, [r7, #68]	; 0x44
  400d9e:	b29b      	uxth	r3, r3
  400da0:	f8c7 3084 	str.w	r3, [r7, #132]	; 0x84
		supc_set_regulator_trim_user(SUPC, trim_value);
  400da4:	f8d7 1084 	ldr.w	r1, [r7, #132]	; 0x84
  400da8:	4811      	ldr	r0, [pc, #68]	; (400df0 <sysclk_init+0xc0>)
  400daa:	4b12      	ldr	r3, [pc, #72]	; (400df4 <sysclk_init+0xc4>)
  400dac:	4798      	blx	r3

#if (defined CONFIG_SYSCLK_DEFAULT_RETURNS_SLOW_OSC)
	/* Signal that the internal frequencies are setup */
	sysclk_initialized = 1;
#endif
}
  400dae:	bf00      	nop
  400db0:	378c      	adds	r7, #140	; 0x8c
  400db2:	46bd      	mov	sp, r7
  400db4:	bd90      	pop	{r4, r7, pc}
  400db6:	bf00      	nop
  400db8:	07270e00 	.word	0x07270e00
  400dbc:	00405425 	.word	0x00405425
  400dc0:	00400ca5 	.word	0x00400ca5
  400dc4:	00400bd9 	.word	0x00400bd9
  400dc8:	00400c2d 	.word	0x00400c2d
  400dcc:	00400cdd 	.word	0x00400cdd
  400dd0:	00404111 	.word	0x00404111
  400dd4:	00405301 	.word	0x00405301
  400dd8:	00400d1d 	.word	0x00400d1d
  400ddc:	20000170 	.word	0x20000170
  400de0:	080befc0 	.word	0x080befc0
  400de4:	06422c3f 	.word	0x06422c3f
  400de8:	400e0a00 	.word	0x400e0a00
  400dec:	2000000b 	.word	0x2000000b
  400df0:	400e1410 	.word	0x400e1410
  400df4:	00404941 	.word	0x00404941

00400df8 <cpu_irq_enter_critical>:
 */
volatile bool g_interrupt_enabled = true;
#endif

void cpu_irq_enter_critical(void)
{
  400df8:	b480      	push	{r7}
  400dfa:	b083      	sub	sp, #12
  400dfc:	af00      	add	r7, sp, #0
	if (cpu_irq_critical_section_counter == 0) {
  400dfe:	4b11      	ldr	r3, [pc, #68]	; (400e44 <cpu_irq_enter_critical+0x4c>)
  400e00:	681b      	ldr	r3, [r3, #0]
  400e02:	2b00      	cmp	r3, #0
  400e04:	d112      	bne.n	400e2c <cpu_irq_enter_critical+0x34>
 */
__attribute__( ( always_inline ) ) __STATIC_INLINE uint32_t __get_PRIMASK(void)
{
  uint32_t result;

  __ASM volatile ("MRS %0, primask" : "=r" (result) );
  400e06:	f3ef 8310 	mrs	r3, PRIMASK
  400e0a:	607b      	str	r3, [r7, #4]
  return(result);
  400e0c:	687b      	ldr	r3, [r7, #4]
		if (cpu_irq_is_enabled()) {
  400e0e:	2b00      	cmp	r3, #0
  400e10:	d109      	bne.n	400e26 <cpu_irq_enter_critical+0x2e>
  __ASM volatile ("cpsid i" : : : "memory");
  400e12:	b672      	cpsid	i
    This function ensures the apparent order of the explicit memory operations before
    and after the instruction, without ensuring their completion.
 */
__attribute__( ( always_inline ) ) __STATIC_INLINE void __DMB(void)
{
  __ASM volatile ("dmb");
  400e14:	f3bf 8f5f 	dmb	sy
			cpu_irq_disable();
  400e18:	4b0b      	ldr	r3, [pc, #44]	; (400e48 <cpu_irq_enter_critical+0x50>)
  400e1a:	2200      	movs	r2, #0
  400e1c:	701a      	strb	r2, [r3, #0]
			cpu_irq_prev_interrupt_state = true;
  400e1e:	4b0b      	ldr	r3, [pc, #44]	; (400e4c <cpu_irq_enter_critical+0x54>)
  400e20:	2201      	movs	r2, #1
  400e22:	701a      	strb	r2, [r3, #0]
  400e24:	e002      	b.n	400e2c <cpu_irq_enter_critical+0x34>
		} else {
			/* Make sure the to save the prev state as false */
			cpu_irq_prev_interrupt_state = false;
  400e26:	4b09      	ldr	r3, [pc, #36]	; (400e4c <cpu_irq_enter_critical+0x54>)
  400e28:	2200      	movs	r2, #0
  400e2a:	701a      	strb	r2, [r3, #0]
		}

	}

	cpu_irq_critical_section_counter++;
  400e2c:	4b05      	ldr	r3, [pc, #20]	; (400e44 <cpu_irq_enter_critical+0x4c>)
  400e2e:	681b      	ldr	r3, [r3, #0]
  400e30:	3301      	adds	r3, #1
  400e32:	4a04      	ldr	r2, [pc, #16]	; (400e44 <cpu_irq_enter_critical+0x4c>)
  400e34:	6013      	str	r3, [r2, #0]
}
  400e36:	bf00      	nop
  400e38:	370c      	adds	r7, #12
  400e3a:	46bd      	mov	sp, r7
  400e3c:	f85d 7b04 	ldr.w	r7, [sp], #4
  400e40:	4770      	bx	lr
  400e42:	bf00      	nop
  400e44:	20000374 	.word	0x20000374
  400e48:	20000114 	.word	0x20000114
  400e4c:	20000378 	.word	0x20000378

00400e50 <cpu_irq_leave_critical>:

void cpu_irq_leave_critical(void)
{
  400e50:	b480      	push	{r7}
  400e52:	af00      	add	r7, sp, #0
	/* Check if the user is trying to leave a critical section when not in a critical section */
	Assert(cpu_irq_critical_section_counter > 0);

	cpu_irq_critical_section_counter--;
  400e54:	4b0c      	ldr	r3, [pc, #48]	; (400e88 <cpu_irq_leave_critical+0x38>)
  400e56:	681b      	ldr	r3, [r3, #0]
  400e58:	3b01      	subs	r3, #1
  400e5a:	4a0b      	ldr	r2, [pc, #44]	; (400e88 <cpu_irq_leave_critical+0x38>)
  400e5c:	6013      	str	r3, [r2, #0]

	/* Only enable global interrupts when the counter reaches 0 and the state of the global interrupt flag
	   was enabled when entering critical state */
	if ((cpu_irq_critical_section_counter == 0) && (cpu_irq_prev_interrupt_state)) {
  400e5e:	4b0a      	ldr	r3, [pc, #40]	; (400e88 <cpu_irq_leave_critical+0x38>)
  400e60:	681b      	ldr	r3, [r3, #0]
  400e62:	2b00      	cmp	r3, #0
  400e64:	d10a      	bne.n	400e7c <cpu_irq_leave_critical+0x2c>
  400e66:	4b09      	ldr	r3, [pc, #36]	; (400e8c <cpu_irq_leave_critical+0x3c>)
  400e68:	781b      	ldrb	r3, [r3, #0]
  400e6a:	b2db      	uxtb	r3, r3
  400e6c:	2b00      	cmp	r3, #0
  400e6e:	d005      	beq.n	400e7c <cpu_irq_leave_critical+0x2c>
		cpu_irq_enable();
  400e70:	4b07      	ldr	r3, [pc, #28]	; (400e90 <cpu_irq_leave_critical+0x40>)
  400e72:	2201      	movs	r2, #1
  400e74:	701a      	strb	r2, [r3, #0]
  400e76:	f3bf 8f5f 	dmb	sy
  __ASM volatile ("cpsie i" : : : "memory");
  400e7a:	b662      	cpsie	i
	}
}
  400e7c:	bf00      	nop
  400e7e:	46bd      	mov	sp, r7
  400e80:	f85d 7b04 	ldr.w	r7, [sp], #4
  400e84:	4770      	bx	lr
  400e86:	bf00      	nop
  400e88:	20000374 	.word	0x20000374
  400e8c:	20000378 	.word	0x20000378
  400e90:	20000114 	.word	0x20000114

00400e94 <_read>:
int __attribute__((weak))
_read (int file, char * ptr, int len); // Remove GCC compiler warning

int __attribute__((weak))
_read (int file, char * ptr, int len)
{
  400e94:	b580      	push	{r7, lr}
  400e96:	b086      	sub	sp, #24
  400e98:	af00      	add	r7, sp, #0
  400e9a:	60f8      	str	r0, [r7, #12]
  400e9c:	60b9      	str	r1, [r7, #8]
  400e9e:	607a      	str	r2, [r7, #4]
	int nChars = 0;
  400ea0:	2300      	movs	r3, #0
  400ea2:	617b      	str	r3, [r7, #20]

	if (file != 0) {
  400ea4:	68fb      	ldr	r3, [r7, #12]
  400ea6:	2b00      	cmp	r3, #0
  400ea8:	d012      	beq.n	400ed0 <_read+0x3c>
		return -1;
  400eaa:	f04f 33ff 	mov.w	r3, #4294967295
  400eae:	e013      	b.n	400ed8 <_read+0x44>
	}

	for (; len > 0; --len) {
		ptr_get(stdio_base, ptr);
  400eb0:	4b0b      	ldr	r3, [pc, #44]	; (400ee0 <_read+0x4c>)
  400eb2:	681b      	ldr	r3, [r3, #0]
  400eb4:	4a0b      	ldr	r2, [pc, #44]	; (400ee4 <_read+0x50>)
  400eb6:	6812      	ldr	r2, [r2, #0]
  400eb8:	68b9      	ldr	r1, [r7, #8]
  400eba:	4610      	mov	r0, r2
  400ebc:	4798      	blx	r3
		ptr++;
  400ebe:	68bb      	ldr	r3, [r7, #8]
  400ec0:	3301      	adds	r3, #1
  400ec2:	60bb      	str	r3, [r7, #8]
		nChars++;
  400ec4:	697b      	ldr	r3, [r7, #20]
  400ec6:	3301      	adds	r3, #1
  400ec8:	617b      	str	r3, [r7, #20]
	for (; len > 0; --len) {
  400eca:	687b      	ldr	r3, [r7, #4]
  400ecc:	3b01      	subs	r3, #1
  400ece:	607b      	str	r3, [r7, #4]
  400ed0:	687b      	ldr	r3, [r7, #4]
  400ed2:	2b00      	cmp	r3, #0
  400ed4:	dcec      	bgt.n	400eb0 <_read+0x1c>
	}
	return nChars;
  400ed6:	697b      	ldr	r3, [r7, #20]
}
  400ed8:	4618      	mov	r0, r3
  400eda:	3718      	adds	r7, #24
  400edc:	46bd      	mov	sp, r7
  400ede:	bd80      	pop	{r7, pc}
  400ee0:	200008d8 	.word	0x200008d8
  400ee4:	200008e0 	.word	0x200008e0

00400ee8 <_write>:
int __attribute__((weak))
_write (int file, const char *ptr, int len);

int __attribute__((weak))
_write (int file, const char *ptr, int len)
{
  400ee8:	b580      	push	{r7, lr}
  400eea:	b086      	sub	sp, #24
  400eec:	af00      	add	r7, sp, #0
  400eee:	60f8      	str	r0, [r7, #12]
  400ef0:	60b9      	str	r1, [r7, #8]
  400ef2:	607a      	str	r2, [r7, #4]
	int nChars = 0;
  400ef4:	2300      	movs	r3, #0
  400ef6:	617b      	str	r3, [r7, #20]

	if ((file != 1) && (file != 2) && (file!=3)) {
  400ef8:	68fb      	ldr	r3, [r7, #12]
  400efa:	2b01      	cmp	r3, #1
  400efc:	d01e      	beq.n	400f3c <_write+0x54>
  400efe:	68fb      	ldr	r3, [r7, #12]
  400f00:	2b02      	cmp	r3, #2
  400f02:	d01b      	beq.n	400f3c <_write+0x54>
  400f04:	68fb      	ldr	r3, [r7, #12]
  400f06:	2b03      	cmp	r3, #3
  400f08:	d018      	beq.n	400f3c <_write+0x54>
		return -1;
  400f0a:	f04f 33ff 	mov.w	r3, #4294967295
  400f0e:	e019      	b.n	400f44 <_write+0x5c>
	}

	for (; len != 0; --len) {
		if (ptr_put(stdio_base, *ptr++) < 0) {
  400f10:	4b0e      	ldr	r3, [pc, #56]	; (400f4c <_write+0x64>)
  400f12:	681a      	ldr	r2, [r3, #0]
  400f14:	4b0e      	ldr	r3, [pc, #56]	; (400f50 <_write+0x68>)
  400f16:	6818      	ldr	r0, [r3, #0]
  400f18:	68bb      	ldr	r3, [r7, #8]
  400f1a:	1c59      	adds	r1, r3, #1
  400f1c:	60b9      	str	r1, [r7, #8]
  400f1e:	781b      	ldrb	r3, [r3, #0]
  400f20:	4619      	mov	r1, r3
  400f22:	4790      	blx	r2
  400f24:	4603      	mov	r3, r0
  400f26:	2b00      	cmp	r3, #0
  400f28:	da02      	bge.n	400f30 <_write+0x48>
			return -1;
  400f2a:	f04f 33ff 	mov.w	r3, #4294967295
  400f2e:	e009      	b.n	400f44 <_write+0x5c>
		}
		++nChars;
  400f30:	697b      	ldr	r3, [r7, #20]
  400f32:	3301      	adds	r3, #1
  400f34:	617b      	str	r3, [r7, #20]
	for (; len != 0; --len) {
  400f36:	687b      	ldr	r3, [r7, #4]
  400f38:	3b01      	subs	r3, #1
  400f3a:	607b      	str	r3, [r7, #4]
  400f3c:	687b      	ldr	r3, [r7, #4]
  400f3e:	2b00      	cmp	r3, #0
  400f40:	d1e6      	bne.n	400f10 <_write+0x28>
	}
	return nChars;
  400f42:	697b      	ldr	r3, [r7, #20]
}
  400f44:	4618      	mov	r0, r3
  400f46:	3718      	adds	r7, #24
  400f48:	46bd      	mov	sp, r7
  400f4a:	bd80      	pop	{r7, pc}
  400f4c:	200008dc 	.word	0x200008dc
  400f50:	200008e0 	.word	0x200008e0

00400f54 <osc_get_rate>:
{
  400f54:	b480      	push	{r7}
  400f56:	b083      	sub	sp, #12
  400f58:	af00      	add	r7, sp, #0
  400f5a:	6078      	str	r0, [r7, #4]
	switch (ul_id) {
  400f5c:	687b      	ldr	r3, [r7, #4]
  400f5e:	2b07      	cmp	r3, #7
  400f60:	d825      	bhi.n	400fae <osc_get_rate+0x5a>
  400f62:	a201      	add	r2, pc, #4	; (adr r2, 400f68 <osc_get_rate+0x14>)
  400f64:	f852 f023 	ldr.w	pc, [r2, r3, lsl #2]
  400f68:	00400f89 	.word	0x00400f89
  400f6c:	00400f8f 	.word	0x00400f8f
  400f70:	00400f95 	.word	0x00400f95
  400f74:	00400f9b 	.word	0x00400f9b
  400f78:	00400f9f 	.word	0x00400f9f
  400f7c:	00400fa3 	.word	0x00400fa3
  400f80:	00400fa7 	.word	0x00400fa7
  400f84:	00400fab 	.word	0x00400fab
		return OSC_SLCK_32K_RC_HZ;
  400f88:	f44f 43fa 	mov.w	r3, #32000	; 0x7d00
  400f8c:	e010      	b.n	400fb0 <osc_get_rate+0x5c>
		return BOARD_FREQ_SLCK_XTAL;
  400f8e:	f44f 4300 	mov.w	r3, #32768	; 0x8000
  400f92:	e00d      	b.n	400fb0 <osc_get_rate+0x5c>
		return BOARD_FREQ_SLCK_BYPASS;
  400f94:	f44f 4300 	mov.w	r3, #32768	; 0x8000
  400f98:	e00a      	b.n	400fb0 <osc_get_rate+0x5c>
		return OSC_MAINCK_8M_RC_HZ;
  400f9a:	4b08      	ldr	r3, [pc, #32]	; (400fbc <osc_get_rate+0x68>)
  400f9c:	e008      	b.n	400fb0 <osc_get_rate+0x5c>
		return OSC_MAINCK_16M_RC_HZ;
  400f9e:	4b08      	ldr	r3, [pc, #32]	; (400fc0 <osc_get_rate+0x6c>)
  400fa0:	e006      	b.n	400fb0 <osc_get_rate+0x5c>
		return OSC_MAINCK_24M_RC_HZ;
  400fa2:	4b08      	ldr	r3, [pc, #32]	; (400fc4 <osc_get_rate+0x70>)
  400fa4:	e004      	b.n	400fb0 <osc_get_rate+0x5c>
		return BOARD_FREQ_MAINCK_XTAL;
  400fa6:	2300      	movs	r3, #0
  400fa8:	e002      	b.n	400fb0 <osc_get_rate+0x5c>
		return BOARD_FREQ_MAINCK_BYPASS;
  400faa:	2300      	movs	r3, #0
  400fac:	e000      	b.n	400fb0 <osc_get_rate+0x5c>
	return 0;
  400fae:	2300      	movs	r3, #0
}
  400fb0:	4618      	mov	r0, r3
  400fb2:	370c      	adds	r7, #12
  400fb4:	46bd      	mov	sp, r7
  400fb6:	f85d 7b04 	ldr.w	r7, [sp], #4
  400fba:	4770      	bx	lr
  400fbc:	007a1200 	.word	0x007a1200
  400fc0:	00f42400 	.word	0x00f42400
  400fc4:	016e3600 	.word	0x016e3600

00400fc8 <sysclk_get_main_hz>:
{
  400fc8:	b580      	push	{r7, lr}
  400fca:	af00      	add	r7, sp, #0
		return pll_get_default_rate(0);
  400fcc:	2001      	movs	r0, #1
  400fce:	4b04      	ldr	r3, [pc, #16]	; (400fe0 <sysclk_get_main_hz+0x18>)
  400fd0:	4798      	blx	r3
  400fd2:	4602      	mov	r2, r0
  400fd4:	f640 634e 	movw	r3, #3662	; 0xe4e
  400fd8:	fb03 f302 	mul.w	r3, r3, r2
}
  400fdc:	4618      	mov	r0, r3
  400fde:	bd80      	pop	{r7, pc}
  400fe0:	00400f55 	.word	0x00400f55

00400fe4 <sysclk_get_cpu_hz>:
{
  400fe4:	b580      	push	{r7, lr}
  400fe6:	af00      	add	r7, sp, #0
	return sysclk_get_main_hz() /
  400fe8:	4b02      	ldr	r3, [pc, #8]	; (400ff4 <sysclk_get_cpu_hz+0x10>)
  400fea:	4798      	blx	r3
  400fec:	4603      	mov	r3, r0
}
  400fee:	4618      	mov	r0, r3
  400ff0:	bd80      	pop	{r7, pc}
  400ff2:	bf00      	nop
  400ff4:	00400fc9 	.word	0x00400fc9

00400ff8 <ioport_set_pin_dir>:
 * \param pin IOPORT pin to configure
 * \param dir Direction to set for the specified pin (\ref ioport_direction)
 */
static inline void ioport_set_pin_dir(ioport_pin_t pin,
		enum ioport_direction dir)
{
  400ff8:	b480      	push	{r7}
  400ffa:	b08d      	sub	sp, #52	; 0x34
  400ffc:	af00      	add	r7, sp, #0
  400ffe:	6078      	str	r0, [r7, #4]
  401000:	460b      	mov	r3, r1
  401002:	70fb      	strb	r3, [r7, #3]
  401004:	687b      	ldr	r3, [r7, #4]
  401006:	62fb      	str	r3, [r7, #44]	; 0x2c
  401008:	78fb      	ldrb	r3, [r7, #3]
  40100a:	f887 302b 	strb.w	r3, [r7, #43]	; 0x2b
  40100e:	6afb      	ldr	r3, [r7, #44]	; 0x2c
  401010:	627b      	str	r3, [r7, #36]	; 0x24
  401012:	6a7b      	ldr	r3, [r7, #36]	; 0x24
  401014:	623b      	str	r3, [r7, #32]
typedef uint32_t ioport_port_t;
typedef uint32_t ioport_port_mask_t;

__always_inline static ioport_port_t arch_ioport_pin_to_port_id(ioport_pin_t pin)
{
	return pin >> 5;
  401016:	6a3b      	ldr	r3, [r7, #32]
  401018:	095b      	lsrs	r3, r3, #5
  40101a:	61fb      	str	r3, [r7, #28]
	} else {
		return (Pio *)((uintptr_t)IOPORT_BASE_ADDRESS +
		       (IOPORT_PIO_OFFSET * port));
	}
#else
	return (Pio *)((uintptr_t)IOPORT_BASE_ADDRESS +
  40101c:	69fb      	ldr	r3, [r7, #28]
  40101e:	f503 1300 	add.w	r3, r3, #2097152	; 0x200000
  401022:	f203 7307 	addw	r3, r3, #1799	; 0x707
  401026:	025b      	lsls	r3, r3, #9
}

__always_inline static void arch_ioport_set_pin_dir(ioport_pin_t pin,
		enum ioport_direction dir)
{
	Pio *base = arch_ioport_pin_to_base(pin);
  401028:	61bb      	str	r3, [r7, #24]

	if (dir == IOPORT_DIR_OUTPUT) {
  40102a:	f897 302b 	ldrb.w	r3, [r7, #43]	; 0x2b
  40102e:	2b01      	cmp	r3, #1
  401030:	d109      	bne.n	401046 <ioport_set_pin_dir+0x4e>
  401032:	6afb      	ldr	r3, [r7, #44]	; 0x2c
  401034:	617b      	str	r3, [r7, #20]
	return 1U << (pin & 0x1F);
  401036:	697b      	ldr	r3, [r7, #20]
  401038:	f003 031f 	and.w	r3, r3, #31
  40103c:	2201      	movs	r2, #1
  40103e:	409a      	lsls	r2, r3
		base->PIO_OER = arch_ioport_pin_to_mask(pin);
  401040:	69bb      	ldr	r3, [r7, #24]
  401042:	611a      	str	r2, [r3, #16]
  401044:	e00c      	b.n	401060 <ioport_set_pin_dir+0x68>
	} else if (dir == IOPORT_DIR_INPUT) {
  401046:	f897 302b 	ldrb.w	r3, [r7, #43]	; 0x2b
  40104a:	2b00      	cmp	r3, #0
  40104c:	d108      	bne.n	401060 <ioport_set_pin_dir+0x68>
  40104e:	6afb      	ldr	r3, [r7, #44]	; 0x2c
  401050:	613b      	str	r3, [r7, #16]
	return 1U << (pin & 0x1F);
  401052:	693b      	ldr	r3, [r7, #16]
  401054:	f003 031f 	and.w	r3, r3, #31
  401058:	2201      	movs	r2, #1
  40105a:	409a      	lsls	r2, r3
		base->PIO_ODR = arch_ioport_pin_to_mask(pin);
  40105c:	69bb      	ldr	r3, [r7, #24]
  40105e:	615a      	str	r2, [r3, #20]
  401060:	6afb      	ldr	r3, [r7, #44]	; 0x2c
  401062:	60fb      	str	r3, [r7, #12]
	return 1U << (pin & 0x1F);
  401064:	68fb      	ldr	r3, [r7, #12]
  401066:	f003 031f 	and.w	r3, r3, #31
  40106a:	2201      	movs	r2, #1
  40106c:	409a      	lsls	r2, r3
	}

	base->PIO_OWER = arch_ioport_pin_to_mask(pin);
  40106e:	69bb      	ldr	r3, [r7, #24]
  401070:	f8c3 20a0 	str.w	r2, [r3, #160]	; 0xa0
	arch_ioport_set_pin_dir(pin, dir);
}
  401074:	bf00      	nop
  401076:	3734      	adds	r7, #52	; 0x34
  401078:	46bd      	mov	sp, r7
  40107a:	f85d 7b04 	ldr.w	r7, [sp], #4
  40107e:	4770      	bx	lr

00401080 <ioport_set_pin_level>:
 *
 * \param pin IOPORT pin to configure
 * \param level Logical value of the pin
 */
static inline void ioport_set_pin_level(ioport_pin_t pin, bool level)
{
  401080:	b480      	push	{r7}
  401082:	b08b      	sub	sp, #44	; 0x2c
  401084:	af00      	add	r7, sp, #0
  401086:	6078      	str	r0, [r7, #4]
  401088:	460b      	mov	r3, r1
  40108a:	70fb      	strb	r3, [r7, #3]
  40108c:	687b      	ldr	r3, [r7, #4]
  40108e:	627b      	str	r3, [r7, #36]	; 0x24
  401090:	78fb      	ldrb	r3, [r7, #3]
  401092:	f887 3023 	strb.w	r3, [r7, #35]	; 0x23
  401096:	6a7b      	ldr	r3, [r7, #36]	; 0x24
  401098:	61fb      	str	r3, [r7, #28]
  40109a:	69fb      	ldr	r3, [r7, #28]
  40109c:	61bb      	str	r3, [r7, #24]
	return pin >> 5;
  40109e:	69bb      	ldr	r3, [r7, #24]
  4010a0:	095b      	lsrs	r3, r3, #5
  4010a2:	617b      	str	r3, [r7, #20]
	return (Pio *)((uintptr_t)IOPORT_BASE_ADDRESS +
  4010a4:	697b      	ldr	r3, [r7, #20]
  4010a6:	f503 1300 	add.w	r3, r3, #2097152	; 0x200000
  4010aa:	f203 7307 	addw	r3, r3, #1799	; 0x707
  4010ae:	025b      	lsls	r3, r3, #9
}

__always_inline static void arch_ioport_set_pin_level(ioport_pin_t pin,
		bool level)
{
	Pio *base = arch_ioport_pin_to_base(pin);
  4010b0:	613b      	str	r3, [r7, #16]

	if (level) {
  4010b2:	f897 3023 	ldrb.w	r3, [r7, #35]	; 0x23
  4010b6:	2b00      	cmp	r3, #0
  4010b8:	d009      	beq.n	4010ce <ioport_set_pin_level+0x4e>
  4010ba:	6a7b      	ldr	r3, [r7, #36]	; 0x24
  4010bc:	60fb      	str	r3, [r7, #12]
	return 1U << (pin & 0x1F);
  4010be:	68fb      	ldr	r3, [r7, #12]
  4010c0:	f003 031f 	and.w	r3, r3, #31
  4010c4:	2201      	movs	r2, #1
  4010c6:	409a      	lsls	r2, r3
		base->PIO_SODR = arch_ioport_pin_to_mask(pin);
  4010c8:	693b      	ldr	r3, [r7, #16]
  4010ca:	631a      	str	r2, [r3, #48]	; 0x30
	arch_ioport_set_pin_level(pin, level);
}
  4010cc:	e008      	b.n	4010e0 <ioport_set_pin_level+0x60>
  4010ce:	6a7b      	ldr	r3, [r7, #36]	; 0x24
  4010d0:	60bb      	str	r3, [r7, #8]
	return 1U << (pin & 0x1F);
  4010d2:	68bb      	ldr	r3, [r7, #8]
  4010d4:	f003 031f 	and.w	r3, r3, #31
  4010d8:	2201      	movs	r2, #1
  4010da:	409a      	lsls	r2, r3
	} else {
		base->PIO_CODR = arch_ioport_pin_to_mask(pin);
  4010dc:	693b      	ldr	r3, [r7, #16]
  4010de:	635a      	str	r2, [r3, #52]	; 0x34
  4010e0:	bf00      	nop
  4010e2:	372c      	adds	r7, #44	; 0x2c
  4010e4:	46bd      	mov	sp, r7
  4010e6:	f85d 7b04 	ldr.w	r7, [sp], #4
  4010ea:	4770      	bx	lr

004010ec <PIOA_Handler>:
 *    the ISR must be as short as possible to ensure the INT level is set back to
 *    0 logical level before the CHx01 is ready for a new measurement. The maximum
 *    time for ISR is 8 us.
 */
void PIOA_Handler(void)
{
  4010ec:	b580      	push	{r7, lr}
  4010ee:	b082      	sub	sp, #8
  4010f0:	af00      	add	r7, sp, #0
	/* Read the ISR and IMR registers to know which interrupt(s) is(are) pending */
	uint32_t status = pio_get_interrupt_status(PIOA);
  4010f2:	481b      	ldr	r0, [pc, #108]	; (401160 <PIOA_Handler+0x74>)
  4010f4:	4b1b      	ldr	r3, [pc, #108]	; (401164 <PIOA_Handler+0x78>)
  4010f6:	4798      	blx	r3
  4010f8:	6078      	str	r0, [r7, #4]
	status &= pio_get_interrupt_mask(PIOA);
  4010fa:	4819      	ldr	r0, [pc, #100]	; (401160 <PIOA_Handler+0x74>)
  4010fc:	4b1a      	ldr	r3, [pc, #104]	; (401168 <PIOA_Handler+0x7c>)
  4010fe:	4798      	blx	r3
  401100:	4602      	mov	r2, r0
  401102:	687b      	ldr	r3, [r7, #4]
  401104:	4013      	ands	r3, r2
  401106:	607b      	str	r3, [r7, #4]

	if (status & PIN_EXT_MotionINT_MASK)
  401108:	687b      	ldr	r3, [r7, #4]
  40110a:	f003 4380 	and.w	r3, r3, #1073741824	; 0x40000000
  40110e:	2b00      	cmp	r3, #0
  401110:	d001      	beq.n	401116 <PIOA_Handler+0x2a>
		ext_MotionINT_handler();
  401112:	4b16      	ldr	r3, [pc, #88]	; (40116c <PIOA_Handler+0x80>)
  401114:	4798      	blx	r3
	if (status & PIN_EXT_ChirpINT0_MASK)
  401116:	687b      	ldr	r3, [r7, #4]
  401118:	f403 1300 	and.w	r3, r3, #2097152	; 0x200000
  40111c:	2b00      	cmp	r3, #0
  40111e:	d002      	beq.n	401126 <PIOA_Handler+0x3a>
		ext_int_handler(0);
  401120:	2000      	movs	r0, #0
  401122:	4b13      	ldr	r3, [pc, #76]	; (401170 <PIOA_Handler+0x84>)
  401124:	4798      	blx	r3
	if (status & PIN_EXT_ChirpINT1_MASK)
  401126:	687b      	ldr	r3, [r7, #4]
  401128:	f403 0380 	and.w	r3, r3, #4194304	; 0x400000
  40112c:	2b00      	cmp	r3, #0
  40112e:	d002      	beq.n	401136 <PIOA_Handler+0x4a>
		ext_int_handler(1);
  401130:	2001      	movs	r0, #1
  401132:	4b0f      	ldr	r3, [pc, #60]	; (401170 <PIOA_Handler+0x84>)
  401134:	4798      	blx	r3
	if (status & PIN_EXT_ChirpINT2_MASK)
  401136:	687b      	ldr	r3, [r7, #4]
  401138:	f403 0300 	and.w	r3, r3, #8388608	; 0x800000
  40113c:	2b00      	cmp	r3, #0
  40113e:	d002      	beq.n	401146 <PIOA_Handler+0x5a>
		ext_int_handler(2);
  401140:	2002      	movs	r0, #2
  401142:	4b0b      	ldr	r3, [pc, #44]	; (401170 <PIOA_Handler+0x84>)
  401144:	4798      	blx	r3
	if (status & PIN_EXT_ChirpINT3_MASK)
  401146:	687b      	ldr	r3, [r7, #4]
  401148:	f003 5300 	and.w	r3, r3, #536870912	; 0x20000000
  40114c:	2b00      	cmp	r3, #0
  40114e:	d002      	beq.n	401156 <PIOA_Handler+0x6a>
		ext_int_handler(3);
  401150:	2003      	movs	r0, #3
  401152:	4b07      	ldr	r3, [pc, #28]	; (401170 <PIOA_Handler+0x84>)
  401154:	4798      	blx	r3
}
  401156:	bf00      	nop
  401158:	3708      	adds	r7, #8
  40115a:	46bd      	mov	sp, r7
  40115c:	bd80      	pop	{r7, pc}
  40115e:	bf00      	nop
  401160:	400e0e00 	.word	0x400e0e00
  401164:	00403d89 	.word	0x00403d89
  401168:	00403da1 	.word	0x00403da1
  40116c:	00401175 	.word	0x00401175
  401170:	00401185 	.word	0x00401185

00401174 <ext_MotionINT_handler>:

void ext_MotionINT_handler(void)
{
  401174:	b480      	push	{r7}
  401176:	af00      	add	r7, sp, #0
#ifdef USE_IMU
	imu_data_ready_isr_callback();
#endif
}
  401178:	bf00      	nop
  40117a:	46bd      	mov	sp, r7
  40117c:	f85d 7b04 	ldr.w	r7, [sp], #4
  401180:	4770      	bx	lr
	...

00401184 <ext_int_handler>:

static void ext_int_handler(uint32_t sensor_id)
{
  401184:	b580      	push	{r7, lr}
  401186:	b084      	sub	sp, #16
  401188:	af00      	add	r7, sp, #0
  40118a:	6078      	str	r0, [r7, #4]
	ch_io_int_callback_t func_ptr = sensor_group_ptr->io_int_callback;
  40118c:	4b13      	ldr	r3, [pc, #76]	; (4011dc <ext_int_handler+0x58>)
  40118e:	681b      	ldr	r3, [r3, #0]
  401190:	691b      	ldr	r3, [r3, #16]
  401192:	60fb      	str	r3, [r7, #12]
	uint32_t gpio_pin = chirp_pin_io[sensor_id];
  401194:	4a12      	ldr	r2, [pc, #72]	; (4011e0 <ext_int_handler+0x5c>)
  401196:	687b      	ldr	r3, [r7, #4]
  401198:	f852 3023 	ldr.w	r3, [r2, r3, lsl #2]
  40119c:	60bb      	str	r3, [r7, #8]

	/* Put the line in output to stabilize it to 0V until the next trig */
	ioport_set_pin_level(gpio_pin, IOPORT_PIN_LEVEL_LOW);	// set to low level
  40119e:	2100      	movs	r1, #0
  4011a0:	68b8      	ldr	r0, [r7, #8]
  4011a2:	4b10      	ldr	r3, [pc, #64]	; (4011e4 <ext_int_handler+0x60>)
  4011a4:	4798      	blx	r3
	ioport_set_pin_dir(gpio_pin, IOPORT_DIR_OUTPUT);		// set pin direction as output
  4011a6:	2101      	movs	r1, #1
  4011a8:	68b8      	ldr	r0, [r7, #8]
  4011aa:	4b0f      	ldr	r3, [pc, #60]	; (4011e8 <ext_int_handler+0x64>)
  4011ac:	4798      	blx	r3
	pio_disable_interrupt(PIN_EXT_INTERRUPT_PIO, chirp_pin_io_irq[sensor_id]); // disable interrupt
  4011ae:	4a0f      	ldr	r2, [pc, #60]	; (4011ec <ext_int_handler+0x68>)
  4011b0:	687b      	ldr	r3, [r7, #4]
  4011b2:	f852 3023 	ldr.w	r3, [r2, r3, lsl #2]
  4011b6:	4619      	mov	r1, r3
  4011b8:	480d      	ldr	r0, [pc, #52]	; (4011f0 <ext_int_handler+0x6c>)
  4011ba:	4b0e      	ldr	r3, [pc, #56]	; (4011f4 <ext_int_handler+0x70>)
  4011bc:	4798      	blx	r3

	if (func_ptr != NULL) {
  4011be:	68fb      	ldr	r3, [r7, #12]
  4011c0:	2b00      	cmp	r3, #0
  4011c2:	d006      	beq.n	4011d2 <ext_int_handler+0x4e>
		// Call application callback function - pass I/O index to identify interrupting device
		(*func_ptr)(sensor_group_ptr, sensor_id);
  4011c4:	4b05      	ldr	r3, [pc, #20]	; (4011dc <ext_int_handler+0x58>)
  4011c6:	681a      	ldr	r2, [r3, #0]
  4011c8:	687b      	ldr	r3, [r7, #4]
  4011ca:	b2d9      	uxtb	r1, r3
  4011cc:	68fb      	ldr	r3, [r7, #12]
  4011ce:	4610      	mov	r0, r2
  4011d0:	4798      	blx	r3
	}
}
  4011d2:	bf00      	nop
  4011d4:	3710      	adds	r7, #16
  4011d6:	46bd      	mov	sp, r7
  4011d8:	bd80      	pop	{r7, pc}
  4011da:	bf00      	nop
  4011dc:	200008f4 	.word	0x200008f4
  4011e0:	20000130 	.word	0x20000130
  4011e4:	00401081 	.word	0x00401081
  4011e8:	00400ff9 	.word	0x00400ff9
  4011ec:	20000140 	.word	0x20000140
  4011f0:	400e0e00 	.word	0x400e0e00
  4011f4:	00403d6d 	.word	0x00403d6d

004011f8 <FLEXCOM1_Handler>:

void FLEXCOM1_Handler(void)
{
  4011f8:	b580      	push	{r7, lr}
  4011fa:	af00      	add	r7, sp, #0
	flexcom_handler(1);			// call local handler with index value
  4011fc:	2001      	movs	r0, #1
  4011fe:	4b02      	ldr	r3, [pc, #8]	; (401208 <FLEXCOM1_Handler+0x10>)
  401200:	4798      	blx	r3
}
  401202:	bf00      	nop
  401204:	bd80      	pop	{r7, pc}
  401206:	bf00      	nop
  401208:	00401221 	.word	0x00401221

0040120c <FLEXCOM3_Handler>:

void FLEXCOM3_Handler(void)
{
  40120c:	b580      	push	{r7, lr}
  40120e:	af00      	add	r7, sp, #0
	flexcom_handler(3);			// call local handler with index value
  401210:	2003      	movs	r0, #3
  401212:	4b02      	ldr	r3, [pc, #8]	; (40121c <FLEXCOM3_Handler+0x10>)
  401214:	4798      	blx	r3
}
  401216:	bf00      	nop
  401218:	bd80      	pop	{r7, pc}
  40121a:	bf00      	nop
  40121c:	00401221 	.word	0x00401221

00401220 <flexcom_handler>:


void flexcom_handler(uint8_t port_index) {
  401220:	b580      	push	{r7, lr}
  401222:	b08a      	sub	sp, #40	; 0x28
  401224:	af00      	add	r7, sp, #0
  401226:	4603      	mov	r3, r0
  401228:	71fb      	strb	r3, [r7, #7]
	Twi *twi_ptr;
	Pdc *pdc_ptr;
	uint8_t *buf_ptr;
	uint32_t num_bytes;
	uint8_t	 bus_index = 0;
  40122a:	2300      	movs	r3, #0
  40122c:	f887 3023 	strb.w	r3, [r7, #35]	; 0x23
	uint32_t twi_status;
	uint32_t timeout_count = 0;
  401230:	2300      	movs	r3, #0
  401232:	61fb      	str	r3, [r7, #28]
	uint8_t error = 0;
  401234:	2300      	movs	r3, #0
  401236:	76fb      	strb	r3, [r7, #27]

	if (port_index == 1) {
  401238:	79fb      	ldrb	r3, [r7, #7]
  40123a:	2b01      	cmp	r3, #1
  40123c:	d105      	bne.n	40124a <flexcom_handler+0x2a>
		twi_ptr = BOARD_BASE_TWI1;
  40123e:	4b4b      	ldr	r3, [pc, #300]	; (40136c <flexcom_handler+0x14c>)
  401240:	627b      	str	r3, [r7, #36]	; 0x24
		bus_index = 0;
  401242:	2300      	movs	r3, #0
  401244:	f887 3023 	strb.w	r3, [r7, #35]	; 0x23
  401248:	e00b      	b.n	401262 <flexcom_handler+0x42>
	} else if (port_index == 3) {
  40124a:	79fb      	ldrb	r3, [r7, #7]
  40124c:	2b03      	cmp	r3, #3
  40124e:	d105      	bne.n	40125c <flexcom_handler+0x3c>
		twi_ptr = BOARD_BASE_TWI3;
  401250:	4b47      	ldr	r3, [pc, #284]	; (401370 <flexcom_handler+0x150>)
  401252:	627b      	str	r3, [r7, #36]	; 0x24
		bus_index = 1;
  401254:	2301      	movs	r3, #1
  401256:	f887 3023 	strb.w	r3, [r7, #35]	; 0x23
  40125a:	e002      	b.n	401262 <flexcom_handler+0x42>
	} else {
		error = 1;		// bad port index
  40125c:	2301      	movs	r3, #1
  40125e:	76fb      	strb	r3, [r7, #27]
		return;
  401260:	e080      	b.n	401364 <flexcom_handler+0x144>
	}

	pdc_ptr   = twi_get_pdc_base(twi_ptr);
  401262:	6a78      	ldr	r0, [r7, #36]	; 0x24
  401264:	4b43      	ldr	r3, [pc, #268]	; (401374 <flexcom_handler+0x154>)
  401266:	4798      	blx	r3
  401268:	6178      	str	r0, [r7, #20]
	buf_ptr   = i2c_nb_transactions[bus_index].buf_ptr;
  40126a:	f897 3023 	ldrb.w	r3, [r7, #35]	; 0x23
  40126e:	4a42      	ldr	r2, [pc, #264]	; (401378 <flexcom_handler+0x158>)
  401270:	f852 3033 	ldr.w	r3, [r2, r3, lsl #3]
  401274:	613b      	str	r3, [r7, #16]
	num_bytes = i2c_nb_transactions[bus_index].num_bytes;
  401276:	f897 3023 	ldrb.w	r3, [r7, #35]	; 0x23
  40127a:	4a3f      	ldr	r2, [pc, #252]	; (401378 <flexcom_handler+0x158>)
  40127c:	00db      	lsls	r3, r3, #3
  40127e:	4413      	add	r3, r2
  401280:	889b      	ldrh	r3, [r3, #4]
  401282:	60fb      	str	r3, [r7, #12]

	twi_status = twi_get_interrupt_status(twi_ptr);
  401284:	6a78      	ldr	r0, [r7, #36]	; 0x24
  401286:	4b3d      	ldr	r3, [pc, #244]	; (40137c <flexcom_handler+0x15c>)
  401288:	4798      	blx	r3
  40128a:	60b8      	str	r0, [r7, #8]
	twi_status &= twi_get_interrupt_mask(twi_ptr);
  40128c:	6a78      	ldr	r0, [r7, #36]	; 0x24
  40128e:	4b3c      	ldr	r3, [pc, #240]	; (401380 <flexcom_handler+0x160>)
  401290:	4798      	blx	r3
  401292:	4602      	mov	r2, r0
  401294:	68bb      	ldr	r3, [r7, #8]
  401296:	4013      	ands	r3, r2
  401298:	60bb      	str	r3, [r7, #8]


	if ((!error) && (twi_status & TWI_SR_ENDRX))  {
  40129a:	7efb      	ldrb	r3, [r7, #27]
  40129c:	2b00      	cmp	r3, #0
  40129e:	d161      	bne.n	401364 <flexcom_handler+0x144>
  4012a0:	68bb      	ldr	r3, [r7, #8]
  4012a2:	f403 5380 	and.w	r3, r3, #4096	; 0x1000
  4012a6:	2b00      	cmp	r3, #0
  4012a8:	d05c      	beq.n	401364 <flexcom_handler+0x144>
		/* Disable the RX PDC transfer requests */
		pdc_disable_transfer(pdc_ptr, PERIPH_PTCR_RXTDIS);
  4012aa:	2102      	movs	r1, #2
  4012ac:	6978      	ldr	r0, [r7, #20]
  4012ae:	4b35      	ldr	r3, [pc, #212]	; (401384 <flexcom_handler+0x164>)
  4012b0:	4798      	blx	r3

		/* Disable TWI interrupts */
		twi_disable_interrupt(twi_ptr, TWI_SR_ENDRX);
  4012b2:	f44f 5180 	mov.w	r1, #4096	; 0x1000
  4012b6:	6a78      	ldr	r0, [r7, #36]	; 0x24
  4012b8:	4b33      	ldr	r3, [pc, #204]	; (401388 <flexcom_handler+0x168>)
  4012ba:	4798      	blx	r3

		/* Wait for next-to-last byte to be read */
		timeout_count = 0;
  4012bc:	2300      	movs	r3, #0
  4012be:	61fb      	str	r3, [r7, #28]
		while ((twi_ptr->TWI_SR & TWI_SR_RXRDY) == 0) {
  4012c0:	e007      	b.n	4012d2 <flexcom_handler+0xb2>
			if (++timeout_count >= I2C_TIMEOUT_COUNT) {
  4012c2:	69fb      	ldr	r3, [r7, #28]
  4012c4:	3301      	adds	r3, #1
  4012c6:	61fb      	str	r3, [r7, #28]
  4012c8:	69fb      	ldr	r3, [r7, #28]
  4012ca:	f242 720f 	movw	r2, #9999	; 0x270f
  4012ce:	4293      	cmp	r3, r2
  4012d0:	d806      	bhi.n	4012e0 <flexcom_handler+0xc0>
		while ((twi_ptr->TWI_SR & TWI_SR_RXRDY) == 0) {
  4012d2:	6a7b      	ldr	r3, [r7, #36]	; 0x24
  4012d4:	6a1b      	ldr	r3, [r3, #32]
  4012d6:	f003 0302 	and.w	r3, r3, #2
  4012da:	2b00      	cmp	r3, #0
  4012dc:	d0f1      	beq.n	4012c2 <flexcom_handler+0xa2>
  4012de:	e000      	b.n	4012e2 <flexcom_handler+0xc2>
				break;
  4012e0:	bf00      	nop
			}
		}

		/* Set stop command */
		twi_ptr->TWI_CR = TWI_CR_STOP;
  4012e2:	6a7b      	ldr	r3, [r7, #36]	; 0x24
  4012e4:	2202      	movs	r2, #2
  4012e6:	601a      	str	r2, [r3, #0]

		buf_ptr[num_bytes-2] = twi_ptr->TWI_RHR;
  4012e8:	68fb      	ldr	r3, [r7, #12]
  4012ea:	3b02      	subs	r3, #2
  4012ec:	693a      	ldr	r2, [r7, #16]
  4012ee:	4413      	add	r3, r2
  4012f0:	6a7a      	ldr	r2, [r7, #36]	; 0x24
  4012f2:	6b12      	ldr	r2, [r2, #48]	; 0x30
  4012f4:	b2d2      	uxtb	r2, r2
  4012f6:	701a      	strb	r2, [r3, #0]

		/* Wait for last byte to be read */
		timeout_count = 0;
  4012f8:	2300      	movs	r3, #0
  4012fa:	61fb      	str	r3, [r7, #28]
		while ((twi_ptr->TWI_SR & TWI_SR_RXRDY) == 0) {
  4012fc:	e007      	b.n	40130e <flexcom_handler+0xee>
			if (++timeout_count >= I2C_TIMEOUT_COUNT) {
  4012fe:	69fb      	ldr	r3, [r7, #28]
  401300:	3301      	adds	r3, #1
  401302:	61fb      	str	r3, [r7, #28]
  401304:	69fb      	ldr	r3, [r7, #28]
  401306:	f242 720f 	movw	r2, #9999	; 0x270f
  40130a:	4293      	cmp	r3, r2
  40130c:	d806      	bhi.n	40131c <flexcom_handler+0xfc>
		while ((twi_ptr->TWI_SR & TWI_SR_RXRDY) == 0) {
  40130e:	6a7b      	ldr	r3, [r7, #36]	; 0x24
  401310:	6a1b      	ldr	r3, [r3, #32]
  401312:	f003 0302 	and.w	r3, r3, #2
  401316:	2b00      	cmp	r3, #0
  401318:	d0f1      	beq.n	4012fe <flexcom_handler+0xde>
  40131a:	e000      	b.n	40131e <flexcom_handler+0xfe>
				break;
  40131c:	bf00      	nop
			}
		}

		buf_ptr[num_bytes-1] = twi_ptr->TWI_RHR;
  40131e:	68fb      	ldr	r3, [r7, #12]
  401320:	3b01      	subs	r3, #1
  401322:	693a      	ldr	r2, [r7, #16]
  401324:	4413      	add	r3, r2
  401326:	6a7a      	ldr	r2, [r7, #36]	; 0x24
  401328:	6b12      	ldr	r2, [r2, #48]	; 0x30
  40132a:	b2d2      	uxtb	r2, r2
  40132c:	701a      	strb	r2, [r3, #0]

		/* Wait for transfer to complete */
		timeout_count = 0;
  40132e:	2300      	movs	r3, #0
  401330:	61fb      	str	r3, [r7, #28]
		while ((twi_ptr->TWI_SR & TWI_SR_TXCOMP) == 0) {
  401332:	e007      	b.n	401344 <flexcom_handler+0x124>
			if (++timeout_count >= I2C_TIMEOUT_COUNT) {
  401334:	69fb      	ldr	r3, [r7, #28]
  401336:	3301      	adds	r3, #1
  401338:	61fb      	str	r3, [r7, #28]
  40133a:	69fb      	ldr	r3, [r7, #28]
  40133c:	f242 720f 	movw	r2, #9999	; 0x270f
  401340:	4293      	cmp	r3, r2
  401342:	d806      	bhi.n	401352 <flexcom_handler+0x132>
		while ((twi_ptr->TWI_SR & TWI_SR_TXCOMP) == 0) {
  401344:	6a7b      	ldr	r3, [r7, #36]	; 0x24
  401346:	6a1b      	ldr	r3, [r3, #32]
  401348:	f003 0301 	and.w	r3, r3, #1
  40134c:	2b00      	cmp	r3, #0
  40134e:	d0f1      	beq.n	401334 <flexcom_handler+0x114>
  401350:	e000      	b.n	401354 <flexcom_handler+0x134>
				break;
  401352:	bf00      	nop
			}
		}

		/* Notify sensor driver that this transaction is complete */
		ch_io_notify(sensor_group_ptr, bus_index);
  401354:	4b0d      	ldr	r3, [pc, #52]	; (40138c <flexcom_handler+0x16c>)
  401356:	681b      	ldr	r3, [r3, #0]
  401358:	f897 2023 	ldrb.w	r2, [r7, #35]	; 0x23
  40135c:	4611      	mov	r1, r2
  40135e:	4618      	mov	r0, r3
  401360:	4b0b      	ldr	r3, [pc, #44]	; (401390 <flexcom_handler+0x170>)
  401362:	4798      	blx	r3
	}

}
  401364:	3728      	adds	r7, #40	; 0x28
  401366:	46bd      	mov	sp, r7
  401368:	bd80      	pop	{r7, pc}
  40136a:	bf00      	nop
  40136c:	40020600 	.word	0x40020600
  401370:	40018600 	.word	0x40018600
  401374:	00404eb9 	.word	0x00404eb9
  401378:	200008e4 	.word	0x200008e4
  40137c:	00404e69 	.word	0x00404e69
  401380:	00404e81 	.word	0x00404e81
  401384:	00403a25 	.word	0x00403a25
  401388:	00404e49 	.word	0x00404e49
  40138c:	200008f4 	.word	0x200008f4
  401390:	00405e81 	.word	0x00405e81

00401394 <RTT_Handler>:


void RTT_Handler(void) {
  401394:	b580      	push	{r7, lr}
  401396:	af00      	add	r7, sp, #0

	/* Get RTT status */
	rtt_get_status(RTT);
  401398:	4802      	ldr	r0, [pc, #8]	; (4013a4 <RTT_Handler+0x10>)
  40139a:	4b03      	ldr	r3, [pc, #12]	; (4013a8 <RTT_Handler+0x14>)
  40139c:	4798      	blx	r3
}
  40139e:	bf00      	nop
  4013a0:	bd80      	pop	{r7, pc}
  4013a2:	bf00      	nop
  4013a4:	400e1430 	.word	0x400e1430
  4013a8:	00404929 	.word	0x00404929

004013ac <TC0_Handler>:

/* Interrupt handler for TC0/Channel0 peripheral */
void TC0_Handler(void)
{
  4013ac:	b580      	push	{r7, lr}
  4013ae:	af00      	add	r7, sp, #0
	/* This handles the case of counter overflow on TC_CHANNEL_LSEPOCH and clears the status register */
	time_get_in_us();
  4013b0:	4b01      	ldr	r3, [pc, #4]	; (4013b8 <TC0_Handler+0xc>)
  4013b2:	4798      	blx	r3
}
  4013b4:	bf00      	nop
  4013b6:	bd80      	pop	{r7, pc}
  4013b8:	00400a29 	.word	0x00400a29

004013bc <TC1_Handler>:

/* Interrupt handler for TC0/Channel1 peripheral */
void TC1_Handler(void)
{
  4013bc:	b580      	push	{r7, lr}
  4013be:	b082      	sub	sp, #8
  4013c0:	af00      	add	r7, sp, #0
	uint32_t status = tc_get_status(TC0, TC_CHANNEL_US);
  4013c2:	2101      	movs	r1, #1
  4013c4:	480a      	ldr	r0, [pc, #40]	; (4013f0 <TC1_Handler+0x34>)
  4013c6:	4b0b      	ldr	r3, [pc, #44]	; (4013f4 <TC1_Handler+0x38>)
  4013c8:	4798      	blx	r3
  4013ca:	6078      	str	r0, [r7, #4]
	uint32_t int_mask = tc_get_interrupt_mask(TC0, TC_CHANNEL_US);
  4013cc:	2101      	movs	r1, #1
  4013ce:	4808      	ldr	r0, [pc, #32]	; (4013f0 <TC1_Handler+0x34>)
  4013d0:	4b09      	ldr	r3, [pc, #36]	; (4013f8 <TC1_Handler+0x3c>)
  4013d2:	4798      	blx	r3
  4013d4:	6038      	str	r0, [r7, #0]

	if (status & (int_mask & TC_IMR_CPCS)) {
  4013d6:	683a      	ldr	r2, [r7, #0]
  4013d8:	687b      	ldr	r3, [r7, #4]
  4013da:	4013      	ands	r3, r2
  4013dc:	f003 0310 	and.w	r3, r3, #16
  4013e0:	2b00      	cmp	r3, #0
  4013e2:	d001      	beq.n	4013e8 <TC1_Handler+0x2c>
		chbsp_periodic_timer_handler();
  4013e4:	4b05      	ldr	r3, [pc, #20]	; (4013fc <TC1_Handler+0x40>)
  4013e6:	4798      	blx	r3
	}
}
  4013e8:	bf00      	nop
  4013ea:	3708      	adds	r7, #8
  4013ec:	46bd      	mov	sp, r7
  4013ee:	bd80      	pop	{r7, pc}
  4013f0:	40010000 	.word	0x40010000
  4013f4:	00404a47 	.word	0x00404a47
  4013f8:	00404a23 	.word	0x00404a23
  4013fc:	00402e4d 	.word	0x00402e4d

00401400 <sensor_led_on>:

void sensor_led_on(uint32_t chirp_led_pin) {
  401400:	b580      	push	{r7, lr}
  401402:	b082      	sub	sp, #8
  401404:	af00      	add	r7, sp, #0
  401406:	6078      	str	r0, [r7, #4]
	ioport_set_pin_dir(chirp_led_pin, IOPORT_DIR_OUTPUT);
  401408:	2101      	movs	r1, #1
  40140a:	6878      	ldr	r0, [r7, #4]
  40140c:	4b04      	ldr	r3, [pc, #16]	; (401420 <sensor_led_on+0x20>)
  40140e:	4798      	blx	r3
	ioport_set_pin_level(chirp_led_pin, IOPORT_PIN_LEVEL_LOW);
  401410:	2100      	movs	r1, #0
  401412:	6878      	ldr	r0, [r7, #4]
  401414:	4b03      	ldr	r3, [pc, #12]	; (401424 <sensor_led_on+0x24>)
  401416:	4798      	blx	r3
}
  401418:	bf00      	nop
  40141a:	3708      	adds	r7, #8
  40141c:	46bd      	mov	sp, r7
  40141e:	bd80      	pop	{r7, pc}
  401420:	00400ff9 	.word	0x00400ff9
  401424:	00401081 	.word	0x00401081

00401428 <indicate_alive>:
void sensor_led_toggle(uint32_t chirp_led_pin)
{
	ioport_toggle_pin_level(chirp_led_pin);
}

void indicate_alive(void) {
  401428:	e92d 4ff8 	stmdb	sp!, {r3, r4, r5, r6, r7, r8, r9, sl, fp, lr}
  40142c:	af00      	add	r7, sp, #0
	ioport_set_pin_dir(CHIRP_OK_0, IOPORT_DIR_OUTPUT); //CHIRP_OK_0=output
  40142e:	2101      	movs	r1, #1
  401430:	2000      	movs	r0, #0
  401432:	4b35      	ldr	r3, [pc, #212]	; (401508 <indicate_alive+0xe0>)
  401434:	4798      	blx	r3
	ioport_set_pin_dir(CHIRP_OK_1, IOPORT_DIR_OUTPUT);
  401436:	2101      	movs	r1, #1
  401438:	2001      	movs	r0, #1
  40143a:	4b33      	ldr	r3, [pc, #204]	; (401508 <indicate_alive+0xe0>)
  40143c:	4798      	blx	r3
	ioport_set_pin_dir(CHIRP_OK_2, IOPORT_DIR_OUTPUT);
  40143e:	2101      	movs	r1, #1
  401440:	2005      	movs	r0, #5
  401442:	4b31      	ldr	r3, [pc, #196]	; (401508 <indicate_alive+0xe0>)
  401444:	4798      	blx	r3
	ioport_set_pin_dir(CHIRP_OK_3, IOPORT_DIR_OUTPUT);
  401446:	2101      	movs	r1, #1
  401448:	202f      	movs	r0, #47	; 0x2f
  40144a:	4b2f      	ldr	r3, [pc, #188]	; (401508 <indicate_alive+0xe0>)
  40144c:	4798      	blx	r3

	ioport_set_pin_level(CHIRP_OK_0, IOPORT_PIN_LEVEL_LOW); //CHIRP_OK_0=L LED=on
  40144e:	2100      	movs	r1, #0
  401450:	2000      	movs	r0, #0
  401452:	4b2e      	ldr	r3, [pc, #184]	; (40150c <indicate_alive+0xe4>)
  401454:	4798      	blx	r3
	ioport_set_pin_level(CHIRP_OK_1, IOPORT_PIN_LEVEL_LOW);
  401456:	2100      	movs	r1, #0
  401458:	2001      	movs	r0, #1
  40145a:	4b2c      	ldr	r3, [pc, #176]	; (40150c <indicate_alive+0xe4>)
  40145c:	4798      	blx	r3
	ioport_set_pin_level(CHIRP_OK_2, IOPORT_PIN_LEVEL_LOW);
  40145e:	2100      	movs	r1, #0
  401460:	2005      	movs	r0, #5
  401462:	4b2a      	ldr	r3, [pc, #168]	; (40150c <indicate_alive+0xe4>)
  401464:	4798      	blx	r3
	ioport_set_pin_level(CHIRP_OK_3, IOPORT_PIN_LEVEL_LOW);
  401466:	2100      	movs	r1, #0
  401468:	202f      	movs	r0, #47	; 0x2f
  40146a:	4b28      	ldr	r3, [pc, #160]	; (40150c <indicate_alive+0xe4>)
  40146c:	4798      	blx	r3

	delay_s(1);		//light up for 1s
  40146e:	4b28      	ldr	r3, [pc, #160]	; (401510 <indicate_alive+0xe8>)
  401470:	4798      	blx	r3
  401472:	4603      	mov	r3, r0
  401474:	4619      	mov	r1, r3
  401476:	f04f 0200 	mov.w	r2, #0
  40147a:	460b      	mov	r3, r1
  40147c:	4614      	mov	r4, r2
  40147e:	ea4f 1b44 	mov.w	fp, r4, lsl #5
  401482:	ea4b 6bd3 	orr.w	fp, fp, r3, lsr #27
  401486:	ea4f 1a43 	mov.w	sl, r3, lsl #5
  40148a:	4653      	mov	r3, sl
  40148c:	465c      	mov	r4, fp
  40148e:	1a5b      	subs	r3, r3, r1
  401490:	eb64 0402 	sbc.w	r4, r4, r2
  401494:	ea4f 0984 	mov.w	r9, r4, lsl #2
  401498:	ea49 7993 	orr.w	r9, r9, r3, lsr #30
  40149c:	ea4f 0883 	mov.w	r8, r3, lsl #2
  4014a0:	4643      	mov	r3, r8
  4014a2:	464c      	mov	r4, r9
  4014a4:	185b      	adds	r3, r3, r1
  4014a6:	eb44 0402 	adc.w	r4, r4, r2
  4014aa:	00e6      	lsls	r6, r4, #3
  4014ac:	ea46 7653 	orr.w	r6, r6, r3, lsr #29
  4014b0:	00dd      	lsls	r5, r3, #3
  4014b2:	462b      	mov	r3, r5
  4014b4:	4634      	mov	r4, r6
  4014b6:	4619      	mov	r1, r3
  4014b8:	4622      	mov	r2, r4
  4014ba:	f243 63af 	movw	r3, #13999	; 0x36af
  4014be:	f04f 0400 	mov.w	r4, #0
  4014c2:	18cd      	adds	r5, r1, r3
  4014c4:	eb42 0604 	adc.w	r6, r2, r4
  4014c8:	4628      	mov	r0, r5
  4014ca:	4631      	mov	r1, r6
  4014cc:	4c11      	ldr	r4, [pc, #68]	; (401514 <indicate_alive+0xec>)
  4014ce:	f243 62b0 	movw	r2, #14000	; 0x36b0
  4014d2:	f04f 0300 	mov.w	r3, #0
  4014d6:	47a0      	blx	r4
  4014d8:	4603      	mov	r3, r0
  4014da:	460c      	mov	r4, r1
  4014dc:	4618      	mov	r0, r3
  4014de:	4b0e      	ldr	r3, [pc, #56]	; (401518 <indicate_alive+0xf0>)
  4014e0:	4798      	blx	r3

	ioport_set_pin_level(CHIRP_OK_0, IOPORT_PIN_LEVEL_HIGH); //CHIRP_OK_0=H LED=off
  4014e2:	2101      	movs	r1, #1
  4014e4:	2000      	movs	r0, #0
  4014e6:	4b09      	ldr	r3, [pc, #36]	; (40150c <indicate_alive+0xe4>)
  4014e8:	4798      	blx	r3
	ioport_set_pin_level(CHIRP_OK_1, IOPORT_PIN_LEVEL_HIGH);
  4014ea:	2101      	movs	r1, #1
  4014ec:	2001      	movs	r0, #1
  4014ee:	4b07      	ldr	r3, [pc, #28]	; (40150c <indicate_alive+0xe4>)
  4014f0:	4798      	blx	r3
	ioport_set_pin_level(CHIRP_OK_2, IOPORT_PIN_LEVEL_HIGH);
  4014f2:	2101      	movs	r1, #1
  4014f4:	2005      	movs	r0, #5
  4014f6:	4b05      	ldr	r3, [pc, #20]	; (40150c <indicate_alive+0xe4>)
  4014f8:	4798      	blx	r3
	ioport_set_pin_level(CHIRP_OK_3, IOPORT_PIN_LEVEL_HIGH);
  4014fa:	2101      	movs	r1, #1
  4014fc:	202f      	movs	r0, #47	; 0x2f
  4014fe:	4b03      	ldr	r3, [pc, #12]	; (40150c <indicate_alive+0xe4>)
  401500:	4798      	blx	r3
}
  401502:	bf00      	nop
  401504:	e8bd 8ff8 	ldmia.w	sp!, {r3, r4, r5, r6, r7, r8, r9, sl, fp, pc}
  401508:	00400ff9 	.word	0x00400ff9
  40150c:	00401081 	.word	0x00401081
  401510:	00400fe5 	.word	0x00400fe5
  401514:	0040c0ed 	.word	0x0040c0ed
  401518:	20000001 	.word	0x20000001

0040151c <NVIC_EnableIRQ>:
    The function enables a device-specific interrupt in the NVIC interrupt controller.

    \param [in]      IRQn  External interrupt number. Value cannot be negative.
 */
__STATIC_INLINE void NVIC_EnableIRQ(IRQn_Type IRQn)
{
  40151c:	b480      	push	{r7}
  40151e:	b083      	sub	sp, #12
  401520:	af00      	add	r7, sp, #0
  401522:	4603      	mov	r3, r0
  401524:	71fb      	strb	r3, [r7, #7]
/*  NVIC->ISER[((uint32_t)(IRQn) >> 5)] = (1 << ((uint32_t)(IRQn) & 0x1F));  enable interrupt */
  NVIC->ISER[(uint32_t)((int32_t)IRQn) >> 5] = (uint32_t)(1 << ((uint32_t)((int32_t)IRQn) & (uint32_t)0x1F)); /* enable interrupt */
  401526:	4909      	ldr	r1, [pc, #36]	; (40154c <NVIC_EnableIRQ+0x30>)
  401528:	f997 3007 	ldrsb.w	r3, [r7, #7]
  40152c:	095b      	lsrs	r3, r3, #5
  40152e:	79fa      	ldrb	r2, [r7, #7]
  401530:	f002 021f 	and.w	r2, r2, #31
  401534:	2001      	movs	r0, #1
  401536:	fa00 f202 	lsl.w	r2, r0, r2
  40153a:	f841 2023 	str.w	r2, [r1, r3, lsl #2]
}
  40153e:	bf00      	nop
  401540:	370c      	adds	r7, #12
  401542:	46bd      	mov	sp, r7
  401544:	f85d 7b04 	ldr.w	r7, [sp], #4
  401548:	4770      	bx	lr
  40154a:	bf00      	nop
  40154c:	e000e100 	.word	0xe000e100

00401550 <NVIC_DisableIRQ>:
    The function disables a device-specific interrupt in the NVIC interrupt controller.

    \param [in]      IRQn  External interrupt number. Value cannot be negative.
 */
__STATIC_INLINE void NVIC_DisableIRQ(IRQn_Type IRQn)
{
  401550:	b480      	push	{r7}
  401552:	b083      	sub	sp, #12
  401554:	af00      	add	r7, sp, #0
  401556:	4603      	mov	r3, r0
  401558:	71fb      	strb	r3, [r7, #7]
  NVIC->ICER[((uint32_t)(IRQn) >> 5)] = (1 << ((uint32_t)(IRQn) & 0x1F)); /* disable interrupt */
  40155a:	4909      	ldr	r1, [pc, #36]	; (401580 <NVIC_DisableIRQ+0x30>)
  40155c:	f997 3007 	ldrsb.w	r3, [r7, #7]
  401560:	095b      	lsrs	r3, r3, #5
  401562:	79fa      	ldrb	r2, [r7, #7]
  401564:	f002 021f 	and.w	r2, r2, #31
  401568:	2001      	movs	r0, #1
  40156a:	fa00 f202 	lsl.w	r2, r0, r2
  40156e:	3320      	adds	r3, #32
  401570:	f841 2023 	str.w	r2, [r1, r3, lsl #2]
}
  401574:	bf00      	nop
  401576:	370c      	adds	r7, #12
  401578:	46bd      	mov	sp, r7
  40157a:	f85d 7b04 	ldr.w	r7, [sp], #4
  40157e:	4770      	bx	lr
  401580:	e000e100 	.word	0xe000e100

00401584 <NVIC_ClearPendingIRQ>:
    The function clears the pending bit of an external interrupt.

    \param [in]      IRQn  External interrupt number. Value cannot be negative.
 */
__STATIC_INLINE void NVIC_ClearPendingIRQ(IRQn_Type IRQn)
{
  401584:	b480      	push	{r7}
  401586:	b083      	sub	sp, #12
  401588:	af00      	add	r7, sp, #0
  40158a:	4603      	mov	r3, r0
  40158c:	71fb      	strb	r3, [r7, #7]
  NVIC->ICPR[((uint32_t)(IRQn) >> 5)] = (1 << ((uint32_t)(IRQn) & 0x1F)); /* Clear pending interrupt */
  40158e:	4909      	ldr	r1, [pc, #36]	; (4015b4 <NVIC_ClearPendingIRQ+0x30>)
  401590:	f997 3007 	ldrsb.w	r3, [r7, #7]
  401594:	095b      	lsrs	r3, r3, #5
  401596:	79fa      	ldrb	r2, [r7, #7]
  401598:	f002 021f 	and.w	r2, r2, #31
  40159c:	2001      	movs	r0, #1
  40159e:	fa00 f202 	lsl.w	r2, r0, r2
  4015a2:	3360      	adds	r3, #96	; 0x60
  4015a4:	f841 2023 	str.w	r2, [r1, r3, lsl #2]
}
  4015a8:	bf00      	nop
  4015aa:	370c      	adds	r7, #12
  4015ac:	46bd      	mov	sp, r7
  4015ae:	f85d 7b04 	ldr.w	r7, [sp], #4
  4015b2:	4770      	bx	lr
  4015b4:	e000e100 	.word	0xe000e100

004015b8 <NVIC_SetPriority>:

    \param [in]      IRQn  Interrupt number.
    \param [in]  priority  Priority to set.
 */
__STATIC_INLINE void NVIC_SetPriority(IRQn_Type IRQn, uint32_t priority)
{
  4015b8:	b480      	push	{r7}
  4015ba:	b083      	sub	sp, #12
  4015bc:	af00      	add	r7, sp, #0
  4015be:	4603      	mov	r3, r0
  4015c0:	6039      	str	r1, [r7, #0]
  4015c2:	71fb      	strb	r3, [r7, #7]
  if(IRQn < 0) {
  4015c4:	f997 3007 	ldrsb.w	r3, [r7, #7]
  4015c8:	2b00      	cmp	r3, #0
  4015ca:	da0b      	bge.n	4015e4 <NVIC_SetPriority+0x2c>
    SCB->SHP[((uint32_t)(IRQn) & 0xF)-4] = ((priority << (8 - __NVIC_PRIO_BITS)) & 0xff); } /* set Priority for Cortex-M  System Interrupts */
  4015cc:	490d      	ldr	r1, [pc, #52]	; (401604 <NVIC_SetPriority+0x4c>)
  4015ce:	79fb      	ldrb	r3, [r7, #7]
  4015d0:	f003 030f 	and.w	r3, r3, #15
  4015d4:	3b04      	subs	r3, #4
  4015d6:	683a      	ldr	r2, [r7, #0]
  4015d8:	b2d2      	uxtb	r2, r2
  4015da:	0112      	lsls	r2, r2, #4
  4015dc:	b2d2      	uxtb	r2, r2
  4015de:	440b      	add	r3, r1
  4015e0:	761a      	strb	r2, [r3, #24]
  else {
    NVIC->IP[(uint32_t)(IRQn)] = ((priority << (8 - __NVIC_PRIO_BITS)) & 0xff);    }        /* set Priority for device specific Interrupts  */
}
  4015e2:	e009      	b.n	4015f8 <NVIC_SetPriority+0x40>
    NVIC->IP[(uint32_t)(IRQn)] = ((priority << (8 - __NVIC_PRIO_BITS)) & 0xff);    }        /* set Priority for device specific Interrupts  */
  4015e4:	4908      	ldr	r1, [pc, #32]	; (401608 <NVIC_SetPriority+0x50>)
  4015e6:	f997 3007 	ldrsb.w	r3, [r7, #7]
  4015ea:	683a      	ldr	r2, [r7, #0]
  4015ec:	b2d2      	uxtb	r2, r2
  4015ee:	0112      	lsls	r2, r2, #4
  4015f0:	b2d2      	uxtb	r2, r2
  4015f2:	440b      	add	r3, r1
  4015f4:	f883 2300 	strb.w	r2, [r3, #768]	; 0x300
}
  4015f8:	bf00      	nop
  4015fa:	370c      	adds	r7, #12
  4015fc:	46bd      	mov	sp, r7
  4015fe:	f85d 7b04 	ldr.w	r7, [sp], #4
  401602:	4770      	bx	lr
  401604:	e000ed00 	.word	0xe000ed00
  401608:	e000e100 	.word	0xe000e100

0040160c <osc_get_rate>:
{
  40160c:	b480      	push	{r7}
  40160e:	b083      	sub	sp, #12
  401610:	af00      	add	r7, sp, #0
  401612:	6078      	str	r0, [r7, #4]
	switch (ul_id) {
  401614:	687b      	ldr	r3, [r7, #4]
  401616:	2b07      	cmp	r3, #7
  401618:	d825      	bhi.n	401666 <osc_get_rate+0x5a>
  40161a:	a201      	add	r2, pc, #4	; (adr r2, 401620 <osc_get_rate+0x14>)
  40161c:	f852 f023 	ldr.w	pc, [r2, r3, lsl #2]
  401620:	00401641 	.word	0x00401641
  401624:	00401647 	.word	0x00401647
  401628:	0040164d 	.word	0x0040164d
  40162c:	00401653 	.word	0x00401653
  401630:	00401657 	.word	0x00401657
  401634:	0040165b 	.word	0x0040165b
  401638:	0040165f 	.word	0x0040165f
  40163c:	00401663 	.word	0x00401663
		return OSC_SLCK_32K_RC_HZ;
  401640:	f44f 43fa 	mov.w	r3, #32000	; 0x7d00
  401644:	e010      	b.n	401668 <osc_get_rate+0x5c>
		return BOARD_FREQ_SLCK_XTAL;
  401646:	f44f 4300 	mov.w	r3, #32768	; 0x8000
  40164a:	e00d      	b.n	401668 <osc_get_rate+0x5c>
		return BOARD_FREQ_SLCK_BYPASS;
  40164c:	f44f 4300 	mov.w	r3, #32768	; 0x8000
  401650:	e00a      	b.n	401668 <osc_get_rate+0x5c>
		return OSC_MAINCK_8M_RC_HZ;
  401652:	4b08      	ldr	r3, [pc, #32]	; (401674 <osc_get_rate+0x68>)
  401654:	e008      	b.n	401668 <osc_get_rate+0x5c>
		return OSC_MAINCK_16M_RC_HZ;
  401656:	4b08      	ldr	r3, [pc, #32]	; (401678 <osc_get_rate+0x6c>)
  401658:	e006      	b.n	401668 <osc_get_rate+0x5c>
		return OSC_MAINCK_24M_RC_HZ;
  40165a:	4b08      	ldr	r3, [pc, #32]	; (40167c <osc_get_rate+0x70>)
  40165c:	e004      	b.n	401668 <osc_get_rate+0x5c>
		return BOARD_FREQ_MAINCK_XTAL;
  40165e:	2300      	movs	r3, #0
  401660:	e002      	b.n	401668 <osc_get_rate+0x5c>
		return BOARD_FREQ_MAINCK_BYPASS;
  401662:	2300      	movs	r3, #0
  401664:	e000      	b.n	401668 <osc_get_rate+0x5c>
	return 0;
  401666:	2300      	movs	r3, #0
}
  401668:	4618      	mov	r0, r3
  40166a:	370c      	adds	r7, #12
  40166c:	46bd      	mov	sp, r7
  40166e:	f85d 7b04 	ldr.w	r7, [sp], #4
  401672:	4770      	bx	lr
  401674:	007a1200 	.word	0x007a1200
  401678:	00f42400 	.word	0x00f42400
  40167c:	016e3600 	.word	0x016e3600

00401680 <sysclk_get_main_hz>:
{
  401680:	b580      	push	{r7, lr}
  401682:	af00      	add	r7, sp, #0
		return pll_get_default_rate(0);
  401684:	2001      	movs	r0, #1
  401686:	4b04      	ldr	r3, [pc, #16]	; (401698 <sysclk_get_main_hz+0x18>)
  401688:	4798      	blx	r3
  40168a:	4602      	mov	r2, r0
  40168c:	f640 634e 	movw	r3, #3662	; 0xe4e
  401690:	fb03 f302 	mul.w	r3, r3, r2
}
  401694:	4618      	mov	r0, r3
  401696:	bd80      	pop	{r7, pc}
  401698:	0040160d 	.word	0x0040160d

0040169c <sysclk_get_cpu_hz>:
{
  40169c:	b580      	push	{r7, lr}
  40169e:	af00      	add	r7, sp, #0
	return sysclk_get_main_hz() /
  4016a0:	4b02      	ldr	r3, [pc, #8]	; (4016ac <sysclk_get_cpu_hz+0x10>)
  4016a2:	4798      	blx	r3
  4016a4:	4603      	mov	r3, r0
}
  4016a6:	4618      	mov	r0, r3
  4016a8:	bd80      	pop	{r7, pc}
  4016aa:	bf00      	nop
  4016ac:	00401681 	.word	0x00401681

004016b0 <sysclk_enable_peripheral_clock>:
 * \brief Enable a peripheral's clock.
 *
 * \param ul_id Id (number) of the peripheral clock.
 */
static inline void sysclk_enable_peripheral_clock(uint32_t ul_id)
{
  4016b0:	b580      	push	{r7, lr}
  4016b2:	b082      	sub	sp, #8
  4016b4:	af00      	add	r7, sp, #0
  4016b6:	6078      	str	r0, [r7, #4]
	pmc_enable_periph_clk(ul_id);
  4016b8:	6878      	ldr	r0, [r7, #4]
  4016ba:	4b03      	ldr	r3, [pc, #12]	; (4016c8 <sysclk_enable_peripheral_clock+0x18>)
  4016bc:	4798      	blx	r3
}
  4016be:	bf00      	nop
  4016c0:	3708      	adds	r7, #8
  4016c2:	46bd      	mov	sp, r7
  4016c4:	bd80      	pop	{r7, pc}
  4016c6:	bf00      	nop
  4016c8:	0040436d 	.word	0x0040436d

004016cc <ioport_set_port_dir>:
{
  4016cc:	b480      	push	{r7}
  4016ce:	b08b      	sub	sp, #44	; 0x2c
  4016d0:	af00      	add	r7, sp, #0
  4016d2:	60f8      	str	r0, [r7, #12]
  4016d4:	60b9      	str	r1, [r7, #8]
  4016d6:	4613      	mov	r3, r2
  4016d8:	71fb      	strb	r3, [r7, #7]
  4016da:	68fb      	ldr	r3, [r7, #12]
  4016dc:	627b      	str	r3, [r7, #36]	; 0x24
  4016de:	68bb      	ldr	r3, [r7, #8]
  4016e0:	623b      	str	r3, [r7, #32]
  4016e2:	79fb      	ldrb	r3, [r7, #7]
  4016e4:	77fb      	strb	r3, [r7, #31]
  4016e6:	6a7b      	ldr	r3, [r7, #36]	; 0x24
  4016e8:	61bb      	str	r3, [r7, #24]
	return (Pio *)((uintptr_t)IOPORT_BASE_ADDRESS +
  4016ea:	69bb      	ldr	r3, [r7, #24]
  4016ec:	f503 1300 	add.w	r3, r3, #2097152	; 0x200000
  4016f0:	f203 7307 	addw	r3, r3, #1799	; 0x707
  4016f4:	025b      	lsls	r3, r3, #9
	Pio *base = arch_ioport_port_to_base(port);
  4016f6:	617b      	str	r3, [r7, #20]
	if (group_direction == IOPORT_DIR_OUTPUT) {
  4016f8:	7ffb      	ldrb	r3, [r7, #31]
  4016fa:	2b01      	cmp	r3, #1
  4016fc:	d103      	bne.n	401706 <ioport_set_port_dir+0x3a>
		base->PIO_OER = mask;
  4016fe:	697b      	ldr	r3, [r7, #20]
  401700:	6a3a      	ldr	r2, [r7, #32]
  401702:	611a      	str	r2, [r3, #16]
  401704:	e005      	b.n	401712 <ioport_set_port_dir+0x46>
	} else if (group_direction == IOPORT_DIR_INPUT) {
  401706:	7ffb      	ldrb	r3, [r7, #31]
  401708:	2b00      	cmp	r3, #0
  40170a:	d102      	bne.n	401712 <ioport_set_port_dir+0x46>
		base->PIO_ODR = mask;
  40170c:	697b      	ldr	r3, [r7, #20]
  40170e:	6a3a      	ldr	r2, [r7, #32]
  401710:	615a      	str	r2, [r3, #20]
	base->PIO_OWER = mask;
  401712:	697b      	ldr	r3, [r7, #20]
  401714:	6a3a      	ldr	r2, [r7, #32]
  401716:	f8c3 20a0 	str.w	r2, [r3, #160]	; 0xa0
}
  40171a:	bf00      	nop
  40171c:	372c      	adds	r7, #44	; 0x2c
  40171e:	46bd      	mov	sp, r7
  401720:	f85d 7b04 	ldr.w	r7, [sp], #4
  401724:	4770      	bx	lr

00401726 <ioport_set_pin_dir>:
{
  401726:	b480      	push	{r7}
  401728:	b08d      	sub	sp, #52	; 0x34
  40172a:	af00      	add	r7, sp, #0
  40172c:	6078      	str	r0, [r7, #4]
  40172e:	460b      	mov	r3, r1
  401730:	70fb      	strb	r3, [r7, #3]
  401732:	687b      	ldr	r3, [r7, #4]
  401734:	62fb      	str	r3, [r7, #44]	; 0x2c
  401736:	78fb      	ldrb	r3, [r7, #3]
  401738:	f887 302b 	strb.w	r3, [r7, #43]	; 0x2b
  40173c:	6afb      	ldr	r3, [r7, #44]	; 0x2c
  40173e:	627b      	str	r3, [r7, #36]	; 0x24
  401740:	6a7b      	ldr	r3, [r7, #36]	; 0x24
  401742:	623b      	str	r3, [r7, #32]
	return pin >> 5;
  401744:	6a3b      	ldr	r3, [r7, #32]
  401746:	095b      	lsrs	r3, r3, #5
  401748:	61fb      	str	r3, [r7, #28]
	return (Pio *)((uintptr_t)IOPORT_BASE_ADDRESS +
  40174a:	69fb      	ldr	r3, [r7, #28]
  40174c:	f503 1300 	add.w	r3, r3, #2097152	; 0x200000
  401750:	f203 7307 	addw	r3, r3, #1799	; 0x707
  401754:	025b      	lsls	r3, r3, #9
	Pio *base = arch_ioport_pin_to_base(pin);
  401756:	61bb      	str	r3, [r7, #24]
	if (dir == IOPORT_DIR_OUTPUT) {
  401758:	f897 302b 	ldrb.w	r3, [r7, #43]	; 0x2b
  40175c:	2b01      	cmp	r3, #1
  40175e:	d109      	bne.n	401774 <ioport_set_pin_dir+0x4e>
  401760:	6afb      	ldr	r3, [r7, #44]	; 0x2c
  401762:	617b      	str	r3, [r7, #20]
	return 1U << (pin & 0x1F);
  401764:	697b      	ldr	r3, [r7, #20]
  401766:	f003 031f 	and.w	r3, r3, #31
  40176a:	2201      	movs	r2, #1
  40176c:	409a      	lsls	r2, r3
		base->PIO_OER = arch_ioport_pin_to_mask(pin);
  40176e:	69bb      	ldr	r3, [r7, #24]
  401770:	611a      	str	r2, [r3, #16]
  401772:	e00c      	b.n	40178e <ioport_set_pin_dir+0x68>
	} else if (dir == IOPORT_DIR_INPUT) {
  401774:	f897 302b 	ldrb.w	r3, [r7, #43]	; 0x2b
  401778:	2b00      	cmp	r3, #0
  40177a:	d108      	bne.n	40178e <ioport_set_pin_dir+0x68>
  40177c:	6afb      	ldr	r3, [r7, #44]	; 0x2c
  40177e:	613b      	str	r3, [r7, #16]
	return 1U << (pin & 0x1F);
  401780:	693b      	ldr	r3, [r7, #16]
  401782:	f003 031f 	and.w	r3, r3, #31
  401786:	2201      	movs	r2, #1
  401788:	409a      	lsls	r2, r3
		base->PIO_ODR = arch_ioport_pin_to_mask(pin);
  40178a:	69bb      	ldr	r3, [r7, #24]
  40178c:	615a      	str	r2, [r3, #20]
  40178e:	6afb      	ldr	r3, [r7, #44]	; 0x2c
  401790:	60fb      	str	r3, [r7, #12]
	return 1U << (pin & 0x1F);
  401792:	68fb      	ldr	r3, [r7, #12]
  401794:	f003 031f 	and.w	r3, r3, #31
  401798:	2201      	movs	r2, #1
  40179a:	409a      	lsls	r2, r3
	base->PIO_OWER = arch_ioport_pin_to_mask(pin);
  40179c:	69bb      	ldr	r3, [r7, #24]
  40179e:	f8c3 20a0 	str.w	r2, [r3, #160]	; 0xa0
}
  4017a2:	bf00      	nop
  4017a4:	3734      	adds	r7, #52	; 0x34
  4017a6:	46bd      	mov	sp, r7
  4017a8:	f85d 7b04 	ldr.w	r7, [sp], #4
  4017ac:	4770      	bx	lr

004017ae <ioport_set_pin_level>:
{
  4017ae:	b480      	push	{r7}
  4017b0:	b08b      	sub	sp, #44	; 0x2c
  4017b2:	af00      	add	r7, sp, #0
  4017b4:	6078      	str	r0, [r7, #4]
  4017b6:	460b      	mov	r3, r1
  4017b8:	70fb      	strb	r3, [r7, #3]
  4017ba:	687b      	ldr	r3, [r7, #4]
  4017bc:	627b      	str	r3, [r7, #36]	; 0x24
  4017be:	78fb      	ldrb	r3, [r7, #3]
  4017c0:	f887 3023 	strb.w	r3, [r7, #35]	; 0x23
  4017c4:	6a7b      	ldr	r3, [r7, #36]	; 0x24
  4017c6:	61fb      	str	r3, [r7, #28]
  4017c8:	69fb      	ldr	r3, [r7, #28]
  4017ca:	61bb      	str	r3, [r7, #24]
	return pin >> 5;
  4017cc:	69bb      	ldr	r3, [r7, #24]
  4017ce:	095b      	lsrs	r3, r3, #5
  4017d0:	617b      	str	r3, [r7, #20]
	return (Pio *)((uintptr_t)IOPORT_BASE_ADDRESS +
  4017d2:	697b      	ldr	r3, [r7, #20]
  4017d4:	f503 1300 	add.w	r3, r3, #2097152	; 0x200000
  4017d8:	f203 7307 	addw	r3, r3, #1799	; 0x707
  4017dc:	025b      	lsls	r3, r3, #9
	Pio *base = arch_ioport_pin_to_base(pin);
  4017de:	613b      	str	r3, [r7, #16]
	if (level) {
  4017e0:	f897 3023 	ldrb.w	r3, [r7, #35]	; 0x23
  4017e4:	2b00      	cmp	r3, #0
  4017e6:	d009      	beq.n	4017fc <ioport_set_pin_level+0x4e>
  4017e8:	6a7b      	ldr	r3, [r7, #36]	; 0x24
  4017ea:	60fb      	str	r3, [r7, #12]
	return 1U << (pin & 0x1F);
  4017ec:	68fb      	ldr	r3, [r7, #12]
  4017ee:	f003 031f 	and.w	r3, r3, #31
  4017f2:	2201      	movs	r2, #1
  4017f4:	409a      	lsls	r2, r3
		base->PIO_SODR = arch_ioport_pin_to_mask(pin);
  4017f6:	693b      	ldr	r3, [r7, #16]
  4017f8:	631a      	str	r2, [r3, #48]	; 0x30
}
  4017fa:	e008      	b.n	40180e <ioport_set_pin_level+0x60>
  4017fc:	6a7b      	ldr	r3, [r7, #36]	; 0x24
  4017fe:	60bb      	str	r3, [r7, #8]
	return 1U << (pin & 0x1F);
  401800:	68bb      	ldr	r3, [r7, #8]
  401802:	f003 031f 	and.w	r3, r3, #31
  401806:	2201      	movs	r2, #1
  401808:	409a      	lsls	r2, r3
		base->PIO_CODR = arch_ioport_pin_to_mask(pin);
  40180a:	693b      	ldr	r3, [r7, #16]
  40180c:	635a      	str	r2, [r3, #52]	; 0x34
  40180e:	bf00      	nop
  401810:	372c      	adds	r7, #44	; 0x2c
  401812:	46bd      	mov	sp, r7
  401814:	f85d 7b04 	ldr.w	r7, [sp], #4
  401818:	4770      	bx	lr

0040181a <ioport_set_port_level>:
 * \param mask Pin mask of pins to modify
 * \param level Level of the pins to be modified
 */
static inline void ioport_set_port_level(ioport_port_t port,
		ioport_port_mask_t mask, enum ioport_value level)
{
  40181a:	b480      	push	{r7}
  40181c:	b08b      	sub	sp, #44	; 0x2c
  40181e:	af00      	add	r7, sp, #0
  401820:	60f8      	str	r0, [r7, #12]
  401822:	60b9      	str	r1, [r7, #8]
  401824:	4613      	mov	r3, r2
  401826:	71fb      	strb	r3, [r7, #7]
  401828:	68fb      	ldr	r3, [r7, #12]
  40182a:	627b      	str	r3, [r7, #36]	; 0x24
  40182c:	68bb      	ldr	r3, [r7, #8]
  40182e:	623b      	str	r3, [r7, #32]
  401830:	79fb      	ldrb	r3, [r7, #7]
  401832:	77fb      	strb	r3, [r7, #31]
  401834:	6a7b      	ldr	r3, [r7, #36]	; 0x24
  401836:	61bb      	str	r3, [r7, #24]
	return (Pio *)((uintptr_t)IOPORT_BASE_ADDRESS +
  401838:	69bb      	ldr	r3, [r7, #24]
  40183a:	f503 1300 	add.w	r3, r3, #2097152	; 0x200000
  40183e:	f203 7307 	addw	r3, r3, #1799	; 0x707
  401842:	025b      	lsls	r3, r3, #9
}

__always_inline static void arch_ioport_set_port_level(ioport_port_t port,
		ioport_port_mask_t mask, enum ioport_value level)
{
	Pio *base = arch_ioport_port_to_base(port);
  401844:	617b      	str	r3, [r7, #20]

	if (level){
  401846:	7ffb      	ldrb	r3, [r7, #31]
  401848:	2b00      	cmp	r3, #0
  40184a:	d003      	beq.n	401854 <ioport_set_port_level+0x3a>
		base->PIO_SODR = mask;
  40184c:	697b      	ldr	r3, [r7, #20]
  40184e:	6a3a      	ldr	r2, [r7, #32]
  401850:	631a      	str	r2, [r3, #48]	; 0x30
	arch_ioport_set_port_level(port, mask, level);
}
  401852:	e002      	b.n	40185a <ioport_set_port_level+0x40>
	} else {
		base->PIO_CODR = mask;
  401854:	697b      	ldr	r3, [r7, #20]
  401856:	6a3a      	ldr	r2, [r7, #32]
  401858:	635a      	str	r2, [r3, #52]	; 0x34
  40185a:	bf00      	nop
  40185c:	372c      	adds	r7, #44	; 0x2c
  40185e:	46bd      	mov	sp, r7
  401860:	f85d 7b04 	ldr.w	r7, [sp], #4
  401864:	4770      	bx	lr

00401866 <ioport_pin_to_mask>:
 *
 * \param pin IOPORT pin ID to convert
 * \retval Bitmask with a bit set that corresponds to the given pin ID in its port
 */
static inline ioport_port_mask_t ioport_pin_to_mask(ioport_pin_t pin)
{
  401866:	b480      	push	{r7}
  401868:	b085      	sub	sp, #20
  40186a:	af00      	add	r7, sp, #0
  40186c:	6078      	str	r0, [r7, #4]
  40186e:	687b      	ldr	r3, [r7, #4]
  401870:	60fb      	str	r3, [r7, #12]
	return 1U << (pin & 0x1F);
  401872:	68fb      	ldr	r3, [r7, #12]
  401874:	f003 031f 	and.w	r3, r3, #31
  401878:	2201      	movs	r2, #1
  40187a:	fa02 f303 	lsl.w	r3, r2, r3
	return arch_ioport_pin_to_mask(pin);
  40187e:	bf00      	nop
}
  401880:	4618      	mov	r0, r3
  401882:	3714      	adds	r7, #20
  401884:	46bd      	mov	sp, r7
  401886:	f85d 7b04 	ldr.w	r7, [sp], #4
  40188a:	4770      	bx	lr

0040188c <adc_ch_sanity_check>:
 * \param channel  Adc channel number.
 *
 */
static inline void adc_ch_sanity_check(Adc *const adc,
		const enum adc_channel_num channel)
{
  40188c:	b480      	push	{r7}
  40188e:	b083      	sub	sp, #12
  401890:	af00      	add	r7, sp, #0
  401892:	6078      	str	r0, [r7, #4]
  401894:	460b      	mov	r3, r1
  401896:	807b      	strh	r3, [r7, #2]
#endif
				);
	}

	UNUSED(channel);
}
  401898:	bf00      	nop
  40189a:	370c      	adds	r7, #12
  40189c:	46bd      	mov	sp, r7
  40189e:	f85d 7b04 	ldr.w	r7, [sp], #4
  4018a2:	4770      	bx	lr

004018a4 <adc_select_clock_source_mck>:
 *
 * \param adc  Base address of the ADC.
 *
 */
static inline void adc_select_clock_source_mck(Adc *const adc)
{
  4018a4:	b480      	push	{r7}
  4018a6:	b085      	sub	sp, #20
  4018a8:	af00      	add	r7, sp, #0
  4018aa:	6078      	str	r0, [r7, #4]
	uint32_t reg;

	reg = adc->ADC_EMR;
  4018ac:	687b      	ldr	r3, [r7, #4]
  4018ae:	6c1b      	ldr	r3, [r3, #64]	; 0x40
  4018b0:	60fb      	str	r3, [r7, #12]

	reg &= ~ADC_EMR_SRCCLK_PMC_PCK;
  4018b2:	68fb      	ldr	r3, [r7, #12]
  4018b4:	f423 1300 	bic.w	r3, r3, #2097152	; 0x200000
  4018b8:	60fb      	str	r3, [r7, #12]

	adc->ADC_EMR = reg;
  4018ba:	687b      	ldr	r3, [r7, #4]
  4018bc:	68fa      	ldr	r2, [r7, #12]
  4018be:	641a      	str	r2, [r3, #64]	; 0x40
}
  4018c0:	bf00      	nop
  4018c2:	3714      	adds	r7, #20
  4018c4:	46bd      	mov	sp, r7
  4018c6:	f85d 7b04 	ldr.w	r7, [sp], #4
  4018ca:	4770      	bx	lr

004018cc <adc_set_trigger>:
 * \param trigger Conversion trigger.
 *
 */
static inline void adc_set_trigger(Adc *const adc,
		const enum adc_trigger trigger)
{
  4018cc:	b480      	push	{r7}
  4018ce:	b085      	sub	sp, #20
  4018d0:	af00      	add	r7, sp, #0
  4018d2:	6078      	str	r0, [r7, #4]
  4018d4:	460b      	mov	r3, r1
  4018d6:	70fb      	strb	r3, [r7, #3]
	uint32_t reg;

	reg = adc->ADC_MR;
  4018d8:	687b      	ldr	r3, [r7, #4]
  4018da:	685b      	ldr	r3, [r3, #4]
  4018dc:	60fb      	str	r3, [r7, #12]

	if (trigger == ADC_TRIG_FREERUN) {
  4018de:	78fb      	ldrb	r3, [r7, #3]
  4018e0:	2bff      	cmp	r3, #255	; 0xff
  4018e2:	d104      	bne.n	4018ee <adc_set_trigger+0x22>
		reg |= ADC_MR_FREERUN_ON;
  4018e4:	68fb      	ldr	r3, [r7, #12]
  4018e6:	f043 0380 	orr.w	r3, r3, #128	; 0x80
  4018ea:	60fb      	str	r3, [r7, #12]
  4018ec:	e007      	b.n	4018fe <adc_set_trigger+0x32>
	} else {
		reg &= ~(ADC_MR_TRGSEL_Msk | ADC_MR_TRGEN | ADC_MR_FREERUN_ON);
  4018ee:	68fb      	ldr	r3, [r7, #12]
  4018f0:	f023 038f 	bic.w	r3, r3, #143	; 0x8f
  4018f4:	60fb      	str	r3, [r7, #12]
		reg |= trigger;
  4018f6:	78fb      	ldrb	r3, [r7, #3]
  4018f8:	68fa      	ldr	r2, [r7, #12]
  4018fa:	4313      	orrs	r3, r2
  4018fc:	60fb      	str	r3, [r7, #12]
	}

	adc->ADC_MR = reg;
  4018fe:	687b      	ldr	r3, [r7, #4]
  401900:	68fa      	ldr	r2, [r7, #12]
  401902:	605a      	str	r2, [r3, #4]
}
  401904:	bf00      	nop
  401906:	3714      	adds	r7, #20
  401908:	46bd      	mov	sp, r7
  40190a:	f85d 7b04 	ldr.w	r7, [sp], #4
  40190e:	4770      	bx	lr

00401910 <adc_set_writeprotect>:
 * \param adc  Base address of the ADC.
 * \param is_enable 1 to enable, 0 to disable.
 */
static inline void adc_set_writeprotect(Adc *const adc,
		const bool is_enable)
{
  401910:	b480      	push	{r7}
  401912:	b083      	sub	sp, #12
  401914:	af00      	add	r7, sp, #0
  401916:	6078      	str	r0, [r7, #4]
  401918:	460b      	mov	r3, r1
  40191a:	70fb      	strb	r3, [r7, #3]
	if (is_enable) {
  40191c:	78fb      	ldrb	r3, [r7, #3]
  40191e:	2b00      	cmp	r3, #0
  401920:	d004      	beq.n	40192c <adc_set_writeprotect+0x1c>
		adc->ADC_WPMR = ADC_WPMR_WPEN | ADC_WPMR_WPKEY_PASSWD;
  401922:	687b      	ldr	r3, [r7, #4]
  401924:	4a06      	ldr	r2, [pc, #24]	; (401940 <adc_set_writeprotect+0x30>)
  401926:	f8c3 20e4 	str.w	r2, [r3, #228]	; 0xe4
	} else {
		adc->ADC_WPMR = ADC_WPMR_WPKEY_PASSWD;
	}
}
  40192a:	e003      	b.n	401934 <adc_set_writeprotect+0x24>
		adc->ADC_WPMR = ADC_WPMR_WPKEY_PASSWD;
  40192c:	687b      	ldr	r3, [r7, #4]
  40192e:	4a05      	ldr	r2, [pc, #20]	; (401944 <adc_set_writeprotect+0x34>)
  401930:	f8c3 20e4 	str.w	r2, [r3, #228]	; 0xe4
}
  401934:	bf00      	nop
  401936:	370c      	adds	r7, #12
  401938:	46bd      	mov	sp, r7
  40193a:	f85d 7b04 	ldr.w	r7, [sp], #4
  40193e:	4770      	bx	lr
  401940:	41444301 	.word	0x41444301
  401944:	41444300 	.word	0x41444300

00401948 <adc_channel_enable>:
 * \param adc  Base address of the ADC.
 * \param adc_ch Adc channel number.
 */
static inline void adc_channel_enable(Adc *const adc,
		const enum adc_channel_num adc_ch)
{
  401948:	b580      	push	{r7, lr}
  40194a:	b082      	sub	sp, #8
  40194c:	af00      	add	r7, sp, #0
  40194e:	6078      	str	r0, [r7, #4]
  401950:	460b      	mov	r3, r1
  401952:	807b      	strh	r3, [r7, #2]
	if (adc_ch != ADC_CHANNEL_ALL) {
  401954:	887b      	ldrh	r3, [r7, #2]
  401956:	f64f 72ff 	movw	r2, #65535	; 0xffff
  40195a:	4293      	cmp	r3, r2
  40195c:	d004      	beq.n	401968 <adc_channel_enable+0x20>
		adc_ch_sanity_check(adc, adc_ch);
  40195e:	887b      	ldrh	r3, [r7, #2]
  401960:	4619      	mov	r1, r3
  401962:	6878      	ldr	r0, [r7, #4]
  401964:	4b0a      	ldr	r3, [pc, #40]	; (401990 <adc_channel_enable+0x48>)
  401966:	4798      	blx	r3
	}

	adc->ADC_CHER = (adc_ch == ADC_CHANNEL_ALL) ?
			ADC_CHANNEL_ALL : 1 << adc_ch;
  401968:	887b      	ldrh	r3, [r7, #2]
  40196a:	f64f 72ff 	movw	r2, #65535	; 0xffff
  40196e:	4293      	cmp	r3, r2
  401970:	d005      	beq.n	40197e <adc_channel_enable+0x36>
  401972:	887b      	ldrh	r3, [r7, #2]
  401974:	2201      	movs	r2, #1
  401976:	fa02 f303 	lsl.w	r3, r2, r3
  40197a:	461a      	mov	r2, r3
  40197c:	e001      	b.n	401982 <adc_channel_enable+0x3a>
  40197e:	f64f 72ff 	movw	r2, #65535	; 0xffff
	adc->ADC_CHER = (adc_ch == ADC_CHANNEL_ALL) ?
  401982:	687b      	ldr	r3, [r7, #4]
  401984:	611a      	str	r2, [r3, #16]
}
  401986:	bf00      	nop
  401988:	3708      	adds	r7, #8
  40198a:	46bd      	mov	sp, r7
  40198c:	bd80      	pop	{r7, pc}
  40198e:	bf00      	nop
  401990:	0040188d 	.word	0x0040188d

00401994 <adc_channel_get_value>:
 *
 * \return ADC converted value of the selected channel.
 */
static inline uint32_t adc_channel_get_value(Adc *const adc,
		enum adc_channel_num adc_ch)
{
  401994:	b580      	push	{r7, lr}
  401996:	b082      	sub	sp, #8
  401998:	af00      	add	r7, sp, #0
  40199a:	6078      	str	r0, [r7, #4]
  40199c:	460b      	mov	r3, r1
  40199e:	807b      	strh	r3, [r7, #2]
	adc_ch_sanity_check(adc, adc_ch);
  4019a0:	887b      	ldrh	r3, [r7, #2]
  4019a2:	4619      	mov	r1, r3
  4019a4:	6878      	ldr	r0, [r7, #4]
  4019a6:	4b05      	ldr	r3, [pc, #20]	; (4019bc <adc_channel_get_value+0x28>)
  4019a8:	4798      	blx	r3

	return adc->ADC_CDR[adc_ch];
  4019aa:	887a      	ldrh	r2, [r7, #2]
  4019ac:	687b      	ldr	r3, [r7, #4]
  4019ae:	3214      	adds	r2, #20
  4019b0:	f853 3022 	ldr.w	r3, [r3, r2, lsl #2]
}
  4019b4:	4618      	mov	r0, r3
  4019b6:	3708      	adds	r7, #8
  4019b8:	46bd      	mov	sp, r7
  4019ba:	bd80      	pop	{r7, pc}
  4019bc:	0040188d 	.word	0x0040188d

004019c0 <measure_idd>:
static void ADC0_init(void);
static void ext_int_init(void);
static void find_sensors(void);

static uint32_t measure_idd(uint16_t nb_measures)
{
  4019c0:	e92d 4ff0 	stmdb	sp!, {r4, r5, r6, r7, r8, r9, sl, fp, lr}
  4019c4:	b091      	sub	sp, #68	; 0x44
  4019c6:	af00      	add	r7, sp, #0
  4019c8:	4603      	mov	r3, r0
  4019ca:	84fb      	strh	r3, [r7, #38]	; 0x26
	uint16_t i;
	uint64_t sum_idd = 0;
  4019cc:	f04f 0300 	mov.w	r3, #0
  4019d0:	f04f 0400 	mov.w	r4, #0
  4019d4:	e9c7 340c 	strd	r3, r4, [r7, #48]	; 0x30
	uint32_t average_idd;

	for (i = 0; i < nb_measures; ++i) {
  4019d8:	2300      	movs	r3, #0
  4019da:	87fb      	strh	r3, [r7, #62]	; 0x3e
  4019dc:	e082      	b.n	401ae4 <measure_idd+0x124>
		delay_us(ADC_MEASURE_WAIT_TIME_US);
  4019de:	4b76      	ldr	r3, [pc, #472]	; (401bb8 <measure_idd+0x1f8>)
  4019e0:	4798      	blx	r3
  4019e2:	4603      	mov	r3, r0
  4019e4:	4619      	mov	r1, r3
  4019e6:	f04f 0200 	mov.w	r2, #0
  4019ea:	460b      	mov	r3, r1
  4019ec:	4614      	mov	r4, r2
  4019ee:	18db      	adds	r3, r3, r3
  4019f0:	eb44 0404 	adc.w	r4, r4, r4
  4019f4:	185b      	adds	r3, r3, r1
  4019f6:	eb44 0402 	adc.w	r4, r4, r2
  4019fa:	0160      	lsls	r0, r4, #5
  4019fc:	61f8      	str	r0, [r7, #28]
  4019fe:	69f8      	ldr	r0, [r7, #28]
  401a00:	ea40 60d3 	orr.w	r0, r0, r3, lsr #27
  401a04:	61f8      	str	r0, [r7, #28]
  401a06:	015b      	lsls	r3, r3, #5
  401a08:	61bb      	str	r3, [r7, #24]
  401a0a:	e9d7 3406 	ldrd	r3, r4, [r7, #24]
  401a0e:	185b      	adds	r3, r3, r1
  401a10:	eb44 0402 	adc.w	r4, r4, r2
  401a14:	00a2      	lsls	r2, r4, #2
  401a16:	617a      	str	r2, [r7, #20]
  401a18:	697a      	ldr	r2, [r7, #20]
  401a1a:	ea42 7293 	orr.w	r2, r2, r3, lsr #30
  401a1e:	617a      	str	r2, [r7, #20]
  401a20:	009a      	lsls	r2, r3, #2
  401a22:	613a      	str	r2, [r7, #16]
  401a24:	e9d7 1204 	ldrd	r1, r2, [r7, #16]
  401a28:	18c9      	adds	r1, r1, r3
  401a2a:	eb42 0204 	adc.w	r2, r2, r4
  401a2e:	460b      	mov	r3, r1
  401a30:	4614      	mov	r4, r2
  401a32:	18db      	adds	r3, r3, r3
  401a34:	eb44 0404 	adc.w	r4, r4, r4
  401a38:	4619      	mov	r1, r3
  401a3a:	4622      	mov	r2, r4
  401a3c:	a45a      	add	r4, pc, #360	; (adr r4, 401ba8 <measure_idd+0x1e8>)
  401a3e:	e9d4 3400 	ldrd	r3, r4, [r4]
  401a42:	18cd      	adds	r5, r1, r3
  401a44:	eb42 0604 	adc.w	r6, r2, r4
  401a48:	4628      	mov	r0, r5
  401a4a:	4631      	mov	r1, r6
  401a4c:	4c5b      	ldr	r4, [pc, #364]	; (401bbc <measure_idd+0x1fc>)
  401a4e:	4a5c      	ldr	r2, [pc, #368]	; (401bc0 <measure_idd+0x200>)
  401a50:	f04f 0300 	mov.w	r3, #0
  401a54:	47a0      	blx	r4
  401a56:	4603      	mov	r3, r0
  401a58:	460c      	mov	r4, r1
  401a5a:	4618      	mov	r0, r3
  401a5c:	4b59      	ldr	r3, [pc, #356]	; (401bc4 <measure_idd+0x204>)
  401a5e:	4798      	blx	r3
		adc_local->ADC_CR = ADC_CR_START; /* start ADC conversion */
  401a60:	4b59      	ldr	r3, [pc, #356]	; (401bc8 <measure_idd+0x208>)
  401a62:	681b      	ldr	r3, [r3, #0]
  401a64:	2202      	movs	r2, #2
  401a66:	601a      	str	r2, [r3, #0]
		delay_us(ADC_CONV_TIME_US); /* wait for ADC conversion time */
  401a68:	4b53      	ldr	r3, [pc, #332]	; (401bb8 <measure_idd+0x1f8>)
  401a6a:	4798      	blx	r3
  401a6c:	4603      	mov	r3, r0
  401a6e:	4619      	mov	r1, r3
  401a70:	f04f 0200 	mov.w	r2, #0
  401a74:	460b      	mov	r3, r1
  401a76:	4614      	mov	r4, r2
  401a78:	0120      	lsls	r0, r4, #4
  401a7a:	60f8      	str	r0, [r7, #12]
  401a7c:	68f8      	ldr	r0, [r7, #12]
  401a7e:	ea40 7013 	orr.w	r0, r0, r3, lsr #28
  401a82:	60f8      	str	r0, [r7, #12]
  401a84:	011b      	lsls	r3, r3, #4
  401a86:	60bb      	str	r3, [r7, #8]
  401a88:	e9d7 3402 	ldrd	r3, r4, [r7, #8]
  401a8c:	1a5b      	subs	r3, r3, r1
  401a8e:	eb64 0402 	sbc.w	r4, r4, r2
  401a92:	18db      	adds	r3, r3, r3
  401a94:	eb44 0404 	adc.w	r4, r4, r4
  401a98:	4619      	mov	r1, r3
  401a9a:	4622      	mov	r2, r4
  401a9c:	a442      	add	r4, pc, #264	; (adr r4, 401ba8 <measure_idd+0x1e8>)
  401a9e:	e9d4 3400 	ldrd	r3, r4, [r4]
  401aa2:	18cd      	adds	r5, r1, r3
  401aa4:	eb42 0604 	adc.w	r6, r2, r4
  401aa8:	4628      	mov	r0, r5
  401aaa:	4631      	mov	r1, r6
  401aac:	4c43      	ldr	r4, [pc, #268]	; (401bbc <measure_idd+0x1fc>)
  401aae:	4a44      	ldr	r2, [pc, #272]	; (401bc0 <measure_idd+0x200>)
  401ab0:	f04f 0300 	mov.w	r3, #0
  401ab4:	47a0      	blx	r4
  401ab6:	4603      	mov	r3, r0
  401ab8:	460c      	mov	r4, r1
  401aba:	4618      	mov	r0, r3
  401abc:	4b41      	ldr	r3, [pc, #260]	; (401bc4 <measure_idd+0x204>)
  401abe:	4798      	blx	r3
		sum_idd += adc_channel_get_value(ADC, ADC_CHANNEL_0);
  401ac0:	2100      	movs	r1, #0
  401ac2:	4842      	ldr	r0, [pc, #264]	; (401bcc <measure_idd+0x20c>)
  401ac4:	4b42      	ldr	r3, [pc, #264]	; (401bd0 <measure_idd+0x210>)
  401ac6:	4798      	blx	r3
  401ac8:	4603      	mov	r3, r0
  401aca:	4619      	mov	r1, r3
  401acc:	f04f 0200 	mov.w	r2, #0
  401ad0:	e9d7 340c 	ldrd	r3, r4, [r7, #48]	; 0x30
  401ad4:	185b      	adds	r3, r3, r1
  401ad6:	eb44 0402 	adc.w	r4, r4, r2
  401ada:	e9c7 340c 	strd	r3, r4, [r7, #48]	; 0x30
	for (i = 0; i < nb_measures; ++i) {
  401ade:	8ffb      	ldrh	r3, [r7, #62]	; 0x3e
  401ae0:	3301      	adds	r3, #1
  401ae2:	87fb      	strh	r3, [r7, #62]	; 0x3e
  401ae4:	8ffa      	ldrh	r2, [r7, #62]	; 0x3e
  401ae6:	8cfb      	ldrh	r3, [r7, #38]	; 0x26
  401ae8:	429a      	cmp	r2, r3
  401aea:	f4ff af78 	bcc.w	4019de <measure_idd+0x1e>
	}

	average_idd = (sum_idd / nb_measures) * VOLT_REF / MAX_DIGITAL_12_BIT / ADC_MEAS_RAW_TO_UA_RATIO;
  401aee:	8cfb      	ldrh	r3, [r7, #38]	; 0x26
  401af0:	f04f 0400 	mov.w	r4, #0
  401af4:	4d31      	ldr	r5, [pc, #196]	; (401bbc <measure_idd+0x1fc>)
  401af6:	461a      	mov	r2, r3
  401af8:	4623      	mov	r3, r4
  401afa:	e9d7 010c 	ldrd	r0, r1, [r7, #48]	; 0x30
  401afe:	47a8      	blx	r5
  401b00:	4603      	mov	r3, r0
  401b02:	460c      	mov	r4, r1
  401b04:	4619      	mov	r1, r3
  401b06:	4622      	mov	r2, r4
  401b08:	460b      	mov	r3, r1
  401b0a:	4614      	mov	r4, r2
  401b0c:	18db      	adds	r3, r3, r3
  401b0e:	eb44 0404 	adc.w	r4, r4, r4
  401b12:	185b      	adds	r3, r3, r1
  401b14:	eb44 0402 	adc.w	r4, r4, r2
  401b18:	00a0      	lsls	r0, r4, #2
  401b1a:	6078      	str	r0, [r7, #4]
  401b1c:	6878      	ldr	r0, [r7, #4]
  401b1e:	ea40 7093 	orr.w	r0, r0, r3, lsr #30
  401b22:	6078      	str	r0, [r7, #4]
  401b24:	009b      	lsls	r3, r3, #2
  401b26:	603b      	str	r3, [r7, #0]
  401b28:	e9d7 3400 	ldrd	r3, r4, [r7]
  401b2c:	185b      	adds	r3, r3, r1
  401b2e:	eb44 0402 	adc.w	r4, r4, r2
  401b32:	ea4f 1984 	mov.w	r9, r4, lsl #6
  401b36:	ea49 6993 	orr.w	r9, r9, r3, lsr #26
  401b3a:	ea4f 1883 	mov.w	r8, r3, lsl #6
  401b3e:	ebb8 0803 	subs.w	r8, r8, r3
  401b42:	eb69 0904 	sbc.w	r9, r9, r4
  401b46:	ea4f 0b89 	mov.w	fp, r9, lsl #2
  401b4a:	ea4b 7b98 	orr.w	fp, fp, r8, lsr #30
  401b4e:	ea4f 0a88 	mov.w	sl, r8, lsl #2
  401b52:	46d0      	mov	r8, sl
  401b54:	46d9      	mov	r9, fp
  401b56:	eb18 0301 	adds.w	r3, r8, r1
  401b5a:	eb49 0402 	adc.w	r4, r9, r2
  401b5e:	4618      	mov	r0, r3
  401b60:	4621      	mov	r1, r4
  401b62:	4c16      	ldr	r4, [pc, #88]	; (401bbc <measure_idd+0x1fc>)
  401b64:	f640 72ff 	movw	r2, #4095	; 0xfff
  401b68:	f04f 0300 	mov.w	r3, #0
  401b6c:	47a0      	blx	r4
  401b6e:	4603      	mov	r3, r0
  401b70:	460c      	mov	r4, r1
  401b72:	4619      	mov	r1, r3
  401b74:	4622      	mov	r2, r4
  401b76:	4b17      	ldr	r3, [pc, #92]	; (401bd4 <measure_idd+0x214>)
  401b78:	4608      	mov	r0, r1
  401b7a:	4611      	mov	r1, r2
  401b7c:	4798      	blx	r3
  401b7e:	4c16      	ldr	r4, [pc, #88]	; (401bd8 <measure_idd+0x218>)
  401b80:	a30b      	add	r3, pc, #44	; (adr r3, 401bb0 <measure_idd+0x1f0>)
  401b82:	e9d3 2300 	ldrd	r2, r3, [r3]
  401b86:	47a0      	blx	r4
  401b88:	4603      	mov	r3, r0
  401b8a:	460c      	mov	r4, r1
  401b8c:	4619      	mov	r1, r3
  401b8e:	4622      	mov	r2, r4
  401b90:	4b12      	ldr	r3, [pc, #72]	; (401bdc <measure_idd+0x21c>)
  401b92:	4608      	mov	r0, r1
  401b94:	4611      	mov	r1, r2
  401b96:	4798      	blx	r3
  401b98:	4603      	mov	r3, r0
  401b9a:	62fb      	str	r3, [r7, #44]	; 0x2c

	return average_idd;
  401b9c:	6afb      	ldr	r3, [r7, #44]	; 0x2c
}
  401b9e:	4618      	mov	r0, r3
  401ba0:	3744      	adds	r7, #68	; 0x44
  401ba2:	46bd      	mov	sp, r7
  401ba4:	e8bd 8ff0 	ldmia.w	sp!, {r4, r5, r6, r7, r8, r9, sl, fp, pc}
  401ba8:	00d59f7f 	.word	0x00d59f7f
  401bac:	00000000 	.word	0x00000000
  401bb0:	7fcb923a 	.word	0x7fcb923a
  401bb4:	3fe3bf48 	.word	0x3fe3bf48
  401bb8:	0040169d 	.word	0x0040169d
  401bbc:	0040c0ed 	.word	0x0040c0ed
  401bc0:	00d59f80 	.word	0x00d59f80
  401bc4:	20000001 	.word	0x20000001
  401bc8:	20000164 	.word	0x20000164
  401bcc:	40038000 	.word	0x40038000
  401bd0:	00401995 	.word	0x00401995
  401bd4:	0040ba91 	.word	0x0040ba91
  401bd8:	0040bd51 	.word	0x0040bd51
  401bdc:	0040c0ad 	.word	0x0040c0ad

00401be0 <measure_power>:

static void measure_power(void)
{
  401be0:	b580      	push	{r7, lr}
  401be2:	b082      	sub	sp, #8
  401be4:	af00      	add	r7, sp, #0
	uint32_t sensors_current;

	sensors_current = measure_idd(SENSORS_CURRENT_NB_MEASURE);
  401be6:	2064      	movs	r0, #100	; 0x64
  401be8:	4b05      	ldr	r3, [pc, #20]	; (401c00 <measure_power+0x20>)
  401bea:	4798      	blx	r3
  401bec:	6078      	str	r0, [r7, #4]
	printf("Chirp sensor Idd: %ld uA\n\n", sensors_current);
  401bee:	6879      	ldr	r1, [r7, #4]
  401bf0:	4804      	ldr	r0, [pc, #16]	; (401c04 <measure_power+0x24>)
  401bf2:	4b05      	ldr	r3, [pc, #20]	; (401c08 <measure_power+0x28>)
  401bf4:	4798      	blx	r3
}
  401bf6:	bf00      	nop
  401bf8:	3708      	adds	r7, #8
  401bfa:	46bd      	mov	sp, r7
  401bfc:	bd80      	pop	{r7, pc}
  401bfe:	bf00      	nop
  401c00:	004019c1 	.word	0x004019c1
  401c04:	0040c740 	.word	0x0040c740
  401c08:	004097cd 	.word	0x004097cd

00401c0c <find_sensors>:

static void find_sensors(void)
{
  401c0c:	b590      	push	{r4, r7, lr}
  401c0e:	b083      	sub	sp, #12
  401c10:	af00      	add	r7, sp, #0
	uint8_t sig_bytes[2];

	ioport_set_pin_dir(CHIRP_RST, IOPORT_DIR_OUTPUT); //reset=output
  401c12:	2101      	movs	r1, #1
  401c14:	200f      	movs	r0, #15
  401c16:	4b5d      	ldr	r3, [pc, #372]	; (401d8c <find_sensors+0x180>)
  401c18:	4798      	blx	r3
	ioport_set_pin_level(CHIRP_RST, IOPORT_PIN_LEVEL_HIGH); //reset=H
  401c1a:	2101      	movs	r1, #1
  401c1c:	200f      	movs	r0, #15
  401c1e:	4b5c      	ldr	r3, [pc, #368]	; (401d90 <find_sensors+0x184>)
  401c20:	4798      	blx	r3

	/* Drive PROG low on all sensor ports */
	ioport_set_pin_dir(CHIRP_PROG_0, IOPORT_DIR_OUTPUT); //PROG_0=output
  401c22:	2101      	movs	r1, #1
  401c24:	2010      	movs	r0, #16
  401c26:	4b59      	ldr	r3, [pc, #356]	; (401d8c <find_sensors+0x180>)
  401c28:	4798      	blx	r3
	ioport_set_pin_dir(CHIRP_PROG_1, IOPORT_DIR_OUTPUT); //PROG_1=output
  401c2a:	2101      	movs	r1, #1
  401c2c:	2012      	movs	r0, #18
  401c2e:	4b57      	ldr	r3, [pc, #348]	; (401d8c <find_sensors+0x180>)
  401c30:	4798      	blx	r3
	ioport_set_pin_dir(CHIRP_PROG_2, IOPORT_DIR_OUTPUT); //PROG_2=output
  401c32:	2101      	movs	r1, #1
  401c34:	2013      	movs	r0, #19
  401c36:	4b55      	ldr	r3, [pc, #340]	; (401d8c <find_sensors+0x180>)
  401c38:	4798      	blx	r3
	ioport_set_pin_dir(CHIRP_PROG_3, IOPORT_DIR_OUTPUT); //PROG_3=output
  401c3a:	2101      	movs	r1, #1
  401c3c:	201f      	movs	r0, #31
  401c3e:	4b53      	ldr	r3, [pc, #332]	; (401d8c <find_sensors+0x180>)
  401c40:	4798      	blx	r3
	ioport_set_pin_level(CHIRP_PROG_0, IOPORT_PIN_LEVEL_LOW); //PROG_0=L
  401c42:	2100      	movs	r1, #0
  401c44:	2010      	movs	r0, #16
  401c46:	4b52      	ldr	r3, [pc, #328]	; (401d90 <find_sensors+0x184>)
  401c48:	4798      	blx	r3
	ioport_set_pin_level(CHIRP_PROG_1, IOPORT_PIN_LEVEL_LOW); //PROG_1=L
  401c4a:	2100      	movs	r1, #0
  401c4c:	2012      	movs	r0, #18
  401c4e:	4b50      	ldr	r3, [pc, #320]	; (401d90 <find_sensors+0x184>)
  401c50:	4798      	blx	r3
	ioport_set_pin_level(CHIRP_PROG_2, IOPORT_PIN_LEVEL_LOW); //PROG_2=L
  401c52:	2100      	movs	r1, #0
  401c54:	2013      	movs	r0, #19
  401c56:	4b4e      	ldr	r3, [pc, #312]	; (401d90 <find_sensors+0x184>)
  401c58:	4798      	blx	r3
	ioport_set_pin_level(CHIRP_PROG_3, IOPORT_PIN_LEVEL_LOW); //PROG_3=L
  401c5a:	2100      	movs	r1, #0
  401c5c:	201f      	movs	r0, #31
  401c5e:	4b4c      	ldr	r3, [pc, #304]	; (401d90 <find_sensors+0x184>)
  401c60:	4798      	blx	r3

	/* check sensor 0 (on board chip or J6) */
	ioport_set_pin_level(CHIRP_PROG_0, IOPORT_PIN_LEVEL_HIGH);
  401c62:	2101      	movs	r1, #1
  401c64:	2010      	movs	r0, #16
  401c66:	4b4a      	ldr	r3, [pc, #296]	; (401d90 <find_sensors+0x184>)
  401c68:	4798      	blx	r3
	i2c_master_initialize1();
  401c6a:	4b4a      	ldr	r3, [pc, #296]	; (401d94 <find_sensors+0x188>)
  401c6c:	4798      	blx	r3
	sig_bytes[0] = 0;
  401c6e:	2300      	movs	r3, #0
  401c70:	713b      	strb	r3, [r7, #4]
	sig_bytes[1] = 0;
  401c72:	2300      	movs	r3, #0
  401c74:	717b      	strb	r3, [r7, #5]
	i2c_master_read_register1(CH_I2C_ADDR_PROG, 0x00, 2, sig_bytes);
  401c76:	1d3b      	adds	r3, r7, #4
  401c78:	2202      	movs	r2, #2
  401c7a:	2100      	movs	r1, #0
  401c7c:	2045      	movs	r0, #69	; 0x45
  401c7e:	4c46      	ldr	r4, [pc, #280]	; (401d98 <find_sensors+0x18c>)
  401c80:	47a0      	blx	r4
	printf("Chirp sensor 0 ");
  401c82:	4846      	ldr	r0, [pc, #280]	; (401d9c <find_sensors+0x190>)
  401c84:	4b46      	ldr	r3, [pc, #280]	; (401da0 <find_sensors+0x194>)
  401c86:	4798      	blx	r3
	if ((sig_bytes[0] == CH_SIG_BYTE_0) && (sig_bytes[1] == CH_SIG_BYTE_1)) {
  401c88:	793b      	ldrb	r3, [r7, #4]
  401c8a:	2b0a      	cmp	r3, #10
  401c8c:	d106      	bne.n	401c9c <find_sensors+0x90>
  401c8e:	797b      	ldrb	r3, [r7, #5]
  401c90:	2b02      	cmp	r3, #2
  401c92:	d103      	bne.n	401c9c <find_sensors+0x90>
		printf("found\n");
  401c94:	4843      	ldr	r0, [pc, #268]	; (401da4 <find_sensors+0x198>)
  401c96:	4b42      	ldr	r3, [pc, #264]	; (401da0 <find_sensors+0x194>)
  401c98:	4798      	blx	r3
  401c9a:	e002      	b.n	401ca2 <find_sensors+0x96>
		} else {
		printf("not found\n");
  401c9c:	4842      	ldr	r0, [pc, #264]	; (401da8 <find_sensors+0x19c>)
  401c9e:	4b40      	ldr	r3, [pc, #256]	; (401da0 <find_sensors+0x194>)
  401ca0:	4798      	blx	r3
	}
	ioport_set_pin_level(CHIRP_PROG_0, IOPORT_PIN_LEVEL_LOW);
  401ca2:	2100      	movs	r1, #0
  401ca4:	2010      	movs	r0, #16
  401ca6:	4b3a      	ldr	r3, [pc, #232]	; (401d90 <find_sensors+0x184>)
  401ca8:	4798      	blx	r3

	/* check sensor 1 (J7) */
	ioport_set_pin_level(CHIRP_PROG_1, IOPORT_PIN_LEVEL_HIGH);
  401caa:	2101      	movs	r1, #1
  401cac:	2012      	movs	r0, #18
  401cae:	4b38      	ldr	r3, [pc, #224]	; (401d90 <find_sensors+0x184>)
  401cb0:	4798      	blx	r3
	i2c_master_initialize1();
  401cb2:	4b38      	ldr	r3, [pc, #224]	; (401d94 <find_sensors+0x188>)
  401cb4:	4798      	blx	r3
	sig_bytes[0] = 0;
  401cb6:	2300      	movs	r3, #0
  401cb8:	713b      	strb	r3, [r7, #4]
	sig_bytes[1] = 0;
  401cba:	2300      	movs	r3, #0
  401cbc:	717b      	strb	r3, [r7, #5]
	i2c_master_read_register1(CH_I2C_ADDR_PROG, 0x00, 2, sig_bytes);
  401cbe:	1d3b      	adds	r3, r7, #4
  401cc0:	2202      	movs	r2, #2
  401cc2:	2100      	movs	r1, #0
  401cc4:	2045      	movs	r0, #69	; 0x45
  401cc6:	4c34      	ldr	r4, [pc, #208]	; (401d98 <find_sensors+0x18c>)
  401cc8:	47a0      	blx	r4
	printf("Chirp sensor 1 ");
  401cca:	4838      	ldr	r0, [pc, #224]	; (401dac <find_sensors+0x1a0>)
  401ccc:	4b34      	ldr	r3, [pc, #208]	; (401da0 <find_sensors+0x194>)
  401cce:	4798      	blx	r3
	if ((sig_bytes[0] == CH_SIG_BYTE_0) && (sig_bytes[1] == CH_SIG_BYTE_1)) {
  401cd0:	793b      	ldrb	r3, [r7, #4]
  401cd2:	2b0a      	cmp	r3, #10
  401cd4:	d106      	bne.n	401ce4 <find_sensors+0xd8>
  401cd6:	797b      	ldrb	r3, [r7, #5]
  401cd8:	2b02      	cmp	r3, #2
  401cda:	d103      	bne.n	401ce4 <find_sensors+0xd8>
		printf("found\n");
  401cdc:	4831      	ldr	r0, [pc, #196]	; (401da4 <find_sensors+0x198>)
  401cde:	4b30      	ldr	r3, [pc, #192]	; (401da0 <find_sensors+0x194>)
  401ce0:	4798      	blx	r3
  401ce2:	e002      	b.n	401cea <find_sensors+0xde>
		} else {
		printf("not found\n");
  401ce4:	4830      	ldr	r0, [pc, #192]	; (401da8 <find_sensors+0x19c>)
  401ce6:	4b2e      	ldr	r3, [pc, #184]	; (401da0 <find_sensors+0x194>)
  401ce8:	4798      	blx	r3
	}
	ioport_set_pin_level(CHIRP_PROG_1, IOPORT_PIN_LEVEL_LOW);
  401cea:	2100      	movs	r1, #0
  401cec:	2012      	movs	r0, #18
  401cee:	4b28      	ldr	r3, [pc, #160]	; (401d90 <find_sensors+0x184>)
  401cf0:	4798      	blx	r3

	/* check sensor 2 (J8) */
	ioport_set_pin_level(CHIRP_PROG_2, IOPORT_PIN_LEVEL_HIGH);
  401cf2:	2101      	movs	r1, #1
  401cf4:	2013      	movs	r0, #19
  401cf6:	4b26      	ldr	r3, [pc, #152]	; (401d90 <find_sensors+0x184>)
  401cf8:	4798      	blx	r3
	i2c_master_initialize3();
  401cfa:	4b2d      	ldr	r3, [pc, #180]	; (401db0 <find_sensors+0x1a4>)
  401cfc:	4798      	blx	r3
	sig_bytes[0] = 0;
  401cfe:	2300      	movs	r3, #0
  401d00:	713b      	strb	r3, [r7, #4]
	sig_bytes[1] = 0;
  401d02:	2300      	movs	r3, #0
  401d04:	717b      	strb	r3, [r7, #5]
	i2c_master_read_register3(CH_I2C_ADDR_PROG, 0x00, 2, sig_bytes);
  401d06:	1d3b      	adds	r3, r7, #4
  401d08:	2202      	movs	r2, #2
  401d0a:	2100      	movs	r1, #0
  401d0c:	2045      	movs	r0, #69	; 0x45
  401d0e:	4c29      	ldr	r4, [pc, #164]	; (401db4 <find_sensors+0x1a8>)
  401d10:	47a0      	blx	r4
	printf("Chirp sensor 2 ");
  401d12:	4829      	ldr	r0, [pc, #164]	; (401db8 <find_sensors+0x1ac>)
  401d14:	4b22      	ldr	r3, [pc, #136]	; (401da0 <find_sensors+0x194>)
  401d16:	4798      	blx	r3
	if ((sig_bytes[0] == CH_SIG_BYTE_0) && (sig_bytes[1] == CH_SIG_BYTE_1)) {
  401d18:	793b      	ldrb	r3, [r7, #4]
  401d1a:	2b0a      	cmp	r3, #10
  401d1c:	d106      	bne.n	401d2c <find_sensors+0x120>
  401d1e:	797b      	ldrb	r3, [r7, #5]
  401d20:	2b02      	cmp	r3, #2
  401d22:	d103      	bne.n	401d2c <find_sensors+0x120>
		printf("found\n");
  401d24:	481f      	ldr	r0, [pc, #124]	; (401da4 <find_sensors+0x198>)
  401d26:	4b1e      	ldr	r3, [pc, #120]	; (401da0 <find_sensors+0x194>)
  401d28:	4798      	blx	r3
  401d2a:	e002      	b.n	401d32 <find_sensors+0x126>
		} else {
		printf("not found\n");
  401d2c:	481e      	ldr	r0, [pc, #120]	; (401da8 <find_sensors+0x19c>)
  401d2e:	4b1c      	ldr	r3, [pc, #112]	; (401da0 <find_sensors+0x194>)
  401d30:	4798      	blx	r3
	}
	ioport_set_pin_level(CHIRP_PROG_2, IOPORT_PIN_LEVEL_LOW);
  401d32:	2100      	movs	r1, #0
  401d34:	2013      	movs	r0, #19
  401d36:	4b16      	ldr	r3, [pc, #88]	; (401d90 <find_sensors+0x184>)
  401d38:	4798      	blx	r3

	/* check sensor 3 (J9) */
	ioport_set_pin_level(CHIRP_PROG_3, IOPORT_PIN_LEVEL_HIGH);
  401d3a:	2101      	movs	r1, #1
  401d3c:	201f      	movs	r0, #31
  401d3e:	4b14      	ldr	r3, [pc, #80]	; (401d90 <find_sensors+0x184>)
  401d40:	4798      	blx	r3
	i2c_master_initialize3();
  401d42:	4b1b      	ldr	r3, [pc, #108]	; (401db0 <find_sensors+0x1a4>)
  401d44:	4798      	blx	r3
	sig_bytes[0] = 0;
  401d46:	2300      	movs	r3, #0
  401d48:	713b      	strb	r3, [r7, #4]
	sig_bytes[1] = 0;
  401d4a:	2300      	movs	r3, #0
  401d4c:	717b      	strb	r3, [r7, #5]
	i2c_master_read_register3(CH_I2C_ADDR_PROG, 0x00, 2, sig_bytes);
  401d4e:	1d3b      	adds	r3, r7, #4
  401d50:	2202      	movs	r2, #2
  401d52:	2100      	movs	r1, #0
  401d54:	2045      	movs	r0, #69	; 0x45
  401d56:	4c17      	ldr	r4, [pc, #92]	; (401db4 <find_sensors+0x1a8>)
  401d58:	47a0      	blx	r4
	printf("Chirp sensor 3 ");
  401d5a:	4818      	ldr	r0, [pc, #96]	; (401dbc <find_sensors+0x1b0>)
  401d5c:	4b10      	ldr	r3, [pc, #64]	; (401da0 <find_sensors+0x194>)
  401d5e:	4798      	blx	r3
	if ((sig_bytes[0] == CH_SIG_BYTE_0) && (sig_bytes[1] == CH_SIG_BYTE_1)) {
  401d60:	793b      	ldrb	r3, [r7, #4]
  401d62:	2b0a      	cmp	r3, #10
  401d64:	d106      	bne.n	401d74 <find_sensors+0x168>
  401d66:	797b      	ldrb	r3, [r7, #5]
  401d68:	2b02      	cmp	r3, #2
  401d6a:	d103      	bne.n	401d74 <find_sensors+0x168>
		printf("found\n");
  401d6c:	480d      	ldr	r0, [pc, #52]	; (401da4 <find_sensors+0x198>)
  401d6e:	4b0c      	ldr	r3, [pc, #48]	; (401da0 <find_sensors+0x194>)
  401d70:	4798      	blx	r3
  401d72:	e002      	b.n	401d7a <find_sensors+0x16e>
		} else {
		printf("not found\n");
  401d74:	480c      	ldr	r0, [pc, #48]	; (401da8 <find_sensors+0x19c>)
  401d76:	4b0a      	ldr	r3, [pc, #40]	; (401da0 <find_sensors+0x194>)
  401d78:	4798      	blx	r3
	}
	ioport_set_pin_level(CHIRP_PROG_3, IOPORT_PIN_LEVEL_LOW);
  401d7a:	2100      	movs	r1, #0
  401d7c:	201f      	movs	r0, #31
  401d7e:	4b04      	ldr	r3, [pc, #16]	; (401d90 <find_sensors+0x184>)
  401d80:	4798      	blx	r3
}
  401d82:	bf00      	nop
  401d84:	370c      	adds	r7, #12
  401d86:	46bd      	mov	sp, r7
  401d88:	bd90      	pop	{r4, r7, pc}
  401d8a:	bf00      	nop
  401d8c:	00401727 	.word	0x00401727
  401d90:	004017af 	.word	0x004017af
  401d94:	00408211 	.word	0x00408211
  401d98:	00408351 	.word	0x00408351
  401d9c:	0040c75c 	.word	0x0040c75c
  401da0:	004097cd 	.word	0x004097cd
  401da4:	0040c76c 	.word	0x0040c76c
  401da8:	0040c774 	.word	0x0040c774
  401dac:	0040c780 	.word	0x0040c780
  401db0:	00408289 	.word	0x00408289
  401db4:	004083e9 	.word	0x004083e9
  401db8:	0040c790 	.word	0x0040c790
  401dbc:	0040c7a0 	.word	0x0040c7a0

00401dc0 <ADC0_init>:

void ADC0_init(void) {
  401dc0:	b580      	push	{r7, lr}
  401dc2:	af00      	add	r7, sp, #0
	adc_enable();
  401dc4:	4b12      	ldr	r3, [pc, #72]	; (401e10 <ADC0_init+0x50>)
  401dc6:	4798      	blx	r3
	adc_select_clock_source_mck(ADC);
  401dc8:	4812      	ldr	r0, [pc, #72]	; (401e14 <ADC0_init+0x54>)
  401dca:	4b13      	ldr	r3, [pc, #76]	; (401e18 <ADC0_init+0x58>)
  401dcc:	4798      	blx	r3
	adc_get_config_defaults(&adc_cfg);
  401dce:	4813      	ldr	r0, [pc, #76]	; (401e1c <ADC0_init+0x5c>)
  401dd0:	4b13      	ldr	r3, [pc, #76]	; (401e20 <ADC0_init+0x60>)
  401dd2:	4798      	blx	r3
	adc_init(ADC, &adc_cfg);
  401dd4:	4911      	ldr	r1, [pc, #68]	; (401e1c <ADC0_init+0x5c>)
  401dd6:	480f      	ldr	r0, [pc, #60]	; (401e14 <ADC0_init+0x54>)
  401dd8:	4b12      	ldr	r3, [pc, #72]	; (401e24 <ADC0_init+0x64>)
  401dda:	4798      	blx	r3
	adc_channel_enable(ADC, ADC_CHANNEL_0);
  401ddc:	2100      	movs	r1, #0
  401dde:	480d      	ldr	r0, [pc, #52]	; (401e14 <ADC0_init+0x54>)
  401de0:	4b11      	ldr	r3, [pc, #68]	; (401e28 <ADC0_init+0x68>)
  401de2:	4798      	blx	r3
	adc_set_trigger(ADC, ADC_TRIG_FREERUN);
  401de4:	21ff      	movs	r1, #255	; 0xff
  401de6:	480b      	ldr	r0, [pc, #44]	; (401e14 <ADC0_init+0x54>)
  401de8:	4b10      	ldr	r3, [pc, #64]	; (401e2c <ADC0_init+0x6c>)
  401dea:	4798      	blx	r3

	adc_set_resolution(ADC, ADC_12_BITS);
  401dec:	2100      	movs	r1, #0
  401dee:	4809      	ldr	r0, [pc, #36]	; (401e14 <ADC0_init+0x54>)
  401df0:	4b0f      	ldr	r3, [pc, #60]	; (401e30 <ADC0_init+0x70>)
  401df2:	4798      	blx	r3

	adc_set_writeprotect(ADC, 0);
  401df4:	2100      	movs	r1, #0
  401df6:	4807      	ldr	r0, [pc, #28]	; (401e14 <ADC0_init+0x54>)
  401df8:	4b0e      	ldr	r3, [pc, #56]	; (401e34 <ADC0_init+0x74>)
  401dfa:	4798      	blx	r3
	*adc_reg = ADC_MODE_NO_AUTOTEST;// Set ADC converter to normal operation
  401dfc:	4b0e      	ldr	r3, [pc, #56]	; (401e38 <ADC0_init+0x78>)
  401dfe:	681b      	ldr	r3, [r3, #0]
  401e00:	2200      	movs	r2, #0
  401e02:	601a      	str	r2, [r3, #0]
	adc_set_writeprotect(ADC, 1);
  401e04:	2101      	movs	r1, #1
  401e06:	4803      	ldr	r0, [pc, #12]	; (401e14 <ADC0_init+0x54>)
  401e08:	4b0a      	ldr	r3, [pc, #40]	; (401e34 <ADC0_init+0x74>)
  401e0a:	4798      	blx	r3
}
  401e0c:	bf00      	nop
  401e0e:	bd80      	pop	{r7, pc}
  401e10:	00403735 	.word	0x00403735
  401e14:	40038000 	.word	0x40038000
  401e18:	004018a5 	.word	0x004018a5
  401e1c:	20000388 	.word	0x20000388
  401e20:	00403531 	.word	0x00403531
  401e24:	0040361d 	.word	0x0040361d
  401e28:	00401949 	.word	0x00401949
  401e2c:	004018cd 	.word	0x004018cd
  401e30:	0040367d 	.word	0x0040367d
  401e34:	00401911 	.word	0x00401911
  401e38:	20000168 	.word	0x20000168

00401e3c <ext_int_init>:

void ext_int_init(void)
{
  401e3c:	b590      	push	{r4, r7, lr}
  401e3e:	b083      	sub	sp, #12
  401e40:	af02      	add	r7, sp, #8
	/* Enable the peripheral clock for the MAG extension board interrupt pin. */
	pmc_enable_periph_clk(PIN_EXT_INTERRUPT_ID);
  401e42:	200b      	movs	r0, #11
  401e44:	4b41      	ldr	r3, [pc, #260]	; (401f4c <ext_int_init+0x110>)
  401e46:	4798      	blx	r3

	// Enable pull-downs on the INT pins
	pio_pull_up(PIN_EXT_INTERRUPT_PIO, 1 << CHIRP_INT_0 | 1 << CHIRP_INT_1 | 1 << CHIRP_INT_2 | 1 << CHIRP_INT_3, 0);
  401e48:	2200      	movs	r2, #0
  401e4a:	4941      	ldr	r1, [pc, #260]	; (401f50 <ext_int_init+0x114>)
  401e4c:	4841      	ldr	r0, [pc, #260]	; (401f54 <ext_int_init+0x118>)
  401e4e:	4b42      	ldr	r3, [pc, #264]	; (401f58 <ext_int_init+0x11c>)
  401e50:	4798      	blx	r3
	pio_pull_down(PIN_EXT_INTERRUPT_PIO, 1 << CHIRP_INT_0 | 1 << CHIRP_INT_1 | 1 << CHIRP_INT_2 | 1 << CHIRP_INT_3, 1);
  401e52:	2201      	movs	r2, #1
  401e54:	493e      	ldr	r1, [pc, #248]	; (401f50 <ext_int_init+0x114>)
  401e56:	483f      	ldr	r0, [pc, #252]	; (401f54 <ext_int_init+0x118>)
  401e58:	4b40      	ldr	r3, [pc, #256]	; (401f5c <ext_int_init+0x120>)
  401e5a:	4798      	blx	r3

	/* Configure PIOs as input pins. */
	pio_configure(PIN_EXT_INTERRUPT_PIO, PIN_EXT_INTERRUPT_TYPE, PIN_EXT_MotionINT_MASK, PIN_EXT_INTERRUPT_ATTR);
  401e5c:	2370      	movs	r3, #112	; 0x70
  401e5e:	f04f 4280 	mov.w	r2, #1073741824	; 0x40000000
  401e62:	f04f 5120 	mov.w	r1, #671088640	; 0x28000000
  401e66:	483b      	ldr	r0, [pc, #236]	; (401f54 <ext_int_init+0x118>)
  401e68:	4c3d      	ldr	r4, [pc, #244]	; (401f60 <ext_int_init+0x124>)
  401e6a:	47a0      	blx	r4
	pio_configure(PIN_EXT_INTERRUPT_PIO, PIN_EXT_INTERRUPT_TYPE, PIN_EXT_ChirpINT0_MASK, PIN_EXT_INTERRUPT_ATTR);
  401e6c:	2370      	movs	r3, #112	; 0x70
  401e6e:	f44f 1200 	mov.w	r2, #2097152	; 0x200000
  401e72:	f04f 5120 	mov.w	r1, #671088640	; 0x28000000
  401e76:	4837      	ldr	r0, [pc, #220]	; (401f54 <ext_int_init+0x118>)
  401e78:	4c39      	ldr	r4, [pc, #228]	; (401f60 <ext_int_init+0x124>)
  401e7a:	47a0      	blx	r4
	pio_configure(PIN_EXT_INTERRUPT_PIO, PIN_EXT_INTERRUPT_TYPE, PIN_EXT_ChirpINT1_MASK, PIN_EXT_INTERRUPT_ATTR);
  401e7c:	2370      	movs	r3, #112	; 0x70
  401e7e:	f44f 0280 	mov.w	r2, #4194304	; 0x400000
  401e82:	f04f 5120 	mov.w	r1, #671088640	; 0x28000000
  401e86:	4833      	ldr	r0, [pc, #204]	; (401f54 <ext_int_init+0x118>)
  401e88:	4c35      	ldr	r4, [pc, #212]	; (401f60 <ext_int_init+0x124>)
  401e8a:	47a0      	blx	r4
	pio_configure(PIN_EXT_INTERRUPT_PIO, PIN_EXT_INTERRUPT_TYPE, PIN_EXT_ChirpINT2_MASK, PIN_EXT_INTERRUPT_ATTR);
  401e8c:	2370      	movs	r3, #112	; 0x70
  401e8e:	f44f 0200 	mov.w	r2, #8388608	; 0x800000
  401e92:	f04f 5120 	mov.w	r1, #671088640	; 0x28000000
  401e96:	482f      	ldr	r0, [pc, #188]	; (401f54 <ext_int_init+0x118>)
  401e98:	4c31      	ldr	r4, [pc, #196]	; (401f60 <ext_int_init+0x124>)
  401e9a:	47a0      	blx	r4
	pio_configure(PIN_EXT_INTERRUPT_PIO, PIN_EXT_INTERRUPT_TYPE, PIN_EXT_ChirpINT3_MASK, PIN_EXT_INTERRUPT_ATTR);
  401e9c:	2370      	movs	r3, #112	; 0x70
  401e9e:	f04f 5200 	mov.w	r2, #536870912	; 0x20000000
  401ea2:	f04f 5120 	mov.w	r1, #671088640	; 0x28000000
  401ea6:	482b      	ldr	r0, [pc, #172]	; (401f54 <ext_int_init+0x118>)
  401ea8:	4c2d      	ldr	r4, [pc, #180]	; (401f60 <ext_int_init+0x124>)
  401eaa:	47a0      	blx	r4

	/* Initialize PIO interrupt handler, interrupt on rising edge. */
	pio_handler_set(PIN_EXT_INTERRUPT_PIO, PIN_EXT_INTERRUPT_ID, PIN_EXT_MotionINT_MASK,
  401eac:	2300      	movs	r3, #0
  401eae:	9300      	str	r3, [sp, #0]
  401eb0:	2370      	movs	r3, #112	; 0x70
  401eb2:	f04f 4280 	mov.w	r2, #1073741824	; 0x40000000
  401eb6:	210b      	movs	r1, #11
  401eb8:	4826      	ldr	r0, [pc, #152]	; (401f54 <ext_int_init+0x118>)
  401eba:	4c2a      	ldr	r4, [pc, #168]	; (401f64 <ext_int_init+0x128>)
  401ebc:	47a0      	blx	r4
		PIN_EXT_INTERRUPT_ATTR, NULL);
	pio_handler_set(PIN_EXT_INTERRUPT_PIO, PIN_EXT_INTERRUPT_ID, PIN_EXT_ChirpINT0_MASK,
  401ebe:	2300      	movs	r3, #0
  401ec0:	9300      	str	r3, [sp, #0]
  401ec2:	2370      	movs	r3, #112	; 0x70
  401ec4:	f44f 1200 	mov.w	r2, #2097152	; 0x200000
  401ec8:	210b      	movs	r1, #11
  401eca:	4822      	ldr	r0, [pc, #136]	; (401f54 <ext_int_init+0x118>)
  401ecc:	4c25      	ldr	r4, [pc, #148]	; (401f64 <ext_int_init+0x128>)
  401ece:	47a0      	blx	r4
		PIN_EXT_INTERRUPT_ATTR, NULL);
	pio_handler_set(PIN_EXT_INTERRUPT_PIO, PIN_EXT_INTERRUPT_ID, PIN_EXT_ChirpINT1_MASK,
  401ed0:	2300      	movs	r3, #0
  401ed2:	9300      	str	r3, [sp, #0]
  401ed4:	2370      	movs	r3, #112	; 0x70
  401ed6:	f44f 0280 	mov.w	r2, #4194304	; 0x400000
  401eda:	210b      	movs	r1, #11
  401edc:	481d      	ldr	r0, [pc, #116]	; (401f54 <ext_int_init+0x118>)
  401ede:	4c21      	ldr	r4, [pc, #132]	; (401f64 <ext_int_init+0x128>)
  401ee0:	47a0      	blx	r4
		PIN_EXT_INTERRUPT_ATTR, NULL);
	pio_handler_set(PIN_EXT_INTERRUPT_PIO, PIN_EXT_INTERRUPT_ID, PIN_EXT_ChirpINT2_MASK,
  401ee2:	2300      	movs	r3, #0
  401ee4:	9300      	str	r3, [sp, #0]
  401ee6:	2370      	movs	r3, #112	; 0x70
  401ee8:	f44f 0200 	mov.w	r2, #8388608	; 0x800000
  401eec:	210b      	movs	r1, #11
  401eee:	4819      	ldr	r0, [pc, #100]	; (401f54 <ext_int_init+0x118>)
  401ef0:	4c1c      	ldr	r4, [pc, #112]	; (401f64 <ext_int_init+0x128>)
  401ef2:	47a0      	blx	r4
		PIN_EXT_INTERRUPT_ATTR, NULL);
	pio_handler_set(PIN_EXT_INTERRUPT_PIO, PIN_EXT_INTERRUPT_ID, PIN_EXT_ChirpINT3_MASK,
  401ef4:	2300      	movs	r3, #0
  401ef6:	9300      	str	r3, [sp, #0]
  401ef8:	2370      	movs	r3, #112	; 0x70
  401efa:	f04f 5200 	mov.w	r2, #536870912	; 0x20000000
  401efe:	210b      	movs	r1, #11
  401f00:	4814      	ldr	r0, [pc, #80]	; (401f54 <ext_int_init+0x118>)
  401f02:	4c18      	ldr	r4, [pc, #96]	; (401f64 <ext_int_init+0x128>)
  401f04:	47a0      	blx	r4
		PIN_EXT_INTERRUPT_ATTR, NULL);

	/* Initialize and enable push button (PIO) interrupt. */
	pio_handler_set_priority(PIN_EXT_INTERRUPT_PIO, PIN_EXT_INTERRUPT_IRQn, 0);
  401f06:	2200      	movs	r2, #0
  401f08:	210b      	movs	r1, #11
  401f0a:	4812      	ldr	r0, [pc, #72]	; (401f54 <ext_int_init+0x118>)
  401f0c:	4b16      	ldr	r3, [pc, #88]	; (401f68 <ext_int_init+0x12c>)
  401f0e:	4798      	blx	r3

	/* Disable Motion interrupt before IMU initialization */
	pio_disable_interrupt(PIN_EXT_INTERRUPT_PIO, PIN_EXT_MotionINT_MASK);
  401f10:	f04f 4180 	mov.w	r1, #1073741824	; 0x40000000
  401f14:	480f      	ldr	r0, [pc, #60]	; (401f54 <ext_int_init+0x118>)
  401f16:	4b15      	ldr	r3, [pc, #84]	; (401f6c <ext_int_init+0x130>)
  401f18:	4798      	blx	r3
	/* Disable all CHx01 interrupts */
	pio_disable_interrupt(PIN_EXT_INTERRUPT_PIO, PIN_EXT_ChirpINT0_MASK);
  401f1a:	f44f 1100 	mov.w	r1, #2097152	; 0x200000
  401f1e:	480d      	ldr	r0, [pc, #52]	; (401f54 <ext_int_init+0x118>)
  401f20:	4b12      	ldr	r3, [pc, #72]	; (401f6c <ext_int_init+0x130>)
  401f22:	4798      	blx	r3
	pio_disable_interrupt(PIN_EXT_INTERRUPT_PIO, PIN_EXT_ChirpINT1_MASK);
  401f24:	f44f 0180 	mov.w	r1, #4194304	; 0x400000
  401f28:	480a      	ldr	r0, [pc, #40]	; (401f54 <ext_int_init+0x118>)
  401f2a:	4b10      	ldr	r3, [pc, #64]	; (401f6c <ext_int_init+0x130>)
  401f2c:	4798      	blx	r3
	pio_disable_interrupt(PIN_EXT_INTERRUPT_PIO, PIN_EXT_ChirpINT2_MASK);
  401f2e:	f44f 0100 	mov.w	r1, #8388608	; 0x800000
  401f32:	4808      	ldr	r0, [pc, #32]	; (401f54 <ext_int_init+0x118>)
  401f34:	4b0d      	ldr	r3, [pc, #52]	; (401f6c <ext_int_init+0x130>)
  401f36:	4798      	blx	r3
	pio_disable_interrupt(PIN_EXT_INTERRUPT_PIO, PIN_EXT_ChirpINT3_MASK);
  401f38:	f04f 5100 	mov.w	r1, #536870912	; 0x20000000
  401f3c:	4805      	ldr	r0, [pc, #20]	; (401f54 <ext_int_init+0x118>)
  401f3e:	4b0b      	ldr	r3, [pc, #44]	; (401f6c <ext_int_init+0x130>)
  401f40:	4798      	blx	r3
}
  401f42:	bf00      	nop
  401f44:	3704      	adds	r7, #4
  401f46:	46bd      	mov	sp, r7
  401f48:	bd90      	pop	{r4, r7, pc}
  401f4a:	bf00      	nop
  401f4c:	0040436d 	.word	0x0040436d
  401f50:	20e00000 	.word	0x20e00000
  401f54:	400e0e00 	.word	0x400e0e00
  401f58:	00403a47 	.word	0x00403a47
  401f5c:	00403cb5 	.word	0x00403cb5
  401f60:	00403bf5 	.word	0x00403bf5
  401f64:	00403f5d 	.word	0x00403f5d
  401f68:	00404019 	.word	0x00404019
  401f6c:	00403d6d 	.word	0x00403d6d

00401f70 <chbsp_board_init>:
/*!
 * \brief Initialize board hardware
 *
 * \note This function performs all necessary initialization on the board.
 */
void chbsp_board_init(ch_group_t *grp_ptr) {
  401f70:	b580      	push	{r7, lr}
  401f72:	b082      	sub	sp, #8
  401f74:	af00      	add	r7, sp, #0
  401f76:	6078      	str	r0, [r7, #4]

	/* Make local copy of group pointer */
	sensor_group_ptr = grp_ptr;
  401f78:	4a0f      	ldr	r2, [pc, #60]	; (401fb8 <chbsp_board_init+0x48>)
  401f7a:	687b      	ldr	r3, [r7, #4]
  401f7c:	6013      	str	r3, [r2, #0]

	/* Initialize group descriptor */
	grp_ptr->num_ports = CHBSP_MAX_DEVICES;
  401f7e:	687b      	ldr	r3, [r7, #4]
  401f80:	2204      	movs	r2, #4
  401f82:	701a      	strb	r2, [r3, #0]
	grp_ptr->num_i2c_buses = CHBSP_NUM_I2C_BUSES;
  401f84:	687b      	ldr	r3, [r7, #4]
  401f86:	2202      	movs	r2, #2
  401f88:	705a      	strb	r2, [r3, #1]
	grp_ptr->rtc_cal_pulse_ms = CHBSP_RTC_CAL_PULSE_MS;
  401f8a:	687b      	ldr	r3, [r7, #4]
  401f8c:	2264      	movs	r2, #100	; 0x64
  401f8e:	80da      	strh	r2, [r3, #6]

	/* Initialize the SAM system. */
	sysclk_init();
  401f90:	4b0a      	ldr	r3, [pc, #40]	; (401fbc <chbsp_board_init+0x4c>)
  401f92:	4798      	blx	r3
	board_init_I2C();
  401f94:	4b0a      	ldr	r3, [pc, #40]	; (401fc0 <chbsp_board_init+0x50>)
  401f96:	4798      	blx	r3

	configure_console();
  401f98:	4b0a      	ldr	r3, [pc, #40]	; (401fc4 <chbsp_board_init+0x54>)
  401f9a:	4798      	blx	r3

	ADC0_init();
  401f9c:	4b0a      	ldr	r3, [pc, #40]	; (401fc8 <chbsp_board_init+0x58>)
  401f9e:	4798      	blx	r3
	ext_int_init();
  401fa0:	4b0a      	ldr	r3, [pc, #40]	; (401fcc <chbsp_board_init+0x5c>)
  401fa2:	4798      	blx	r3

	/* Probe I2C bus to find connected sensor(s) */
	find_sensors();
  401fa4:	4b0a      	ldr	r3, [pc, #40]	; (401fd0 <chbsp_board_init+0x60>)
  401fa6:	4798      	blx	r3
	measure_power();
  401fa8:	4b0a      	ldr	r3, [pc, #40]	; (401fd4 <chbsp_board_init+0x64>)
  401faa:	4798      	blx	r3

	indicate_alive();
  401fac:	4b0a      	ldr	r3, [pc, #40]	; (401fd8 <chbsp_board_init+0x68>)
  401fae:	4798      	blx	r3
}
  401fb0:	bf00      	nop
  401fb2:	3708      	adds	r7, #8
  401fb4:	46bd      	mov	sp, r7
  401fb6:	bd80      	pop	{r7, pc}
  401fb8:	200008f4 	.word	0x200008f4
  401fbc:	00400d31 	.word	0x00400d31
  401fc0:	00403285 	.word	0x00403285
  401fc4:	00408e05 	.word	0x00408e05
  401fc8:	00401dc1 	.word	0x00401dc1
  401fcc:	00401e3d 	.word	0x00401e3d
  401fd0:	00401c0d 	.word	0x00401c0d
  401fd4:	00401be1 	.word	0x00401be1
  401fd8:	00401429 	.word	0x00401429

00401fdc <chbsp_reset_assert>:
/*!
 * \brief Assert the reset pin
 *
 * This function drives the sensor reset pin low.
 */
void chbsp_reset_assert(void) {
  401fdc:	b580      	push	{r7, lr}
  401fde:	af00      	add	r7, sp, #0

	ioport_set_pin_level(CHIRP_RST, IOPORT_PIN_LEVEL_LOW); //reset=L
  401fe0:	2100      	movs	r1, #0
  401fe2:	200f      	movs	r0, #15
  401fe4:	4b01      	ldr	r3, [pc, #4]	; (401fec <chbsp_reset_assert+0x10>)
  401fe6:	4798      	blx	r3
}
  401fe8:	bf00      	nop
  401fea:	bd80      	pop	{r7, pc}
  401fec:	004017af 	.word	0x004017af

00401ff0 <chbsp_reset_release>:
/*!
 * \brief Deassert the reset pin
 *
 * This function drives the sensor reset pin high.
 */
void chbsp_reset_release(void) {
  401ff0:	b580      	push	{r7, lr}
  401ff2:	af00      	add	r7, sp, #0

	ioport_set_pin_level(CHIRP_RST, IOPORT_PIN_LEVEL_HIGH); //reset=H
  401ff4:	2101      	movs	r1, #1
  401ff6:	200f      	movs	r0, #15
  401ff8:	4b01      	ldr	r3, [pc, #4]	; (402000 <chbsp_reset_release+0x10>)
  401ffa:	4798      	blx	r3
}
  401ffc:	bf00      	nop
  401ffe:	bd80      	pop	{r7, pc}
  402000:	004017af 	.word	0x004017af

00402004 <chbsp_program_enable>:
 *
 * \param dev_ptr 		pointer to the ch_dev_t config structure for a sensor
 *
 * This function drives the sensor PROG pin high on the specified port.
 */
void chbsp_program_enable(ch_dev_t *dev_ptr) {
  402004:	b580      	push	{r7, lr}
  402006:	b084      	sub	sp, #16
  402008:	af00      	add	r7, sp, #0
  40200a:	6078      	str	r0, [r7, #4]
	uint8_t dev_num = ch_get_dev_num(dev_ptr);
  40200c:	6878      	ldr	r0, [r7, #4]
  40200e:	4b08      	ldr	r3, [pc, #32]	; (402030 <chbsp_program_enable+0x2c>)
  402010:	4798      	blx	r3
  402012:	4603      	mov	r3, r0
  402014:	73fb      	strb	r3, [r7, #15]

	// select Chirp chip PROGRAM line on Atmel board according to chip number
	ioport_set_pin_level(chirp_pin_prog[dev_num], IOPORT_PIN_LEVEL_HIGH); //PROG_0=H
  402016:	7bfb      	ldrb	r3, [r7, #15]
  402018:	4a06      	ldr	r2, [pc, #24]	; (402034 <chbsp_program_enable+0x30>)
  40201a:	f852 3023 	ldr.w	r3, [r2, r3, lsl #2]
  40201e:	2101      	movs	r1, #1
  402020:	4618      	mov	r0, r3
  402022:	4b05      	ldr	r3, [pc, #20]	; (402038 <chbsp_program_enable+0x34>)
  402024:	4798      	blx	r3
}
  402026:	bf00      	nop
  402028:	3710      	adds	r7, #16
  40202a:	46bd      	mov	sp, r7
  40202c:	bd80      	pop	{r7, pc}
  40202e:	bf00      	nop
  402030:	004059b9 	.word	0x004059b9
  402034:	20000120 	.word	0x20000120
  402038:	004017af 	.word	0x004017af

0040203c <chbsp_program_disable>:
 *
 * \param dev_ptr 		pointer to the ch_dev_t config structure for a sensor
 *
 * This function drives the sensor PROG pin low on the specified port.
 */
void chbsp_program_disable(ch_dev_t *dev_ptr) {
  40203c:	b580      	push	{r7, lr}
  40203e:	b084      	sub	sp, #16
  402040:	af00      	add	r7, sp, #0
  402042:	6078      	str	r0, [r7, #4]
	uint8_t dev_num = ch_get_dev_num(dev_ptr);
  402044:	6878      	ldr	r0, [r7, #4]
  402046:	4b08      	ldr	r3, [pc, #32]	; (402068 <chbsp_program_disable+0x2c>)
  402048:	4798      	blx	r3
  40204a:	4603      	mov	r3, r0
  40204c:	73fb      	strb	r3, [r7, #15]

	// select Chirp chip PROGRAM line on Atmel board according to chip number
	ioport_set_pin_level(chirp_pin_prog[dev_num], IOPORT_PIN_LEVEL_LOW); //PROG_0=L
  40204e:	7bfb      	ldrb	r3, [r7, #15]
  402050:	4a06      	ldr	r2, [pc, #24]	; (40206c <chbsp_program_disable+0x30>)
  402052:	f852 3023 	ldr.w	r3, [r2, r3, lsl #2]
  402056:	2100      	movs	r1, #0
  402058:	4618      	mov	r0, r3
  40205a:	4b05      	ldr	r3, [pc, #20]	; (402070 <chbsp_program_disable+0x34>)
  40205c:	4798      	blx	r3
}
  40205e:	bf00      	nop
  402060:	3710      	adds	r7, #16
  402062:	46bd      	mov	sp, r7
  402064:	bd80      	pop	{r7, pc}
  402066:	bf00      	nop
  402068:	004059b9 	.word	0x004059b9
  40206c:	20000120 	.word	0x20000120
  402070:	004017af 	.word	0x004017af

00402074 <chbsp_set_io_dir_in>:
 * \param dev_ptr 		pointer to the ch_dev_t config structure for a sensor
 *
 * This function configures the Chirp sensor INT pin as an input (from the perspective of
 * the host system).
 */
void chbsp_set_io_dir_in(ch_dev_t *dev_ptr) {
  402074:	b580      	push	{r7, lr}
  402076:	b084      	sub	sp, #16
  402078:	af00      	add	r7, sp, #0
  40207a:	6078      	str	r0, [r7, #4]
	uint8_t dev_num = ch_get_dev_num(dev_ptr);
  40207c:	6878      	ldr	r0, [r7, #4]
  40207e:	4b08      	ldr	r3, [pc, #32]	; (4020a0 <chbsp_set_io_dir_in+0x2c>)
  402080:	4798      	blx	r3
  402082:	4603      	mov	r3, r0
  402084:	73fb      	strb	r3, [r7, #15]

	ioport_set_pin_dir(chirp_pin_io[dev_num], IOPORT_DIR_INPUT);
  402086:	7bfb      	ldrb	r3, [r7, #15]
  402088:	4a06      	ldr	r2, [pc, #24]	; (4020a4 <chbsp_set_io_dir_in+0x30>)
  40208a:	f852 3023 	ldr.w	r3, [r2, r3, lsl #2]
  40208e:	2100      	movs	r1, #0
  402090:	4618      	mov	r0, r3
  402092:	4b05      	ldr	r3, [pc, #20]	; (4020a8 <chbsp_set_io_dir_in+0x34>)
  402094:	4798      	blx	r3
}
  402096:	bf00      	nop
  402098:	3710      	adds	r7, #16
  40209a:	46bd      	mov	sp, r7
  40209c:	bd80      	pop	{r7, pc}
  40209e:	bf00      	nop
  4020a0:	004059b9 	.word	0x004059b9
  4020a4:	20000130 	.word	0x20000130
  4020a8:	00401727 	.word	0x00401727

004020ac <chbsp_group_set_io_dir_out>:
 * \param grp_ptr 		pointer to the ch_group_t config structure for a group of sensors
 *
 * This function configures each Chirp sensor's INT pin as an output (from the perspective
 * of the host system).
 */
void chbsp_group_set_io_dir_out(ch_group_t *grp_ptr) {
  4020ac:	b580      	push	{r7, lr}
  4020ae:	b086      	sub	sp, #24
  4020b0:	af00      	add	r7, sp, #0
  4020b2:	6078      	str	r0, [r7, #4]
	ioport_port_mask_t mask = 0;
  4020b4:	2300      	movs	r3, #0
  4020b6:	617b      	str	r3, [r7, #20]
	uint8_t dev_num;

	for (dev_num = 0; dev_num < ch_get_num_ports(grp_ptr); dev_num++)
  4020b8:	2300      	movs	r3, #0
  4020ba:	74fb      	strb	r3, [r7, #19]
  4020bc:	e019      	b.n	4020f2 <chbsp_group_set_io_dir_out+0x46>
	{
		ch_dev_t *dev_ptr = ch_get_dev_ptr(grp_ptr, dev_num);
  4020be:	7cfb      	ldrb	r3, [r7, #19]
  4020c0:	4619      	mov	r1, r3
  4020c2:	6878      	ldr	r0, [r7, #4]
  4020c4:	4b13      	ldr	r3, [pc, #76]	; (402114 <chbsp_group_set_io_dir_out+0x68>)
  4020c6:	4798      	blx	r3
  4020c8:	60f8      	str	r0, [r7, #12]

		if (ch_sensor_is_connected(dev_ptr))
  4020ca:	68f8      	ldr	r0, [r7, #12]
  4020cc:	4b12      	ldr	r3, [pc, #72]	; (402118 <chbsp_group_set_io_dir_out+0x6c>)
  4020ce:	4798      	blx	r3
  4020d0:	4603      	mov	r3, r0
  4020d2:	2b00      	cmp	r3, #0
  4020d4:	d00a      	beq.n	4020ec <chbsp_group_set_io_dir_out+0x40>
			mask |= ioport_pin_to_mask(chirp_pin_io[dev_num]);
  4020d6:	7cfb      	ldrb	r3, [r7, #19]
  4020d8:	4a10      	ldr	r2, [pc, #64]	; (40211c <chbsp_group_set_io_dir_out+0x70>)
  4020da:	f852 3023 	ldr.w	r3, [r2, r3, lsl #2]
  4020de:	4618      	mov	r0, r3
  4020e0:	4b0f      	ldr	r3, [pc, #60]	; (402120 <chbsp_group_set_io_dir_out+0x74>)
  4020e2:	4798      	blx	r3
  4020e4:	4602      	mov	r2, r0
  4020e6:	697b      	ldr	r3, [r7, #20]
  4020e8:	4313      	orrs	r3, r2
  4020ea:	617b      	str	r3, [r7, #20]
	for (dev_num = 0; dev_num < ch_get_num_ports(grp_ptr); dev_num++)
  4020ec:	7cfb      	ldrb	r3, [r7, #19]
  4020ee:	3301      	adds	r3, #1
  4020f0:	74fb      	strb	r3, [r7, #19]
  4020f2:	6878      	ldr	r0, [r7, #4]
  4020f4:	4b0b      	ldr	r3, [pc, #44]	; (402124 <chbsp_group_set_io_dir_out+0x78>)
  4020f6:	4798      	blx	r3
  4020f8:	4603      	mov	r3, r0
  4020fa:	461a      	mov	r2, r3
  4020fc:	7cfb      	ldrb	r3, [r7, #19]
  4020fe:	4293      	cmp	r3, r2
  402100:	d3dd      	bcc.n	4020be <chbsp_group_set_io_dir_out+0x12>
	}

	ioport_set_port_dir(IOPORT_PIOA, mask, IOPORT_DIR_OUTPUT);
  402102:	2201      	movs	r2, #1
  402104:	6979      	ldr	r1, [r7, #20]
  402106:	2000      	movs	r0, #0
  402108:	4b07      	ldr	r3, [pc, #28]	; (402128 <chbsp_group_set_io_dir_out+0x7c>)
  40210a:	4798      	blx	r3
}
  40210c:	bf00      	nop
  40210e:	3718      	adds	r7, #24
  402110:	46bd      	mov	sp, r7
  402112:	bd80      	pop	{r7, pc}
  402114:	004059d3 	.word	0x004059d3
  402118:	00405989 	.word	0x00405989
  40211c:	20000130 	.word	0x20000130
  402120:	00401867 	.word	0x00401867
  402124:	00405a27 	.word	0x00405a27
  402128:	004016cd 	.word	0x004016cd

0040212c <chbsp_group_set_io_dir_in>:
 *
 * \param grp_ptr 		pointer to the ch_group_t config structure for a group of sensors
 *
 * \note This function assumes a bidirectional level shifter is interfacing the ICs.
 */
void chbsp_group_set_io_dir_in(ch_group_t *grp_ptr) {
  40212c:	b580      	push	{r7, lr}
  40212e:	b086      	sub	sp, #24
  402130:	af00      	add	r7, sp, #0
  402132:	6078      	str	r0, [r7, #4]
	ioport_port_mask_t mask = 0;
  402134:	2300      	movs	r3, #0
  402136:	617b      	str	r3, [r7, #20]
	uint8_t dev_num;

	for (dev_num = 0; dev_num < ch_get_num_ports(grp_ptr); dev_num++) {
  402138:	2300      	movs	r3, #0
  40213a:	74fb      	strb	r3, [r7, #19]
  40213c:	e019      	b.n	402172 <chbsp_group_set_io_dir_in+0x46>
		ch_dev_t *dev_ptr = ch_get_dev_ptr(grp_ptr, dev_num);
  40213e:	7cfb      	ldrb	r3, [r7, #19]
  402140:	4619      	mov	r1, r3
  402142:	6878      	ldr	r0, [r7, #4]
  402144:	4b13      	ldr	r3, [pc, #76]	; (402194 <chbsp_group_set_io_dir_in+0x68>)
  402146:	4798      	blx	r3
  402148:	60f8      	str	r0, [r7, #12]

		if (ch_sensor_is_connected(dev_ptr)) {
  40214a:	68f8      	ldr	r0, [r7, #12]
  40214c:	4b12      	ldr	r3, [pc, #72]	; (402198 <chbsp_group_set_io_dir_in+0x6c>)
  40214e:	4798      	blx	r3
  402150:	4603      	mov	r3, r0
  402152:	2b00      	cmp	r3, #0
  402154:	d00a      	beq.n	40216c <chbsp_group_set_io_dir_in+0x40>
			mask |= ioport_pin_to_mask(chirp_pin_io[dev_num]);
  402156:	7cfb      	ldrb	r3, [r7, #19]
  402158:	4a10      	ldr	r2, [pc, #64]	; (40219c <chbsp_group_set_io_dir_in+0x70>)
  40215a:	f852 3023 	ldr.w	r3, [r2, r3, lsl #2]
  40215e:	4618      	mov	r0, r3
  402160:	4b0f      	ldr	r3, [pc, #60]	; (4021a0 <chbsp_group_set_io_dir_in+0x74>)
  402162:	4798      	blx	r3
  402164:	4602      	mov	r2, r0
  402166:	697b      	ldr	r3, [r7, #20]
  402168:	4313      	orrs	r3, r2
  40216a:	617b      	str	r3, [r7, #20]
	for (dev_num = 0; dev_num < ch_get_num_ports(grp_ptr); dev_num++) {
  40216c:	7cfb      	ldrb	r3, [r7, #19]
  40216e:	3301      	adds	r3, #1
  402170:	74fb      	strb	r3, [r7, #19]
  402172:	6878      	ldr	r0, [r7, #4]
  402174:	4b0b      	ldr	r3, [pc, #44]	; (4021a4 <chbsp_group_set_io_dir_in+0x78>)
  402176:	4798      	blx	r3
  402178:	4603      	mov	r3, r0
  40217a:	461a      	mov	r2, r3
  40217c:	7cfb      	ldrb	r3, [r7, #19]
  40217e:	4293      	cmp	r3, r2
  402180:	d3dd      	bcc.n	40213e <chbsp_group_set_io_dir_in+0x12>
		}
	}

	ioport_set_port_dir(IOPORT_PIOA, mask, IOPORT_DIR_INPUT);
  402182:	2200      	movs	r2, #0
  402184:	6979      	ldr	r1, [r7, #20]
  402186:	2000      	movs	r0, #0
  402188:	4b07      	ldr	r3, [pc, #28]	; (4021a8 <chbsp_group_set_io_dir_in+0x7c>)
  40218a:	4798      	blx	r3
}
  40218c:	bf00      	nop
  40218e:	3718      	adds	r7, #24
  402190:	46bd      	mov	sp, r7
  402192:	bd80      	pop	{r7, pc}
  402194:	004059d3 	.word	0x004059d3
  402198:	00405989 	.word	0x00405989
  40219c:	20000130 	.word	0x20000130
  4021a0:	00401867 	.word	0x00401867
  4021a4:	00405a27 	.word	0x00405a27
  4021a8:	004016cd 	.word	0x004016cd

004021ac <chbsp_group_pin_init>:
 * \param grp_ptr 		pointer to the ch_group_t config structure for a group of sensors
 *
 * Configure reset and program pins as outputs. Assert reset and program. Configure
 * sensor INT pin as input.
 */
void chbsp_group_pin_init(ch_group_t *grp_ptr) {
  4021ac:	b590      	push	{r4, r7, lr}
  4021ae:	b087      	sub	sp, #28
  4021b0:	af02      	add	r7, sp, #8
  4021b2:	6078      	str	r0, [r7, #4]
	uint8_t dev_num;
	uint8_t port_num;

	ioport_set_pin_dir(CHIRP_PROG_0, IOPORT_DIR_OUTPUT); //PROG_0=output
  4021b4:	2101      	movs	r1, #1
  4021b6:	2010      	movs	r0, #16
  4021b8:	4b3a      	ldr	r3, [pc, #232]	; (4022a4 <chbsp_group_pin_init+0xf8>)
  4021ba:	4798      	blx	r3
	ioport_set_pin_dir(CHIRP_PROG_1, IOPORT_DIR_OUTPUT); //PROG_1=output
  4021bc:	2101      	movs	r1, #1
  4021be:	2012      	movs	r0, #18
  4021c0:	4b38      	ldr	r3, [pc, #224]	; (4022a4 <chbsp_group_pin_init+0xf8>)
  4021c2:	4798      	blx	r3
	ioport_set_pin_dir(CHIRP_PROG_2, IOPORT_DIR_OUTPUT); //PROG_2=output
  4021c4:	2101      	movs	r1, #1
  4021c6:	2013      	movs	r0, #19
  4021c8:	4b36      	ldr	r3, [pc, #216]	; (4022a4 <chbsp_group_pin_init+0xf8>)
  4021ca:	4798      	blx	r3
	ioport_set_pin_dir(CHIRP_PROG_3, IOPORT_DIR_OUTPUT); //PROG_3=output
  4021cc:	2101      	movs	r1, #1
  4021ce:	201f      	movs	r0, #31
  4021d0:	4b34      	ldr	r3, [pc, #208]	; (4022a4 <chbsp_group_pin_init+0xf8>)
  4021d2:	4798      	blx	r3

	ioport_set_pin_level(CHIRP_PROG_0, IOPORT_PIN_LEVEL_LOW); //PROG_0=L
  4021d4:	2100      	movs	r1, #0
  4021d6:	2010      	movs	r0, #16
  4021d8:	4b33      	ldr	r3, [pc, #204]	; (4022a8 <chbsp_group_pin_init+0xfc>)
  4021da:	4798      	blx	r3
	ioport_set_pin_level(CHIRP_PROG_1, IOPORT_PIN_LEVEL_LOW); //PROG_1=L
  4021dc:	2100      	movs	r1, #0
  4021de:	2012      	movs	r0, #18
  4021e0:	4b31      	ldr	r3, [pc, #196]	; (4022a8 <chbsp_group_pin_init+0xfc>)
  4021e2:	4798      	blx	r3
	ioport_set_pin_level(CHIRP_PROG_2, IOPORT_PIN_LEVEL_LOW); //PROG_2=L
  4021e4:	2100      	movs	r1, #0
  4021e6:	2013      	movs	r0, #19
  4021e8:	4b2f      	ldr	r3, [pc, #188]	; (4022a8 <chbsp_group_pin_init+0xfc>)
  4021ea:	4798      	blx	r3
	ioport_set_pin_level(CHIRP_PROG_3, IOPORT_PIN_LEVEL_LOW); //PROG_3=L
  4021ec:	2100      	movs	r1, #0
  4021ee:	201f      	movs	r0, #31
  4021f0:	4b2d      	ldr	r3, [pc, #180]	; (4022a8 <chbsp_group_pin_init+0xfc>)
  4021f2:	4798      	blx	r3

	ioport_set_pin_dir(CHIRP_RST, IOPORT_DIR_OUTPUT); //reset=output
  4021f4:	2101      	movs	r1, #1
  4021f6:	200f      	movs	r0, #15
  4021f8:	4b2a      	ldr	r3, [pc, #168]	; (4022a4 <chbsp_group_pin_init+0xf8>)
  4021fa:	4798      	blx	r3
	chbsp_reset_assert();
  4021fc:	4b2b      	ldr	r3, [pc, #172]	; (4022ac <chbsp_group_pin_init+0x100>)
  4021fe:	4798      	blx	r3


	for (dev_num = 0; dev_num < grp_ptr->num_ports; dev_num++) {
  402200:	2300      	movs	r3, #0
  402202:	73fb      	strb	r3, [r7, #15]
  402204:	e00b      	b.n	40221e <chbsp_group_pin_init+0x72>
		ch_dev_t *dev_ptr = ch_get_dev_ptr(grp_ptr, dev_num);
  402206:	7bfb      	ldrb	r3, [r7, #15]
  402208:	4619      	mov	r1, r3
  40220a:	6878      	ldr	r0, [r7, #4]
  40220c:	4b28      	ldr	r3, [pc, #160]	; (4022b0 <chbsp_group_pin_init+0x104>)
  40220e:	4798      	blx	r3
  402210:	60b8      	str	r0, [r7, #8]

		chbsp_program_enable(dev_ptr);
  402212:	68b8      	ldr	r0, [r7, #8]
  402214:	4b27      	ldr	r3, [pc, #156]	; (4022b4 <chbsp_group_pin_init+0x108>)
  402216:	4798      	blx	r3
	for (dev_num = 0; dev_num < grp_ptr->num_ports; dev_num++) {
  402218:	7bfb      	ldrb	r3, [r7, #15]
  40221a:	3301      	adds	r3, #1
  40221c:	73fb      	strb	r3, [r7, #15]
  40221e:	687b      	ldr	r3, [r7, #4]
  402220:	781b      	ldrb	r3, [r3, #0]
  402222:	7bfa      	ldrb	r2, [r7, #15]
  402224:	429a      	cmp	r2, r3
  402226:	d3ee      	bcc.n	402206 <chbsp_group_pin_init+0x5a>
	}

	/* Initialize IO pins */
	chbsp_group_set_io_dir_in(grp_ptr);
  402228:	6878      	ldr	r0, [r7, #4]
  40222a:	4b23      	ldr	r3, [pc, #140]	; (4022b8 <chbsp_group_pin_init+0x10c>)
  40222c:	4798      	blx	r3

	/* Enable the peripheral clock for the MAG extension board interrupt pin. */
	pmc_enable_periph_clk(PIN_EXT_INTERRUPT_ID);
  40222e:	200b      	movs	r0, #11
  402230:	4b22      	ldr	r3, [pc, #136]	; (4022bc <chbsp_group_pin_init+0x110>)
  402232:	4798      	blx	r3

	/* Configure PIOs as input pins. */
	for(port_num = 0; port_num < grp_ptr->num_ports; port_num++ ) {
  402234:	2300      	movs	r3, #0
  402236:	73bb      	strb	r3, [r7, #14]
